:020000040800F2
:108000000806002005810008D9A6000847A100083D
:10801000D5A60008F585000807AB000800000000A1
:108020000000000000000000000000009DA8000803
:10803000F985000800000000DDA600089FA80008E0
:108040001F8100081F8100081F8100081F81000890
:108050001F8100081F8100081F8100081F81000880
:108060001F8100081F8100081F8100081F81000870
:108070001F8100081F8100081F8100081F81000860
:108080001F8100081F8100081F8100081F81000850
:108090001F8100081F8100081F8100081F81000840
:1080A0001F8100081F8100081F8100081F81000830
:1080B0001F8100081F8100081F8100081F81000820
:1080C0001F8100081F8100081F8100081F81000810
:1080D0001F81000805AB00081F8100081F810008F0
:1080E0001F8100081F8100081F810008DFF810D0E1
:1080F00000F08EF8004800475DB60008AFF300803E
:10810000080600200648804706480047FEE7FEE7CD
:10811000FEE7FEE7FEE7FEE7FEE7FEE7FEE7FEE737
:108120000DA90008ED800008202A04DB203A21FA7E
:1081300002F00021704721FA02F3D040C2F1200280
:10814000914008431946704710B5431A934209D22B
:108150008318881803E010F8011D03F8011D521E52
:10816000F9D210BD40EA01039B0703D009E008C91A
:10817000121F08C0042AFAD203E011F8013B00F8EC
:10818000013B521EF9D210BDD2B201E000F8012B22
:10819000491EFBD270470022F6E710B513460A4687
:1081A00004461946FFF7F0FF204610BD2DE9F05FA9
:1081B0000546002092469B46884606468146402456
:1081C0001BE02846414647462246FFF7ADFF53468F
:1081D0005A46C01A914110D311461846224600F063
:1081E00029F82D1A67EB01084F462246012000218D
:1081F00000F020F817EB00094E41201EA4F1010405
:10820000DFDC484631462A464346BDE8F09F000081
:10821000064C074D06E0E06840F0010394E80700D3
:1082200098471034AC42F6D3FFF764FFDCB7000880
:10823000FCB70008202A04DB203A00FA02F10020F3
:1082400070479140C2F1200320FA03F31943904094
:108250007047000003480078012800D170470020D3
:10826000FCE700002000002010B503F0BBF910BDB2
:10827000F0B59DB00020019001A902A801F0F0FF27
:108280000024E6E004EBC40002A951F82000B0F598
:10829000807F4CD104EBC40001EB8000007F4228BA
:1082A00028D104EBC40001EB8000407F452821D198
:1082B00004EBC40001EB8000807F47281AD104EB57
:1082C000C40001EB8000C07F492813D104EBC40037
:1082D00001EB800090F820004E280BD1694800780F
:1082E000002806D104EBC40102AA02EB810002F0CF
:1082F000C9FFACE0634800780128FAD104EBC40060
:1083000002A901EB8000007F4528F2D104EBC400F4
:1083100001EB8000407F4E28EBD104EBC40001EB61
:108320008000807F4428E4D103F044F88FE004EB20
:10833000C40002A951F8200040F201118842D8D1AE
:10834000504800780128D4D104EBC40002A901EB05
:108350008000407F04EBC40102AA02EB8101097F87
:1083600040EA012648480088864209D046480288EB
:10837000314646A002F010FD03F034F91DB0F0BD07
:1083800000200EE004EBC40102AA02EB81011C31C3
:10839000821C895C434A12880244434B9954411C15
:1083A000C8B20628EEDB06EB4600470000200EE0D0
:1083B00004EBC40102AA02EB81011C31821C895C1E
:1083C0003A4A12681144394A1160411CC8B2062861
:1083D00004DA3918364A12689142E9D331480088E4
:1083E000801D3049088024E03249096801F5805039
:1083F0004FF480722C4902F0A6FB28B12EA002F0A7
:10840000CBFC03F0EFF8B9E72A48006800F580706C
:108410002849086023480088A0F5807085B2002DA7
:1084200004DD2A462A492048FFF78EFE1D480580B4
:1084300000BF1C480088FF28D6DC13480088401C79
:108440001149088000F0EAFD2249086000BF601C65
:10845000C4B29DF804008442FFF614AF09480078C6
:1084600001280DD100F0DAFD1A490968401A41F2DD
:108470008831884204D918A002F08EFC03F0B2F8CB
:1084800000BF7BE7200000202C000020726563768F
:108490003A2073657120257520213D2025750D0A30
:1084A000000000002E000020080100203000002005
:1084B0002400002028000020726563763A2077327D
:1084C00035207772697465206661696C0D0A000059
:1084D0000802002034000020726563763A20746937
:1084E0006D656F75740D0A000148007870470000D3
:1084F0003800002010B5044601F081FEA02001F0F4
:1085000051FE18B101F08FFE012010BD201201F0C4
:1085100049FE18B101F087FE0120F6E7E0B201F054
:1085200041FE18B101F07FFE0120EEE70020ECE7EC
:1085300010B500240EE001F062FEA02001F032FE32
:1085400018B901F070FE002010BD01F06CFE01F0C2
:10855000FDFD641CB4F57A7FEDD30120F4E72DE92D
:10856000F04704460E461746B4F5005F03DAC4F53B
:108570000050B84202DA0220BDE8F0873D4635E0FF
:108580002046E11704EBD1614911A4EB4111C1F17F
:1085900020011FFA81F8454501DA284600E04046EF
:1085A00081462046FFF7A6FF08B10120E4E7C84650
:1085B0000CE016F8010B01F0F5FD18B101F033FEE7
:1085C0000120D9E7A8F101001FFA80F8B8F1000FE7
:1085D000EFDC01F028FE04EB090084B2A5EB0900F2
:1085E00085B2FFF7A5FF08B10120C5E7002DC7DC64
:1085F0000020C1E700BFFEE7704772B600BFFEE78C
:10860000F0B504460D461E4694F820702068836835
:10861000A86800B900E000BF012F01D0022F7DD172
:1086200003F0806030B903F0006018B903F08050A7
:1086300000287ED0C3F30161012088403060A86823
:1086400060B9B5F800C0E86840EA4C5C206800F505
:10865000C07000EB0110C0F800C00FE0D5E901C008
:1086600040EACC00D5F80CC040EA0C00D4F800C0B9
:108670000CF5C07C0CEB011CCCF80000D5F810C048
:10868000206800F5C07000EB0110C0F804C0287D20
:1086900001280ED1206800F5C07000EB0110406881
:1086A00040F4807C206800F5C07000EB0110C0F839
:1086B00004C0D079000692F806C040EA0C4092F857
:1086C00005C040EA0C2092F804C040EA0C00D4F83F
:1086D00000C00CF5C07C0CEB011CCCF80C00D07871
:1086E000000692F802C040EA0C4092F801C040EA4D
:1086F0000C2092F800C040EA0C00D4F800C00CF541
:10870000C07C0CEB011CCCF80800206800F5C070A0
:1087100000EB0110006840F0010C01E00FE008E000
:10872000206800F5C07000EB0110C0F800C0002008
:10873000F0BD606A40F4001060620120F8E7606AF2
:1087400040F4802060620120F2E7F0B504460A465A
:10875000216894F82050012D01D0022D74D1D1F858
:10876000000240F00100C1F80002107D00F01F0679
:10877000012000FA06F3D1F81C029843C1F81C024C
:10878000D069C8B9D1F80C029843C1F80C0290889E
:1087900080B2968940EA064601F51070576940F8A4
:1087A0003760108880B2168940EA064601F51070DD
:1087B000576900EBC7004660D069012819D1D1F88C
:1087C0000C021843C1F80C02908880B2168840EA67
:1087D000064601F51070576940F83760908980B2FD
:1087E000168940EA064601F51070576900EBC7008C
:1087F0004660906928B9D1F804029843C1F8040290
:1088000004E0D1F804021843C1F80402106928B941
:10881000D1F814029843C1F8140204E0D1F814020C
:108820001843C1F81402106A012804D1D1F81C02BF
:108830001843C1F81C02D1F8000220F00100C1F871
:1088400000020020F0BDFFE7606A40F48020606213
:108850000120F7E710B50246002092F82030012BE6
:1088600001D0022B09D121B91468E46804F0030097
:1088700003E01468246904F0030010BD70B50446D9
:1088800094F82050012D01D0022D7DD151B92068DE
:10889000C06800F0030080B9606A40F400106062B4
:1088A000012070BD2068006900F0030028B9606AEB
:1088B00040F4001060620120F3E7206800F5D870F2
:1088C00000EB0110006800F004009060906840B96F
:1088D000206800F5D87000EB01100068400D1060B2
:1088E00007E0206800F5D87000EB01100068C008B0
:1088F0005060206800F5D87000EB0110006800F0AF
:108900000200D060206800F5D87000EB01104068CC
:1089100000F00F00082802D30820106108E020684A
:1089200000F5D87000EB0110406800F00F001061F6
:10893000206800F5D87000EB0110406800F47F401B
:10894000000A9061206800F5D87000EB01104068C3
:10895000000C5061206800F5D87000EB01108068B1
:108960001870206800F5D87000EB0110806800F4E2
:108970007F40000A5870206800F5D87000EB0110A5
:10898000806800F47F0000E03CE0000C98702068F4
:1089900000F5D87000EB01108068000ED8702068D8
:1089A00000F5D87000EB0110C0681871206800F560
:1089B000D87000EB0110C06800F47F40000A5871C5
:1089C000206800F5D87000EB0110C06800F47F004B
:1089D000000C9871206800F5D87000EB0110C06899
:1089E000000ED87131B92068C06840F020002668B8
:1089F000F06005E02068006940F0200026683061E2
:108A000000204EE7606A40F480206062012048E761
:108A10000146002091F82020012A01D0022A11D11C
:108A20000B689B6803F0806303B1401C0B689B6874
:108A300003F0006303B1401C0B689B6803F0805394
:108A400003B1401C704770B504460CB9012070BDDD
:108A500094F8200010B9204600F0B0F820680068B3
:108A600040F001002168086000F0D8FA05460DE0EA
:108A700000F0D4FA401B0A2808D9606A40F400309C
:108A80006062052084F820000120E0E7206840684B
:108A900000F001000028EBD02068006820F0020000
:108AA0002168086000F0BAFA05460DE000F0B6FA59
:108AB000401B0A2808D9606A40F400306062052033
:108AC00084F820000120C2E72068406800F002001E
:108AD0000028EBD1207E012806D12068006840F0F4
:108AE00080002168086005E02068006820F08000B0
:108AF00021680860607E012806D12068006840F087
:108B000040002168086005E02068006820F040000F
:108B100021680860A07E012806D12068006840F026
:108B200020002168086005E02068006820F020002F
:108B300021680860E07E012806D12068006820F0E6
:108B400010002168086005E02068006840F010000F
:108B500021680860207F012806D12068006840F065
:108B600008002168086005E02068006820F008001F
:108B700021680860607F012806D12068006840F005
:108B800004002168086005E02068006820F0040007
:108B900021680860D4E9020108432169084361693A
:108BA00008436168491E08432168C861002060626B
:108BB000012084F82000002049E7000010B586B0AD
:108BC0000446002002900390049005901A49206802
:108BD00088422ED100BF1948C06940F00070174983
:108BE000C8610846C06900F00070019000BF00BF76
:108BF00000BF0846806940F004008861084680692B
:108C000000F00400019000BF00BFC81402900020D3
:108C10000390049002A90A4800F058F84FF48050DD
:108C20000290022003900320059002A9044800F05E
:108C30004DF806B010BD0000006400400010024076
:108C40000008014070B5044694F82000012822D1A4
:108C5000022084F820002068006820F001002168CC
:108C6000086000F0DBF905460DE000F0D7F9401B85
:108C70000A2808D9606A40F400306062052084F850
:108C80002000012070BD2068406800F0010000282D
:108C9000EBD16062F6E7606A40F400206062012078
:108CA000F0E7000070B5044600F0B8F90646254626
:108CB000681C10B104480078054400BF00F0AEF90C
:108CC000801BA842FAD370BD080000202DE9F847A8
:108CD0000346002294466EE14FF0010808FA02F4C0
:108CE000D1F8008008EA0400A0427DD1DFF8DCA2C0
:108CF000D1F80480A8EB0A09D0453AD014DCB8F1C9
:108D0000030F50D009DCB8F1000F31D0B8F1010FDA
:108D10001CD0B8F1020F49D120E0B8F1110F18D0E2
:108D2000B8F1120F42D11EE0B9F5881F25D006DC3C
:108D3000B9F5803F20D0B9F5801F37D11AE0B9F5D9
:108D4000001F18D0B9F5041F30D117E0D1F80CC0BE
:108D50002DE0D1F80C8008F1040C28E0D1F80C804B
:108D600008F1080C23E0D1F80C8008F10C0C1EE08F
:108D700000BF00BF00BF00BF00BF00BFD1F8088028
:108D8000B8F1000F02D14FF0040C0BE0D1F80880CD
:108D9000B8F1010F03D14FF0080C1C6102E04FF055
:108DA000080C5C6103E04FF0000C00E000BF00BF66
:108DB000FF2801D8984601E003F104084646FF2841
:108DC00002D84FEA820803E0A2F108084FEA8808B7
:108DD0004746D6F800804FF00F0909FA07F928EA4C
:108DE00009080CFA07F900E088E048EA0908C6F823
:108DF0000080D1F8048008F08058B8F1805F7DD100
:108E000000BFDFF8CC81D8F8188048F00108DFF8FF
:108E1000C091C9F81880C846D8F8188008F0010831
:108E2000CDF8008000BF00BF4FEAB9384FEA920981
:108E300058F829504FEA82784FEA18794FF00F0816
:108E400008FA09F825EA0805DFF88881434502D1C8
:108E50004FF0000816E0DFF88081434502D14FF063
:108E600001080FE0DFF87481434502D14FF002089A
:108E700008E0DFF86C81434502D14FF0030801E0C0
:108E80004FF004084FEA82794FEA197908FA09F895
:108E900048EA0505DFF84C814FEA920948F8295065
:108EA000D1F8048008F48018B8F5801F0AD1DFF8E3
:108EB0003881D8F8008048EA0008DFF82C91C9F81A
:108EC000008009E0DFF82081D8F8008028EA000857
:108ED000DFF81491C9F80080D1F8048008F4001874
:108EE000B8F5001F10D1DFF8008108F10408D8F8A8
:108EF000008048EA0008DFF8F09000E05AE009F14D
:108F00000409C9F800800DE0DFF8DC8008F10408EE
:108F1000D8F8008028EA0008DFF8CC9009F10409AD
:108F2000C9F80080D1F8048008F40038B8F5003F93
:108F30000ED1DFF8B480A8F10408D8F8008048EA20
:108F40000008DFF8A490A9F10409C9F800800DE039
:108F5000DFF89480A8F10408D8F8008028EA000817
:108F6000DFF88490A9F10409C9F80080D1F80480E1
:108F700008F48038B8F5803F0ED1DFF86C80A8F196
:108F80000808D8F8008048EA0008DFF85C90A9F1EA
:108F90000809C9F800800DE0DFF84C80A8F1080846
:108FA000D8F8008028EA0008DFF83C90A9F1080909
:108FB000C9F80080521CD1F8008028FA02F8B8F1F4
:108FC000000F7FF489AEBDE8F887000000001110A3
:108FD0000010024000080140000C01400010014058
:108FE0000014014008000140080401400246936853
:108FF0000B400BB1012000E00020704710B5C268A3
:1090000021EA020302EA010443EA0443036110BDBA
:109010000AB1016101E00B04036170470148006877
:1090200070470000000000200348006803490978E9
:109030000844014908607047000000200800002033
:1090400010B50848006840F0100006490860032089
:1090500000F0A8F80F2000F007F800F02BF800202F
:1090600010BD00000020024070B504460E48007894
:109070004FF47A71B1FBF0F00C490968B1FBF0F5DF
:10908000284600F05FFF08B1012070BD102C07D208
:1090900000222146501E00F047F80548046001E018
:1090A0000120F2E70020F0E7080000200C0000207B
:1090B0000400002008B500BF1148806940F001009D
:1090C0000F4988610846806900F00100009000BFE8
:1090D00000BF00BF0846C06940F08050C861084624
:1090E000C06900F08050009000BF00BF00BF05497C
:1090F000486820F0E06040F00070486000BF08BDA4
:10910000001002400000014001460846002809DB2B
:1091100000F01F0301229A4043099B0003F1E02362
:10912000C3F8002100BF70472DE9F05F80460D466F
:109130001646002701F040FE074639462A463346C8
:1091400001F00700C0F1070ABAF1040F02D94FF08D
:10915000040A01E0C0F1070AD14600F1040ABAF19D
:10916000070F02D24FF0000A01E0A0F1030AD44633
:109170004FF0010A0AFA09FAAAF1010A0AEA020AF8
:109180000AFA0CFA4FF0010B0BFA0CFBABF1010BD6
:109190000BEA030B4AEA0B042146404601F014FE99
:1091A000BDE8F09F00BF00F00702064B19684FF6BC
:1091B000FF031940044B0B4343EA0221014B1960A2
:1091C00000BF70470CED00E00000FA0570B50446E2
:1091D0000D460CB9012070BD5A48006800F0070028
:1091E000A8420ED25748006820F00700284355498E
:1091F00008600846006800F00700A84201D001207E
:10920000E9E7207800F0020002281DD1207800F064
:109210000400042805D14C48406840F4E0604A4905
:109220004860207800F00800082805D146484068CA
:1092300040F46050444948604348406820F0F000E2
:10924000A168084340494860207800F0010078B3E5
:109250006068012806D13C48006800F4003090B9ED
:109260000120B8E76068022806D13748006800F09E
:10927000007040B90120AEE73348006800F00200FA
:1092800008B90120A7E73048406820F00300616872
:1092900008432D494860FFF7C1FE064609E0FFF785
:1092A000BDFE801B41F28831884202D9032092E73B
:1092B00007E02548406800F00C006168B0EB810FC2
:1092C000EDD12048006800F00700A8420ED91D48E3
:1092D000006820F0070028431A4908600846006823
:1092E00000F00700A84201D0012074E7207800F0C8
:1092F0000400042807D11448406820F4E060E168C5
:10930000084311494860207800F00800082808D177
:109310000D48406820F46050216940EAC1000A49C4
:10932000486000F03FF808494968C1F30311074A53
:10933000515CC8400649086006480068FFF794FE83
:10934000002048E70020024000100240C2B7000899
:109350000C00002004000020014800687047000055
:109360000C00002000B5FFF7F7FF04494968C1F37E
:109370000221034A515CC84000BD000000100240B9
:10938000D2B7000800B5FFF7E7FF04494968C1F309
:10939000C221034A515CC84000BD000000100240D9
:1093A000D2B7000870B5002100220024002300205D
:1093B000134D696801F00C05F5B1042D02D0082D9C
:1093C00019D101E00F4819E00F4DC1F38346AB5DA1
:1093D00001F4803555B10A4D6D68C5F340450B4E1B
:1093E000725D084D5D43B5FBF2F402E0084D03FBEE
:1093F00005F4204602E000BF024800BF00BF70BD78
:109400000010024000127A00B0B70008C0B7000890
:1094100000093D00F8B504460CB90120F8BD2078DC
:1094200000F00100002878D0F848406800F00C00F7
:1094300004280CD0F548406800F00C00082811D131
:10944000F248406800F48030B0F5803F0AD1EF4820
:10945000006800F4003000285FD0606800285CD10C
:109460000120DBE700BF6068B0F5803F06D1E74828
:10947000006840F48030E549086028E0606858B929
:10948000E248006820F48030E0490860084600683F
:1094900020F4802008601AE06068B0F5A02F0BD19E
:1094A000DA48006840F48020D8490860084600681F
:1094B00040F4803008600AE0D448006820F480302E
:1094C000D24908600846006820F48020086000BF88
:1094D000606888B1FFF7A2FD054606E0FFF79EFD34
:1094E000401B642801D9032098E7C848006800F4AD
:1094F00000300028F2D010E0FFF790FD054606E0AE
:10950000FFF78CFD401B642801D9032086E7BF4884
:10951000006800F400300028F2D1207800F002004A
:10952000022857D1B948406800F00C0050B1B74844
:10953000406800F00C00082818D1B448406800F4D6
:10954000803098B9B148006800F0020020B120696D
:10955000012801D0012061E7AC48006820F0F80044
:10956000616940EAC100A949086033E02069E8B1B7
:109570000120A7490860FFF751FD054606E0FFF707
:109580004DFD401B022801D9032047E79F48006892
:1095900000F002000028F2D09C48006820F0F8009B
:1095A000616940EAC1009949086013E000209849C8
:1095B0000860FFF733FD054606E0FFF72FFD401B6F
:1095C000022801D9032029E79048006800F0020032
:1095D0000028F2D1207800F0080008282DD1A069D9
:1095E000B8B101208B490860FFF718FD054606E079
:1095F000FFF714FD401B022801D903200EE7834822
:10960000406A00F002000028F2D0012001F068F862
:1096100013E000207F490860FFF700FD054606E0E3
:10962000FFF7FCFC401B022801D90320F6E677482F
:10963000406A00F002000028F2D1207800F0040017
:10964000042873D100277148C06900F0805070B9B8
:1096500000BF6E48C06940F080506C49C861084640
:10966000C06900F08050009000BF00BF01276A4829
:10967000006800F48070B0B96748006840F48070FA
:1096800065490860FFF7CAFC054606E0FFF7C6FC1F
:10969000401B642801D90320C0E65F48006800F43D
:1096A00080700028F2D000BFE068012806D157483A
:1096B000006A40F001005549086227E0E06858B9A7
:1096C0005248006A20F00100504908620846006ACA
:1096D00020F00400086219E0E06805280BD14B482F
:1096E000006A40F00400494908620846006A40F0F8
:1096F000010008620AE04548006A20F00100434981
:1097000008620846006A20F00400086200BFE068B2
:10971000A0B1FFF783FC054609E0FFF77FFC401B83
:1097200041F28831884202D9032077E622E03748A7
:10973000006A00F002000028EFD012E0FFF76EFC94
:10974000054608E0FFF76AFC401B41F28831884279
:1097500001D9032062E62D48006A00F002000028CB
:10976000F0D1012F05D12948C06920F08050274948
:10977000C86100BFE069C8B32448406800F00C002D
:10978000082860D0E069022848D1002020490866F6
:10979000FFF744FC054606E0FFF740FC401B0228AB
:1097A00001D903203AE61948006800F0007000284B
:1097B000F2D1206AB0F5803F07D11448406820F408
:1097C0000030A168084311494860D4E90801084302
:1097D0000E49496821F4741108430C49486001207E
:1097E0000B490866FFF71AFC054607E03DE0FFF766
:1097F00015FC401B022801D903200FE6034800682E
:1098000000F000700028F2D02FE0000000100240AD
:10981000000042428004424200700040002014498F
:109820000866FFF7FBFB054606E0FFF7F7FB401B6A
:10983000022801D90320F1E50E48006800F000700D
:109840000028F2D111E0E069012800D1E6E50948DD
:10985000466806F48031206A814204D106F4701112
:10986000606A814201D00120D8E50020D6E50000E1
:10987000000042420010024010B504460CB901201D
:1098800010BD606A38B96068B0F5827F00D105E02C
:109890000021E16102E00021216161610021A162FA
:1098A00094F8510028B9002084F85000204600F0B8
:1098B00043F8022084F851002068006820F040003E
:1098C00021680860A08800F48270218901F40441B5
:1098D0000843A18901F400610843217C01F00201E1
:1098E0000843217D01F001010843218B01F400713F
:1098F0000843217F01F0380108432021095D01F070
:1099000080010843218D01F400510843216808605B
:109910000421A06901EA1040216848602068C069FC
:1099200020F400602168C86100206065012084F88F
:1099300051000020A4E7000010B586B004460020C6
:1099400002900390049005901949206888422DD117
:1099500000BF1848806940F4805016498861084665
:10996000806900F48050019000BF00BF00BF08462E
:10997000806940F0040088610846806900F00400B6
:10998000019000BF00BFA02002900220039003209E
:10999000059002A90848FFF799F94020029000209D
:1099A0000390049002A90448FFF790F906B010BD97
:1099B0000030014000100240000801402DE9F8434A
:1099C0000446884616461D4694F85100012802D0E8
:1099D0000220BDE8F8836068B0F5827F0CD1A068F2
:1099E00050B9042084F8510033464246414620468F
:1099F000009500F083F9ECE7FFF710FB0746B8F19C
:109A0000000F00D00EB90120E3E700BF94F850002A
:109A1000012801D10220DCE7012084F8500000BFBA
:109A2000042084F8510000206065C4F83880A687BF
:109A3000E6872063A086E08620646064A068B0F5B5
:109A4000004F0BD12068006820F0400021680860BA
:109A50002068006820F48040216808602068006861
:109A600000F04000402805D02068006840F0400029
:109A700021680860E06830BB21E02068806800F061
:109A8000010050B12068007BA16B0870A06B401CE6
:109A9000A063E08F401EE08711E0FFF7BFFAC01B14
:109AA000A84201D3681C00B94DB9012084F85100C7
:109AB00000BF002084F8500000BF032089E7E08F3A
:109AC0000028DAD125E021E02068806800F001005C
:109AD00050B12068C068A16B0880A06B801CA06397
:109AE000E08F401EE08711E0FFF798FAC01BA84204
:109AF00001D3681C00B94DB9012084F8510000BFA2
:109B0000002084F8500000BF032062E7E08F0028A7
:109B1000DAD13A462946204600F0F6FD08B1202069
:109B20006065012084F8510000BF002084F85000D7
:109B300000BF606D08B101204BE7002049E72DE927
:109B4000F84304460F4616461D46FFF767FA80465F
:109B5000B14694F85100012802D00220BDE8F883F4
:109B600007B10EB90120F9E700BF94F850000128B1
:109B700001D10220F2E7012084F8500000BF032049
:109B800084F85100002060652763A686E686A063FE
:109B9000A087E08760642064A068B0F5004F0BD117
:109BA0002068006820F04000216808602068006894
:109BB00040F48040216808602068006800F04000A0
:109BC000402805D02068006840F040002168086007
:109BD000E068B0F5006F37D1606810B1B9F1010FDE
:109BE00009D1206B00882168C860206B801C20632D
:109BF000E08E401EE08623E02068806800F00200CE
:109C000002280AD1206B00882168C860206B801C64
:109C10002063E08E401EE08612E0FFF7FFF9A0EB24
:109C20000800A84201D3681C00B94DB9012084F88E
:109C3000510000BF002084F8500000BF03208DE7D2
:109C4000E08E0028D8D136E0606810B1B9F1010F7C
:109C500009D1206B007821680873206B401C2063B9
:109C6000E08E401EE08623E02068806800F002005D
:109C700002280AD1206B007821680873206B401CF1
:109C80002063E08E401EE08612E0FFF7C7F9A0EBEC
:109C90000800A84201D3681C00B94DB9012084F81E
:109CA000510000BF002084F8500000BF032055E79A
:109CB000E08E0028D8D142462946204600F060FDBB
:109CC00008B120206065A06850B900BF0020009056
:109CD0002068C068009020688068009000BF00BFC6
:109CE000012084F8510000BF002084F8500000BF1C
:109CF000606D08B1012031E700202FE72DE9FE4F0C
:109D000004460F4690461D460C9E01200190FFF729
:109D100085F9814694F851B060680290AA46BBF17B
:109D2000010F0BD00298B0F5827F04D1A06810B962
:109D3000BBF1040F02D00220BDE8FE8F1FB1B8F1C5
:109D4000000F00D00DB90120F6E700BF94F85000D5
:109D5000012801D10220EFE7012084F8500000BF64
:109D600094F85100042802D0052084F85100002006
:109D70006065C4F83880E587A5872763E586A586F2
:109D8000206460642068006800F04000402805D02E
:109D90002068006840F0400021680860E068B0F585
:109DA000006F52D1606810B1BAF1010F09D1206B78
:109DB00000882168C860206B801C2063E08E401EF4
:109DC000E0863BE02068806800F00200022810D1A5
:109DD000E08E70B1019801280BD1206B00882168BA
:109DE000C860206B801C2063E08E401EE08600204F
:109DF00001902068806800F0010068B1E08F58B1E0
:109E00002068C068A16B0880A06B801CA063E08FF5
:109E1000401EE08701200190FFF700F9A0EB090048
:109E2000B0420BD3701C48B1012084F8510000BF30
:109E3000002084F8500000BF03207DE7E08E00285A
:109E4000C0D1E08F0028BDD152E0606810B1BAF1F6
:109E5000010F09D1206B007821680873206B401C2A
:109E60002063E08E401EE0863CE02068806800F0C1
:109E70000200022810D1E08E70B1019801280BD1A8
:109E8000206B007821680873206B401C2063E08EF3
:109E9000401EE086002001902068806800F00100EC
:109EA00068B1E08F58B12068C068A16B0870A06BE2
:109EB000401CA063E08F401EE08701200190FFF767
:109EC000ADF8A0EB0900B04201D3701C00B94EB947
:109ED000012084F8510000BF002084F8500000BF2A
:109EE000032029E7E08E0028BFD1E08F0028BCD1F5
:109EF0004A463146204600F043FC40B120206065D0
:109F000000BF002084F8500000BF012014E7A068C3
:109F100050B900BF002000902068C0680090206801
:109F20008068009000BF00BF012084F8510000BF8E
:109F3000002084F8500000BF606D08B10120FBE6EE
:109F40000020F9E670B504462546681EB0F1807F12
:109F500001D301200FE0681E4FF0E02148610F217E
:109F60004FF0FF3000F030FF00204FF0E02188611B
:109F700007200861002070BD10B504460CB901200F
:109F800010BDA06900B100E000BF94F8410028B9FD
:109F9000002084F84000204600F02AF8242084F8AD
:109FA00041002068C06820F400502168C860204645
:109FB00000F0E4FC2068006920F49040216808610A
:109FC0002068406920F02A00216848612068C06844
:109FD00040F400502168C86000206064202084F8AC
:109FE000410084F842000020606300BFC8E7000021
:109FF00010B586B0044600200290039004900590AE
:10A000001E492068884236D100BF1D48806940F44F
:10A0100080401B4988610846806900F480400190B7
:10A0200000BF00BF00BF0846806940F0040088619F
:10A030000846806900F00400019000BF00BF481589
:10A040000290022003900320059002A90D48FEF71C
:10A050003DFE4FF48060029000200390049002A91E
:10A060000848FEF733FE002205212520FFF75CF8A3
:10A070002520FFF749F806B010BD00000038014068
:10A0800000100240000801402DE9F84F04460E463A
:10A09000174699464FF0000A94F84100202850D105
:10A0A00006B117B90120BDE8F88F002060642120B7
:10A0B00084F84100FEF7B2FF8246A784E784A068D7
:10A0C000B0F5805F04D1206910B90025B04602E0E8
:10A0D00035464FF000081EE05346002280212046FE
:10A0E000CDF8009000F0C8FC20B1202084F8410099
:10A0F0000320D8E745B9B8F80000C0F3080021688C
:10A10000486008F1020803E02878216848606D1C67
:10A11000E08C401EE084E08C0028DDD15346002214
:10A1200040212046CDF8009000F0A6FC20B1202070
:10A1300084F841000320B6E7202084F84100002085
:10A14000B1E70220AFE700BFFEE70000074A516811
:10A15000074A1268074BB2FBF3F202EB820000BF22
:10A16000024A5268521A8242FAD37047001000E045
:10A170000C00002040420F0010B54FF4006102486F
:10A18000FEF734FF10BD0000000C014010B504467E
:10A1900022464FF480610248FEF73AFF10BD0000EE
:10A1A000000C014070B50446002511E00020FFF7C7
:10A1B000EDFFC4F3C01000F047F8FFF7C7FF012020
:10A1C000FFF7E4FFFFF7C2FF6006040E681CC5B28C
:10A1D000082DEBDB0020FFF7D9FF012000F034F859
:10A1E000FFF7B4FF0120FFF7D1FFFFF7AFFFFFF745
:10A1F000C3FF06460020FFF7C9FF304670BD10B50B
:10A20000012000F021F80120FFF7C0FFFFF79EFFBB
:10A21000002000F019F8FFF799FF0020FFF7B6FFC4
:10A22000FFF794FF10BD10B5002000F00DF8FFF708
:10A230008DFF0120FFF7AAFFFFF788FF012000F044
:10A2400003F8FFF783FF10BD10B5044622464FF414
:10A2500000610248FEF7DCFE10BD0000000C01406A
:10A260002DE9F04107460C4600210E48FEF7F2FAB0
:10A270002070002510E005EBC50007EB80062421C7
:10A280003046FDF788FF06F11C03324600210548E1
:10A29000FEF7F4FA681CC5B22078A842EBDCBDE8F2
:10A2A000F081000040000020F0B587B005460E4662
:10A2B000174600BF0D48FEF7ABFB0028FAD0182167
:10A2C00001A8FDF768FF0020039004900597019511
:10A2D00000906B46324601A90448FEF791F9044606
:10A2E00014B103A000F058FD07B0F0BD40000020FD
:10A2F0004572726F723A204661696C656420746FB2
:10A3000020616464206D657373616765206D65739A
:10A310007361676520746F2043414E206D61696CE5
:10A32000626F780A00000000014608480078084083
:10A3300050B106480078012804D0044800788843CA
:10A34000024A1070012070470020FCE71000002036
:10A3500010B54FF480510448FEF748FE08B90120BB
:10A3600010BD0020FCE70000000C014000B585B0E6
:10A3700000BF1048806940F008000E498861084617
:10A38000806900F00800009000BF00BF002001902D
:10A390000290039004908814019000200290012004
:10A3A000039001A90448FEF791FC002003490870BE
:10A3B00005B000BD00100240000C0140100000205C
:10A3C00070B5FEF72BFE0446FFF7C2FF0546524864
:10A3D0000078854202D1514804600CE04F48006883
:10A3E000201A142807D34C4800784D4908704A4871
:10A3F00005704A48046048480078012806D1494859
:10A40000007840F001004749087005E045480078B1
:10A4100020F00100434908703F480078012805D129
:10A420003F48007810B902203E4908703A48007849
:10A4300030B93B480078012802D10420394908701E
:10A4400039480078052861D2DFE800F0030C274482
:10A450004B0031480078012803D133490870334854
:10A46000046057E02C48007828B902202E49087073
:10A470002E48046010E02D480068201AB0F5FA6FED
:10A480000AD32848007840F02000264908700420AC
:10A4900025490870254804603CE01F4800780128E1
:10A4A00009D12048007840F010001E4908700320B0
:10A4B0001D4908700DE01D480068201AC82808D3FF
:10A4C0001848007840F00800164908700020164926
:10A4D00008701FE01048007810B900201249087079
:10A4E00018E00D48007818B900200F4908700CE0FA
:10A4F0000E480068201A642807D30A48007840F004
:10A500004000084908700948046003E0002006493B
:10A51000087000BF00BF70BD1200002018000020AE
:10A520001300002010000020140000201C00002058
:10A5300010B50E480E4908602420486000210C48E0
:10A540008160C1604FF480310161090141610021E6
:10A5500001760121417681760021C176017741772C
:10A56000FEF771FA08B1FEF748F810BD006400402C
:10A570004000002000B585B00020019002900390BB
:10A58000049000BF3148806940F010002F49886175
:10A590000846806900F01000009000BF00BF00BFB7
:10A5A0000846806940F0200088610846806900F014
:10A5B0002000009000BF00BF00BF0846806940F047
:10A5C000040088610846806900F00400009000BF24
:10A5D00000BF00BF0846806940F008008861084657
:10A5E000806900F00800009000BF00BF0122172121
:10A5F0001748FEF70DFD00224FF440611548FEF7A5
:10A6000007FD072001900120029000200390022006
:10A61000049001A90E48FEF759FB1020019001207B
:10A62000029003900320049001A90948FEF74EFB15
:10A630004FF440600190112002900120039004909B
:10A6400001A90448FEF742FB05B000BD001002401E
:10A6500000080140000C014010B50E480E4908608A
:10A660004FF48270486000210B488160C160016135
:10A6700041614FF4007181611021C16100210162CB
:10A68000416281620A21C162FFF7F6F808B1FDF765
:10A69000B4FF10BD003001406800002010B50B4829
:10A6A0000B4908604FF4165048600021084881604B
:10A6B000C16001610C21416100218161C161FFF72D
:10A6C0005BFC08B1FDF799FF10BD000000380140A8
:10A6D000C000002000BFFEE700BFFEE7704700009B
:10A6E00008B508490968C9084FF47A72B1FBF2F15C
:10A6F0004143009100BF00BF00994A1E009200290B
:10A70000F9D108BD0C000020F8B504460E461546E8
:10A710006068B0F5827F0DD1A068B0F5004F03D01E
:10A72000A068B0F5806F05D12068006820F0400077
:10A73000216808606068B0F5827F11D1A068B0F52B
:10A74000806F0DD13346002201212046009500F094
:10A7500039F898B1606D40F0200060650320F8BDC5
:10A760003346002280212046009500F02BF828B1C6
:10A77000606D40F0200060650320F0E70020EEE708
:10A78000F8B504460E4615463346012202212046FE
:10A79000009500F017F828B1606D40F0200060656A
:10A7A0000320F8BD3346002280212046009500F0AA
:10A7B00009F828B1606D40F0200060650320F0E7E3
:10A7C0000020EEE72DE9F84F04460D4690461E4660
:10A7D000DDF82890FEF722FCA0EB0900371AFEF7FF
:10A7E0001DFC82462C480068C0F3CB3078430090B3
:10A7F00045E0701C002842D0FEF710FCA0EB0A00D8
:10A80000B84200D2A7BB2068406820F0E000216871
:10A8100048606068B0F5827F0DD1A068B0F5004F48
:10A8200003D0A068B0F5806F05D12068006820F0E3
:10A83000400021680860A06AB0F5005F0DD100BF3C
:10A840002068006820F400502168086020680068D3
:10A8500040F400502168086000BF012084F85100D6
:10A8600000BF002084F8500000BF0320BDE8F88F2F
:10A87000FFE7009800B900270098401E009020686C
:10A8800080682840A84201D1012000E00020404516
:10A89000AFD10020EAE700000C000020704710B59F
:10A8A000FEF7C2FB10BD00B58FB0282105A8FDF74B
:10A8B00072FC14216846FDF76EFC0120059000042F
:10A8C0000690002007900120099002200C90C103FF
:10A8D0000D914FF4E0110E9105A8FEF79BFD08B114
:10A8E000FDF78BFE0F2000900220019000200290C7
:10A8F0004FF4806003900020049002216846FEF728
:10A9000065FC08B1FDF779FE0FB000BD704700BFD0
:10A9100000BF02680C3252E8002F22F490710268E6
:10A920000C3242E80013002BF3D100BF00BF00BF80
:10A930000268143252E8002F22F00101026814323A
:10A9400042E80013002BF3D100BF016B01290ED1A7
:10A9500000BF00BF02680C3252E8002F22F0100145
:10A9600002680C3242E80013002BF3D100BF202113
:10A9700080F84210002101637047000070B5044662
:10A980002168096921F44051E2681143226811618C
:10A990002269A1681143626941EA02052168C96818
:10A9A00041F20C62914329432268D16021684969D0
:10A9B00021F44071A2691143226851612D4A216836
:10A9C000914202D1FEF7DEFC01E0FEF7CBFC00EB8A
:10A9D000C00101EB001162689200B1FBF2F100EBE3
:10A9E000C00202EB001263689B00B2FBF3F2642327
:10A9F000B2FBF3F202EBC20303EB0212A1EB820102
:10AA0000322202EB01116422B1FBF2F101F0F001FC
:10AA100000EBC00202EB001263689B00B2FBF3F292
:10AA20006423B2FBF3F201EB021200EBC00101EB75
:10AA3000001163689B00B1FBF3F100EBC00303EB73
:10AA400000136668B600B3FBF6F36426B3FBF6F3B7
:10AA500003EBC30606EB0313A1EB8301322303EBE5
:10AA600001116423B1FBF3F101F00F0111442268DD
:10AA7000916070BD003801402DE9F84304460D4651
:10AA800017469846089E31E0701C70B3FEF7C6FA70
:10AA9000A0EB0800B04200D816B90320BDE8F88347
:10AAA0002068C06800F00400F8B1802D1ED0402D51
:10AAB0001CD020680068C0F3C000B0B100BF002007
:10AAC000009020680068009020684068009000BFF7
:10AAD00000BF2046FFF71BFF0820606400BF002076
:10AAE00084F8400000BF0120D8E7FFE72068006835
:10AAF0002840A84201D1012000E00020B842C3D084
:10AB00000020CBE7704700BFFEE770B50546B5F5FE
:10AB1000000F01D3032070BD00F02CF904460CB1E6
:10AB20002046F8E700F0BCF82946202000F0D2F8D3
:10AB3000044600F0ABF80CB12046ECE74FF47A7015
:10AB400000F0ECF8E7E72DE9F04105460F46144622
:10AB5000B5F5000F00D217B90320BDE8F0810CB99C
:10AB60000020FAE7B4F5807F08DCE8B22044B0F5B5
:10AB7000807F03D82819B0F5000F01D90320ECE736
:10AB800000F0F8F806460EB13046E6E700F088F827
:10AB90002946022000F09EF8064626B9214638468E
:10ABA00000F0ACF8064600F071F80EB13046D4E77C
:10ABB0000A2000F0B3F8D0E72DE9F04704460D462F
:10ABC0001646B4F5000F04D2C4F50000B04200D31D
:10ABD00015B90320BDE8F0870EB90020FAE700F0B0
:10ABE0005FF82146032000F075F88046B8F1000FA9
:10ABF00003D000F04BF84046ECE7374617E0B7F5D6
:10AC0000803F02D34FF6FF7000E0384681461FFABE
:10AC100089F1284600F04EF88046B8F1000F03D0C5
:10AC200000F034F84046D5E74D44A7EB0907002F64
:10AC3000E5D100F02BF80020CCE71CB504469F209E
:10AC40000190002000900CB903201CBD00F028F8F2
:10AC5000012101A800F052F820B90321684600F054
:10AC600029F818B100F012F80120EEE700F00EF814
:10AC70009DF8000000049DF8011040EA01209DF8B5
:10AC80000210084320600020DFE7000010B5012219
:10AC900010210248FEF7BCF910BD00000008014079
:10ACA00010B5002210210248FEF7B2F910BD0000D5
:10ACB0000008014070B504460D4664232A4621462B
:10ACC0000348FEF77BFE08B1012070BD0020FCE7C1
:10ACD0006800002038B505460C468DF80050200C61
:10ACE0008DF80100200A8DF80200E0B28DF8030013
:10ACF0000421684600F002F838BD000070B5044633
:10AD00000D4664232A4621460348FEF718FF08B182
:10AD1000012070BD0020FCE7680000207CB50446DF
:10AD200005200190FEF77AF9054600BFFFF7B8FF4E
:10AD3000012101A8FFF7E2FF18B1FFF7A7FF0120EB
:10AD40007CBD01216846FFF7B5FF18B1FFF79EFFF4
:10AD50000120F5E7FFF79AFF9DF8000000F00100E1
:10AD600008B90020ECE7FEF759F9401BA042DDD3FB
:10AD70000420E5E708B506200090FFF791FF0121C8
:10AD80006846FFF7BBFF18B1FFF780FF012008BD41
:10AD9000FFF77CFF0020FAE70FB4054B10B503A9BD
:10ADA000044A029800F034F810BC5DF814FB00006F
:10ADB00069B200083C00002002480068C0F302208D
:10ADC000704700000CED00E010B5002804DB0A0716
:10ADD000130E054A135406E00A07140E034A00F046
:10ADE0000F031B1FD45410BD00E400E018ED00E079
:10ADF00002E008C8121F08C1002AFAD17047704744
:10AE0000002001E001C1121F002AFBD170470000A1
:10AE10002DE9FF4F8DB00F460546002606E0252898
:10AE20000BD0DDE90F1290476D1C761C28780028A6
:10AE3000F5D111B03046BDE8F08F0024A246A146FE
:10AE40000122E94900E0044315F8013F203B02FAE2
:10AE500003F00842F7D128782A2810D06FF02F028B
:10AE60002878A0F13001092914D80AEB8A0102EBF5
:10AE7000410144F0020400EB010A6D1CF0E701CF30
:10AE80005FEA000A03D544F40054CAF1000A44F012
:10AE900002046D1C28782E2817D115F8010F44F0F4
:10AEA00004042A280ED06FF02F022878A0F1300178
:10AEB00009290AD809EB890102EB410100EB0109DC
:10AEC0006D1CF2E757F8049B6D1C28786C280FD096
:10AED00006DC4C2817D068280DD06A2814D104E06D
:10AEE000742810D07A280FD10DE044F400140AE041
:10AEF00044F4801401E044F440146978814202D1A2
:10AF000004F580146D1C6D1C28786E281ED00CDC96
:10AF1000632830D004DC00288BD0582811D19FE062
:10AF2000642867D069280CD164E073282DD004DC34
:10AF30006F2872D0702804D194E075286ED07828DC
:10AF40006DD0DDE90F129047761C4BE1C4F302503F
:10AF5000022806D0032809D0042801CF09D00660B2
:10AF600040E101CFF117C0E900613BE101CF06806C
:10AF700038E1067036E117F8040B8DF80000002068
:10AF80008DF80100EB46012003E057F804BB4FF0B9
:10AF9000FF3061074FF0000102D40DE008F101011C
:10AFA000884649450FDA8045F8DB1BF80810002970
:10AFB000F4D108E008F1010188468142FADB1BF870
:10AFC00008100029F6D1DDE90F23AAEB080081461D
:10AFD000214600F031F9304400EB080604E0DDE9D9
:10AFE0000F121BF8010B9047B8F10108F7D2214668
:10AFF0004846F2E00A21C4F302524FF0000B0891D8
:10B00000022A04D001CFC117032A09D00AE0FF1D8C
:10B0100027F00707F7E8020108E02CE01EE01FE038
:10B0200000B2C117042A01D140B2C117021E71F14A
:10B03000000206DA0023D0EB030063EB01012D22AE
:10B0400002E0220504D52B228DF82420012203E002
:10B05000E20701D02022F7E7904653E00A210BE0F7
:10B06000102109E010214FF0000B44F004044FF0D0
:10B070000809089103E008214FF0000B0891C4F380
:10B080000252022A04D001CF0021032A06D006E092
:10B09000FF1D27F00707F7E8020103E080B2042A4A
:10B0A00000D1C0B24FF0000822072BD52A78702AB1
:10B0B00007D0DDF820C08CF0100C5CEA0B0C05D03A
:10B0C0000EE040228DF82420012208E050EA01031E
:10B0D00006D030238DF824308DF8252002229046AA
:10B0E000089B83F0080353EA0B030BD150EA0102DB
:10B0F00001D1620706D530228DF824204FF00108D7
:10B10000A9F101092A78582A04D038A20B9208AA7A
:10B110000A920BE03AA2F9E75B46089AFDF746F877
:10B120000B9B9B5C0A9A521E0A92137050EA010212
:10B13000F2D10A98ADEB000000F1200B600702D5B8
:10B1400024F4803401E04FF00109D94502DDA9EB78
:10B150000B0000E0002000EB0B0141440890AAEB3B
:10B16000010AE00306D4DDE90F232146504600F032
:10B1700063F806444FF0000908E009A911F8090036
:10B18000DDE90F12904709F10109761CC145F4DB96
:10B19000E0030CD5DDE90F232146504600F04CF8C2
:10B1A000064404E0DDE90F1230209047761C089930
:10B1B000481E08900029F5DC08E00A980A990078F2
:10B1C000491C0A91DDE90F129047761CBBF1000182
:10B1D000ABF1010BF1DC21465046DDE90F2300F015
:10B1E00019F806446D1C21E609280100303132337C
:10B1F00034353637383961626364656600000000B3
:10B20000303132333435363738394142434445469C
:10B21000000000002DE9F041044600251E461746B7
:10B22000880404D405E039462020B0476D1C641E14
:10B23000F9D52846BDE8F0812DE9F0410446002506
:10B240001E469046C80301D5302700E02027880419
:10B2500004D505E041463846B0476D1C641EF9D55B
:10B260002846BDE8F081000013B50C464FF0FF33CF
:10B27000012269460248FEF707FF00981CBD000046
:10B28000C00000207CB506462220815D2120805D23
:10B2900041EA0024B4F5FA7F02D3B4F5004F04D993
:10B2A000214620A0FFF778FD7CBD214623A0FFF7B3
:10B2B00073FD0020FFF729FC18B128A0FFF76CFDF3
:10B2C000F2E74FF480550AE02846FFF71EFC20B154
:10B2D000294628A0FFF760FDE6E705F5805504F54F
:10B2E0008050A842F0D82A4804600020294908600C
:10B2F000294908802949088029490860FDF78EFE00
:10B300002849086028A103C9CDE90001082269463F
:10B310004FF48170FEF7C8FF01202549087000BF77
:10B32000C2E70000726563763A2062616420736947
:10B330007A6520256C750D0A000000007265637641
:10B340003A2073697A653D256C752C2065726173AE
:10B35000696E672E2E2E0D0A00000000726563765E
:10B360003A206572617365206D657461206661695C
:10B370006C0D0A00726563763A2065726173652010
:10B380006661696C204030782530386C580D0A00B1
:10B3900024000020280000202C0000202E00002087
:10B3A0003000002034000020524459FFFFFFFFFF0F
:10B3B0002000002070B594B040480088002806DDC9
:10B3C00000F0E2F818B900F00DF914B070BD0024D7
:10B3D00000251BE03A480068461B402E00D9402655
:10B3E00005F58050324604A9FFF7E6FB28B135A0E9
:10B3F000FFF7D2FC00F0F6F8E7E7002003E004A92D
:10B40000095C0C44401CB042F9D340352C4800681C
:10B410008542DFD332480068844208D03048214654
:10B42000026830A0FFF7B8FC00F0DCF8CDE70020A0
:10B430008DF808008DF8090010208DF80A00002012
:10B440008DF80B001E480068000E8DF80C001C489B
:10B450000068000C8DF80D0019480088000A8DF86E
:10B460000E00174800788DF80F00082202A900206E
:10B47000FFF769FB28B125A0FFF78EFC00F0B2F8BA
:10B48000A3E728A000680190032201A92020FDF76E
:10B4900066F828B124A0FFF77FFC00F0A3F894E73A
:10B4A000012028490870064802680D48016826A056
:10B4B000FFF772FC00F096F800BF86E72E00002030
:10B4C00024000020726563763A2076657269667999
:10B4D0002072656164206661696C0D0A00000000DD
:10B4E00030000020726563763A207665726966796D
:10B4F0002065727220666C6173683D2530386C5827
:10B500002072783D2530386C580D0A0072656376DC
:10B510003A206D657461207772697465206661698F
:10B520006C0D0A00015A6B00726563763A206565FE
:10B5300070726F6D20666C6167206661696C0D0AC0
:10B540000000000038000020726563763A207374B2
:10B550006F7265642073756D3D2530386C582073AB
:10B56000697A653D256C752C20666C616720736572
:10B57000742C20726573657420746F20757064611B
:10B580007465210D0A00000010B50D49096801F528
:10B5900080500C490A880C49FFF7D5FA20B10BA05E
:10B5A000FFF7FAFB002010BD05480068054909882F
:10B5B0000844034908600020024908800120F2E79E
:10B5C000280000202E00002008010020726563760C
:10B5D0003A20773235207772697465206661696C2C
:10B5E0000D0A000000200349087003490880034940
:10B5F00008607047200000202E000020240000205A
:10B6000000B58BB0282101A8FCF7C5FD00200790EC
:10B61000012008900020059001200990002006904C
:10B620004FF400500190002002904FF6E07003901C
:10B630000620049001A90848FDF787F8012006902C
:10B6400042F22000019001A90348FDF77EF802486C
:10B65000FDF7F8FA0BB000BD4000002008B52B48FC
:10B660002B49086062B6FDF7EBFCFFF71CF9FEF70B
:10B6700081FFFEF75DFFFFF711F8FEF7EDFFFFF723
:10B68000BFFF002000906846FFF7D7FA20B921A03D
:10B690000099FFF781FB02E026A0FFF77DFBFCF796
:10B6A000E3FDFEF763FE2DA0FFF776FBFDF7B6FC8A
:10B6B000044629E0FEF784FE0820FEF735FE88B137
:10B6C000FCF7C8FD70B9FCF70FFF18B126A0FFF713
:10B6D00063FB07E006222EA10120FEF7E5FD2EA068
:10B6E000FFF75AFBFCF7C4FDFDF798FC001BB0F513
:10B6F000FA7F06D3FDF792FC044602212B48FDF7A2
:10B700007DFC0A20FDF7CEFAD4E700000080000897
:10B7100008ED00E0573235513634206F6B2C204A4B
:10B72000454445432049443A203078253036580D69
:10B730000A00000057323551363420696E69742092
:10B740006661696C65642120636865636B20776955
:10B7500072696E672F43530D0A00000061707020FC
:10B7600073746172740A00006B65793A20616C72BF
:10B770006561647920757064617465642C207265FC
:10B7800073657420746F2072756E2069740D0A00E1
:10B7900075706461746500006B65793A207570643A
:10B7A0006174652073656E740D0A00000008014025
:10B7B00002030405060708090A0B0C0D0E0F1010F2
:10B7C000010200000000000000000102030406075F
:10B7D000080900000000010203040000FCB7000893
:10B7E0000000002040000000F0AD00083CB8000858
:10B7F00040000020C805000000AE00080000000066
:10B80000100000000100000000127A00000000009B
:10B810000000000000000000000000000000000028
:10B820000000000000000000000000000000000018
:0CB830000000000000000000000000000C
:04000005080080ED82
:00000001FF
