:020000040800F2
:10000000900A002005010008112A00087D27000839
:100010000D2A0008BD0700081D3000080000000080
:10002000000000000000000000000000D52B0008C8
:10003000C107000800000000152A0008D72B00089F
:100040001F0100081F0100081F0100081F01000810
:100050001F0100081F0100081F0100081F01000800
:100060001F0100081F0100081F0100081F010008F0
:100070001F0100081F0100081F0100081F010008E0
:100080001F0100081F0100081F0100081F010008D0
:100090001F0100081F0100081F0100081F010008C0
:1000A0001F0100081F0100081F0100081F010008B0
:1000B0001F0100081F0100081F0100081F010008A0
:1000C0001F0100081F0100081F0100081F01000890
:1000D0001F0100080D3000081F0100081F01000863
:1000E0001F0100081F0100081F010008DFF810D0E1
:1000F00000F08AF8004800474D380008AFF3008050
:10010000900A00200648804706480047FEE7FEE7C1
:10011000FEE7FEE7FEE7FEE7FEE7FEE7FEE7FEE7B7
:10012000452C0008ED000008202A04DB203A21FAC3
:1001300002F00021704721FA02F3D040C2F1200200
:100140009140084319467047D2B201E000F8012BF4
:10015000491EFBD270470022F6E710B513460A4647
:1001600004461946FFF7F0FF204610BD30B504469F
:100170000020034600E05B1C934203D2E05CCD5CB0
:10018000401BF8D030BD30B505460020034600E0E6
:100190005B1C934205D2EC5CC85C201A01D1002C98
:1001A000F6D130BD2DE9F05F0546002092469B4612
:1001B00088460646814640241BE02846414647467D
:1001C0002246FFF7B1FF53465A46C01A914110D359
:1001D00011461846224600F029F82D1A67EB01084F
:1001E0004F4622460120002100F020F817EB0009BD
:1001F0004E41201EA4F10104DFDC484631462A4668
:100200004346BDE8F09F0000064C074D06E0E0685D
:1002100040F0010394E8070098471034AC42F6D34D
:10022000FFF768FF703E0008903E0008202A04DBBC
:10023000203A00FA02F1002070479140C2F12003F9
:1002400020FA03F3194390407047000010B507A04F
:1002500003F056F800200A49087003F0C7FA00F0CE
:1002600075FA08A003F04CF810BD00004150505F33
:100270007570646174655F696E69740A00000000DE
:10028000180000204150505F7570646174655F779D
:100290006169740A000000002DE9F04FA5B0082242
:1002A00023A9002002F03DFF40B18DA003F028F803
:1002B00000209149087025B0BDE8F08F9DF88C00B2
:1002C00000069DF88D1040EA01409DF88E1040EA2E
:1002D00001209DF88F1040EA01079DF8900000066C
:1002E0009DF8911040EA01409DF8921040EA0120EB
:1002F0009DF8931040EA0104224639467FA002F09F
:10030000FFFFB7F5805F09D1B4F5FA7F06D3B4F5E6
:10031000004F03D83819B0F5803F06D980A002F00D
:10032000EFFF002074490870C5E787A103C9CDE934
:100330002101200A8DF88900E0B28DF88A00082298
:1003400021A9500102F042FA601D0621B0FBF1FB29
:100350005A4621467EA002F0D3FF00F0B3FF209062
:100360004FF0000936E000200090694601A802F035
:1003700007FA002021E000EBC00101AA52F8211089
:10038000B1F5817F17D100EBC00102EB8101097F3C
:10039000522910D100EBC00102EB8101497F4429B1
:1003A00009D100EBC00102EB8101897F592902D1FB
:1003B0004FF0010905E0411CC8B29DF800108842C9
:1003C000D9DB00BFB9F1000F00D00BE0052000F031
:1003D000CFFD00BF00F076FF2099401A41F288312E
:1003E0008842C0D300BFB9F1000F06D161A002F06E
:1003F00087FF0020404908705DE766A002F080FF9B
:100400004FF00008002500264FF4006A47E0601B0B
:10041000062801D9062000E0601B834678195A4659
:100420000DF17A0102F07DFE38B1294661A002F09B
:1004300067FF0020304908703DE7584604E0FF227E
:10044000811C1EAB5A54401C0628F8D3002004E03F
:10045000811C1EAA515C0E44401C5845F8D34FEA3B
:1004600028208DF8780008F0FF008DF87900082228
:100470001EA940F2011002F0A9F95D4408F1010043
:100480001FFA80F8554506D32246294650A002F0AF
:1004900037FF0AF5006A052000F06AFD00BFA5429B
:1004A000B5D34FA103C9CDE91C01300E8DF87400FE
:1004B000300C8DF87500300A8DF87600F0B28DF8AA
:1004C000770008221CA9500102F080F9324641460B
:1004D00045A002F015FF00200749087000BFEAE6BA
:1004E00073656E643A2072656164206D6574612085
:1004F0006661696C0D0A00001800002073656E6467
:10050000206D6574613A20616464723D30782530F5
:10051000386C582073697A653D256C750D0A0000AA
:1005200073656E643A206E6F2076616C6964206931
:100530006D6167652C2073746F72652066697273D4
:1005400074210D0A00000000424547494E0000FF9B
:1005500073656E6420626567696E3A20256C75204C
:1005600062797465732C202575206672616D6573E0
:100570000D0A000073656E643A206E6F207265612B
:1005800064792066726F6D20726563656976657245
:100590000D0A000073656E643A20676F74207265FF
:1005A0006164792C2073747265616D696E670D0AE0
:1005B0000000000073656E643A2077323520726562
:1005C0006164206661696C2040256C750D0A00002D
:1005D00073656E6420256C752F256C750D0A0000FF
:1005E000454E44FF0000000073656E6420646F6E2A
:1005F000653A202575206672616D65732C207375D0
:100600006D3D2530386C580D0A00000010B51C49AE
:100610001C4802F0B5F81A48007800282EDD18486A
:10062000017819A002F06CFE002423E004EBC40062
:10063000144901EB80000069062816D304EBC401BD
:10064000104A02EB810101F11C00062215A1FFF7FF
:100650008DFD30B915A002F053FE0120204908702D
:1006600006E020A002F04CFE02E025A002F048FEC9
:10067000601CC4B2024800788442D7DB10BD000081
:1006800019000020040500205265636569766564E1
:100690002025642043414E206D6573736167657347
:1006A0000D0A000075706461746500005265636531
:1006B000697665642075706461746520636F6D6D23
:1006C000616E642C2073776974636820746F207383
:1006D000656E64206170702073746174650D0A002A
:1006E00018000020526563656976656420756E6B3D
:1006F0006E6F776E20636F6D6D616E640D0A000022
:1007000044617461206C656E67746820746F6F203B
:1007100073686F72742C2069676E6F7265640D0A5E
:100720000000000010B500F031F80748007810B163
:10073000012806D102E0FFF769FF03E0FFF7ACFDF7
:1007400000E000BF00BF10BD1800002010B502F08F
:100750007DF803F065FB02A002F0D2FD10BD0000A1
:1007600073746F72653A2073656E6420737461727E
:10077000743A3C73697A653E5C725C6E20746F20DB
:100780006C6F61642062696E0D0A000010B588B05C
:100790000948007858B92021684602F06BF80446F1
:1007A000002C03DD2146684603F03CFA01E003F02B
:1007B0007BFA08B010BD00001C00002000BFFEE75F
:1007C000704772B600BFFEE7F0B504460D461E4600
:1007D00094F8207020688368A86800B900E000BF22
:1007E000012F01D0022F7DD103F0806030B903F0DA
:1007F000006018B903F0805000287ED0C3F3016177
:10080000012088403060A86860B9B5F800C0E86889
:1008100040EA4C5C206800F5C07000EB0110C0F8A5
:1008200000C00FE0D5E901C040EACC00D5F80CC00B
:1008300040EA0C00D4F800C00CF5C07C0CEB011CA5
:10084000CCF80000D5F810C0206800F5C07000EBAF
:100850000110C0F804C0287D01280ED1206800F5E1
:10086000C07000EB0110406840F4807C206800F507
:10087000C07000EB0110C0F804C0D079000692F8F7
:1008800006C040EA0C4092F805C040EA0C2092F8FD
:1008900004C040EA0C00D4F800C00CF5C07C0CEB9E
:1008A000011CCCF80C00D078000692F802C040EA97
:1008B0000C4092F801C040EA0C2092F800C040EAD7
:1008C0000C00D4F800C00CF5C07C0CEB011CCCF87B
:1008D0000800206800F5C07000EB0110006840F0CF
:1008E000010C01E00FE008E0206800F5C07000EBAB
:1008F0000110C0F800C00020F0BD606A40F4001094
:1009000060620120F8E7606A40F4802060620120A4
:10091000F2E7F0B504460A46216894F82050012D0C
:1009200001D0022D74D1D1F8000240F00100C1F8CD
:100930000002107D00F01F06012000FA06F3D1F836
:100940001C029843C1F81C02D069C8B9D1F80C0246
:100950009843C1F80C02908880B2968940EA064616
:1009600001F51070576940F83760108880B2168919
:1009700040EA064601F51070576900EBC700466073
:10098000D069012819D1D1F80C021843C1F80C0222
:10099000908880B2168840EA064601F510705769C3
:1009A00040F83760908980B2168940EA064601F522
:1009B0001070576900EBC7004660906928B9D1F8FC
:1009C00004029843C1F8040204E0D1F80402184379
:1009D000C1F80402106928B9D1F814029843C1F88B
:1009E000140204E0D1F814021843C1F81402106A8A
:1009F000012804D1D1F81C021843C1F81C02D1F817
:100A0000000220F00100C1F800020020F0BDFFE765
:100A1000606A40F4802060620120F7E710B502466A
:100A2000002092F82030012B01D0022B09D121B9EE
:100A30001468E46804F0030003E01468246904F017
:100A4000030010BD70B5044694F82050012D01D06C
:100A5000022D7DD151B92068C06800F0030080B933
:100A6000606A40F400106062012070BD2068006977
:100A700000F0030028B9606A40F4001060620120B1
:100A8000F3E7206800F5D87000EB0110006800F073
:100A900004009060906840B9206800F5D87000EBC1
:100AA00001100068400D106007E0206800F5D87064
:100AB00000EB01100068C0085060206800F5D87095
:100AC00000EB0110006800F00200D060206800F523
:100AD000D87000EB0110406800F00F00082802D326
:100AE0000820106108E0206800F5D87000EB0110C4
:100AF000406800F00F001061206800F5D87000EB2E
:100B00000110406800F47F40000A9061206800F501
:100B1000D87000EB01104068000C5061206800F5AF
:100B2000D87000EB011080681870206800F5D8704C
:100B300000EB0110806800F47F40000A58702068C4
:100B400000F5D87000EB0110806800F47F0000E031
:100B50003CE0000C9870206800F5D87000EB0110A4
:100B60008068000ED870206800F5D87000EB011086
:100B7000C0681871206800F5D87000EB0110C068DB
:100B800000F47F40000A5871206800F5D87000EB2F
:100B90000110C06800F47F00000C9871206800F517
:100BA000D87000EB0110C068000ED87131B9206810
:100BB000C06840F020002668F06005E02068006909
:100BC00040F020002668306100204EE7606A40F463
:100BD00080206062012048E70146002091F8202033
:100BE000012A01D0022A11D10B689B6803F08063AF
:100BF00003B1401C0B689B6803F0006303B1401C09
:100C00000B689B6803F0805303B1401C704770B5BC
:100C100004460CB9012070BD94F8200010B920469C
:100C200000F0B0F82068006840F00100216808601A
:100C300000F048FB05460DE000F044FB401B0A288D
:100C400008D9606A40F400306062052084F8200012
:100C50000120E0E72068406800F001000028EBD0A8
:100C60002068006820F002002168086000F02AFB7C
:100C700005460DE000F026FB401B0A2808D9606AF3
:100C800040F400306062052084F820000120C2E7B3
:100C90002068406800F002000028EBD1207E012887
:100CA00006D12068006840F080002168086005E0F7
:100CB0002068006820F0800021680860607E0128BC
:100CC00006D12068006840F040002168086005E017
:100CD0002068006820F0400021680860A07E01289C
:100CE00006D12068006840F020002168086005E017
:100CF0002068006820F0200021680860E07E01285C
:100D000006D12068006820F010002168086005E026
:100D10002068006840F0100021680860207F0128EA
:100D200006D12068006840F008002168086005E0EE
:100D30002068006820F0080021680860607F0128B2
:100D400006D12068006840F004002168086005E0D2
:100D50002068006820F0040021680860D4E90201DE
:100D6000084321690843616908436168491E0843D3
:100D70002168C86100206062012084F82000002002
:100D800049E7000010B586B00446002002900390A9
:100D9000049005901A49206888422ED100BF194856
:100DA000C06940F000701749C8610846C06900F08A
:100DB0000070019000BF00BF00BF0846806940F08E
:100DC000040088610846806900F00400019000BFBB
:100DD00000BFC814029000200390049002A90A48A2
:100DE00000F0DAF84FF480500290022003900320C4
:100DF000059002A9044800F0CFF806B010BD00002D
:100E000000640040001002400008014070B5044634
:100E100094F82000012822D1022084F820002068C4
:100E2000006820F001002168086000F04BFA0546D8
:100E30000DE000F047FA401B0A2808D9606A40F428
:100E400000306062052084F82000012070BD206819
:100E5000406800F001000028EBD16062F6E7606AAC
:100E600040F4002060620120F0E70146002291F882
:100E70002100022808D00420886300BF002081F8E8
:100E8000200000BF012070470868006820F00E00B5
:100E90000B6818600868006820F001000B68186093
:100EA00091F8403001209840CB6B5860012081F8C8
:100EB000210000BF002081F8200000BF1046E2E7BB
:100EC00070B50446002594F82100022803D00420C0
:100ED000A063012548E02068006820F00E0021682A
:100EE00008602068006820F00100216808601F4940
:100EF0002068884201D1012026E01C491431206875
:100F0000884201D110201FE018492831206888420A
:100F100001D1801518E015493C312068884201D183
:100F2000801411E0114950312068884202D14FF4F9
:100F3000803009E00D4964312068884202D14FF4C5
:100F4000801001E04FF080700849083948600120A6
:100F500084F8210000BF002084F8200000BF606BEF
:100F600010B12046616B8847284670BD08000240DA
:100F700070B5044600F0A6F906462546681C10B177
:100F800004480078054400BF00F09CF9801BA8428B
:100F9000FAD370BD100000202DE9F8470346002267
:100FA00094466EE14FF0010808FA02F4D1F800808F
:100FB00008EA0400A0427DD1DFF8DCA2D1F8048069
:100FC000A8EB0A09D0453AD014DCB8F1030F50D091
:100FD00009DCB8F1000F31D0B8F1010F1CD0B8F125
:100FE000020F49D120E0B8F1110F18D0B8F1120F5B
:100FF00042D11EE0B9F5881F25D006DCB9F5803F47
:1010000020D0B9F5801F37D11AE0B9F5001F18D0EC
:10101000B9F5041F30D117E0D1F80CC02DE0D1F89C
:101020000C8008F1040C28E0D1F80C8008F1080CC1
:1010300023E0D1F80C8008F10C0C1EE000BF00BFCB
:1010400000BF00BF00BF00BFD1F80880B8F1000F9B
:1010500002D14FF0040C0BE0D1F80880B8F1010F79
:1010600003D14FF0080C1C6102E04FF0080C5C61EA
:1010700003E04FF0000C00E000BF00BFFF2801D8E4
:10108000984601E003F104084646FF2802D84FEADB
:10109000820803E0A2F108084FEA88084746D6F81C
:1010A00000804FF00F0909FA07F928EA09080CFA3D
:1010B00007F900E088E048EA0908C6F80080D1F89E
:1010C000048008F08058B8F1805F7DD100BFDFF860
:1010D000CC81D8F8188048F00108DFF8C091C9F831
:1010E0001880C846D8F8188008F00108CDF80080AC
:1010F00000BF00BF4FEAB9384FEA920958F82950AB
:101100004FEA82784FEA18794FF00F0808FA09F889
:1011100025EA0805DFF88881434502D14FF0000831
:1011200016E0DFF88081434502D14FF001080FE05F
:10113000DFF87481434502D14FF0020808E0DFF880
:101140006C81434502D14FF0030801E04FF00408E1
:101150004FEA82794FEA197908FA09F848EA050551
:10116000DFF84C814FEA920948F82950D1F8048001
:1011700008F48018B8F5801F0AD1DFF83881D8F854
:10118000008048EA0008DFF82C91C9F8008009E0E7
:10119000DFF82081D8F8008028EA0008DFF81491F1
:1011A000C9F80080D1F8048008F40018B8F5001FD1
:1011B00010D1DFF8008108F10408D8F8008048EA6F
:1011C0000008DFF8F09000E05AE009F10409C9F8DE
:1011D00000800DE0DFF8DC8008F10408D8F800801A
:1011E00028EA0008DFF8CC9009F10409C9F800806A
:1011F000D1F8048008F40038B8F5003F0ED1DFF8CC
:10120000B480A8F10408D8F8008048EA0008DFF8A4
:10121000A490A9F10409C9F800800DE0DFF89480DA
:10122000A8F10408D8F8008028EA0008DFF88490C4
:10123000A9F10409C9F80080D1F8048008F48038C5
:10124000B8F5803F0ED1DFF86C80A8F10808D8F817
:10125000008048EA0008DFF85C90A9F10809C9F8A5
:1012600000800DE0DFF84C80A8F10808D8F8008075
:1012700028EA0008DFF83C90A9F10809C9F80080C5
:10128000521CD1F8008028FA02F8B8F1000F7FF460
:1012900089AEBDE8F8870000000011100010024080
:1012A00000080140000C0140001001400014014002
:1012B00008000140080401400AB1016101E00B048B
:1012C0000361704701480068704700000800002073
:1012D00003480068034909780844014908607047D9
:1012E000080000201000002010B50848006840F0F9
:1012F000100006490860032000F0A8F80F2000F055
:1013000007F800F02BF8002010BD0000002002407C
:1013100070B504460E4800784FF47A71B1FBF0F0D6
:101320000C490968B1FBF0F5284600F05FFF08B1F1
:10133000012070BD102C07D200222146501E00F063
:1013400047F80548046001E00120F2E70020F0E7DB
:1013500010000020140000200C00002008B500BF81
:101360001148806940F001000F4988610846806992
:1013700000F00100009000BF00BF00BF0846C06938
:1013800040F08050C8610846C06900F0805000906D
:1013900000BF00BF00BF0549486820F0E06040F092
:1013A0000070486000BF08BD00100240000001400E
:1013B00001460846002809DB00F01F0301229A407D
:1013C00043099B0003F1E023C3F8002100BF7047ED
:1013D0002DE9F05F80460D461646002701F0A0FF7C
:1013E000074639462A46334601F00700C0F1070A8E
:1013F000BAF1040F02D94FF0040A01E0C0F1070A64
:10140000D14600F1040ABAF1070F02D24FF0000AE8
:1014100001E0A0F1030AD4464FF0010A0AFA09FAE2
:10142000AAF1010A0AEA020A0AFA0CFA4FF0010BC1
:101430000BFA0CFBABF1010B0BEA030B4AEA0B04B2
:101440002146404601F074FFBDE8F09F00BF00F068
:101450000702064B19684FF6FF031940044B0B4374
:1014600043EA0221014B196000BF70470CED00E018
:101470000000FA0570B504460D460CB9012070BD98
:101480005A48006800F00700A8420ED2574800688A
:1014900020F007002843554908600846006800F01E
:1014A0000700A84201D00120E9E7207800F00200FF
:1014B00002281DD1207800F00400042805D14C48F2
:1014C000406840F4E0604A494860207800F0080035
:1014D000082805D14648406840F4605044494860B7
:1014E0004348406820F0F000A16808434049486044
:1014F000207800F0010078B36068012806D13C48EC
:10150000006800F4003090B90120B8E76068022854
:1015100006D13748006800F0007040B90120AEE7FE
:101520003348006800F0020008B90120A7E73048FE
:10153000406820F00300616808432D494860FFF7C8
:10154000C1FE064609E0FFF7BDFE801B41F288316F
:10155000884202D9032092E707E02548406800F05E
:101560000C006168B0EB810FEDD12048006800F0FD
:101570000700A8420ED91D48006820F00700284344
:101580001A4908600846006800F00700A84201D028
:10159000012074E7207800F00400042807D11448E3
:1015A000406820F4E060E168084311494860207811
:1015B00000F00800082808D10D48406820F4605069
:1015C000216940EAC1000A49486000F03FF8084933
:1015D0004968C1F30311074A515CC84006490860D5
:1015E00006480068FFF794FE002048E7002002400C
:1015F00000100240563E0008140000200C0000209D
:1016000001480068704700001400002000B5FFF793
:10161000F7FF04494968C1F30221034A515CC840FD
:1016200000BD000000100240663E000800B5FFF754
:10163000E7FF04494968C1F3C221034A515CC8402D
:1016400000BD000000100240663E000870B5002199
:101650000022002400230020134D696801F00C05CE
:10166000F5B1042D02D0082D19D101E00F4819E081
:101670000F4DC1F38346AB5D01F4803555B10A4D82
:101680006D68C5F340450B4E725D084D5D43B5FB7B
:10169000F2F402E0084D03FB05F4204602E000BF2F
:1016A000024800BF00BF70BD0010024000127A0067
:1016B000443E0008543E000800093D00F8B50446C9
:1016C0000CB90120F8BD207800F00100002878D086
:1016D000F848406800F00C0004280CD0F548406839
:1016E00000F00C00082811D1F248406800F4803066
:1016F000B0F5803F0AD1EF48006800F400300028C0
:101700005FD0606800285CD10120DBE700BF606823
:10171000B0F5803F06D1E748006840F48030E549E5
:10172000086028E0606858B9E248006820F480301A
:10173000E04908600846006820F4802008601AE04C
:101740006068B0F5A02F0BD1DA48006840F4802023
:10175000D84908600846006840F4803008600AE014
:10176000D448006820F48030D249086008460068F8
:1017700020F48020086000BF606888B1FFF7A2FDF8
:10178000054606E0FFF79EFD401B642801D90320B3
:1017900098E7C848006800F400300028F2D010E054
:1017A000FFF790FD054606E0FFF78CFD401B64281F
:1017B00001D9032086E7BF48006800F40030002804
:1017C000F2D1207800F00200022857D1B9484068D1
:1017D00000F00C0050B1B748406800F00C00082839
:1017E00018D1B448406800F4803098B9B148006816
:1017F00000F0020020B12069012801D0012061E73A
:10180000AC48006820F0F800616940EAC100A949CD
:10181000086033E02069E8B10120A7490860FFF7BC
:1018200051FD054606E0FFF74DFD401B022801D99A
:10183000032047E79F48006800F002000028F2D02C
:101840009C48006820F0F800616940EAC1009949AD
:10185000086013E0002098490860FFF733FD054653
:1018600006E0FFF72FFD401B022801D9032029E7DE
:101870009048006800F002000028F2D1207800F0C3
:10188000080008282DD1A069B8B101208B49086053
:10189000FFF718FD054606E0FFF714FD401B022880
:1018A00001D903200EE78348406A00F002000028B7
:1018B000F2D0012001F0B0F813E000207F49086069
:1018C000FFF700FD054606E0FFF7FCFC401B022881
:1018D00001D90320F6E67748406A00F002000028AC
:1018E000F2D1207800F00400042873D10027714859
:1018F000C06900F0805070B900BF6E48C06940F008
:1019000080506C49C8610846C06900F08050009062
:1019100000BF00BF01276A48006800F48070B0B9BA
:101920006748006840F4807065490860FFF7CAFCAA
:10193000054606E0FFF7C6FC401B642801D90320DA
:10194000C0E65F48006800F480700028F2D000BF55
:10195000E068012806D15748006A40F00100554967
:10196000086227E0E06858B95248006A20F0010098
:10197000504908620846006A20F00400086219E035
:10198000E06805280BD14B48006A40F00400494943
:1019900008620846006A40F0010008620AE0454813
:1019A000006A20F00100434908620846006A20F0FE
:1019B0000400086200BFE068A0B1FFF783FC0546A1
:1019C00009E0FFF77FFC401B41F28831884202D9D1
:1019D000032077E622E03748006A00F00200002882
:1019E000EFD012E0FFF76EFC054608E0FFF76AFC57
:1019F000401B41F28831884201D9032062E62D481C
:101A0000006A00F002000028F0D1012F05D129481A
:101A1000C06920F080502749C86100BFE069C8B3A1
:101A20002448406800F00C00082860D0E0690228D3
:101A300048D1002020490866FFF744FC054606E02F
:101A4000FFF740FC401B022801D903203AE6194861
:101A5000006800F000700028F2D1206AB0F5803FE5
:101A600007D11448406820F40030A16808431149A8
:101A70004860D4E9080108430E49496821F474110B
:101A800008430C49486001200B490866FFF71AFC1F
:101A9000054607E03DE0FFF715FC401B022801D991
:101AA00003200FE60348006800F000700028F2D021
:101AB0002FE0000000100240000042428004424239
:101AC00000700040002014490866FFF7FBFB054644
:101AD00006E0FFF7F7FB401B022801D90320F1E5E0
:101AE0000E48006800F000700028F2D111E0E069B3
:101AF000012800D1E6E50948466806F48031206AED
:101B0000814204D106F47011606A814201D0012043
:101B1000D8E50020D6E50000000042420010024057
:101B200010B504460CB9012010BD606A38B9606870
:101B3000B0F5827F00D105E00021E16102E00021E3
:101B4000216161610021A16294F8510028B900204F
:101B500084F85000204600F043F8022084F8510039
:101B60002068006820F0400021680860A08800F428
:101B70008270218901F404410843A18901F40061C4
:101B80000843217C01F002010843217D01F001019D
:101B90000843218B01F400710843217F01F03801D3
:101BA00008432021095D01F080010843218D01F4E3
:101BB00000510843216808600421A06901EA10402F
:101BC000216848602068C06920F400602168C8610D
:101BD00000206065012084F851000020A4E7000087
:101BE00010B586B004460020029003900490059042
:101BF0001949206888422DD100BF1848806940F4F7
:101C00008050164988610846806900F48050019030
:101C100000BF00BF00BF0846806940F00400886133
:101C20000846806900F00400019000BF00BFA020BA
:101C30000290022003900320059002A90848FFF7B4
:101C4000ABF94020029000200390049002A90448C0
:101C5000FFF7A2F906B010BD0030014000100240AD
:101C6000000801402DE9F8430446884616461D4603
:101C700094F85100012802D00220BDE8F883606882
:101C8000B0F5827F0CD1A06850B9042084F85100CF
:101C90003346424641462046009500F083F9ECE782
:101CA000FFF710FB0746B8F1000F00D00EB9012076
:101CB000E3E700BF94F85000012801D10220DCE7DF
:101CC000012084F8500000BF042084F85100002057
:101CD0006065C4F83880A687E6872063A086E08622
:101CE00020646064A068B0F5004F0BD120680068E4
:101CF00020F04000216808602068006820F48040DF
:101D0000216808602068006800F04000402805D085
:101D10002068006840F0400021680860E06830BB3F
:101D200021E02068806800F0010050B12068007B4D
:101D3000A16B0870A06B401CA063E08F401EE08781
:101D400011E0FFF7BFFAC01BA84201D3681C00B91D
:101D50004DB9012084F8510000BF002084F85000E4
:101D600000BF032089E7E08F0028DAD125E021E0D9
:101D70002068806800F0010050B12068C068A16B45
:101D80000880A06B801CA063E08F401EE08711E0FC
:101D9000FFF798FAC01BA84201D3681C00B94DB9DF
:101DA000012084F8510000BF002084F8500000BFDB
:101DB000032062E7E08F0028DAD13A462946204620
:101DC00000F03EFE08B120206065012084F851003B
:101DD00000BF002084F8500000BF606D08B10120F2
:101DE0004BE7002049E72DE9F84304460F46164625
:101DF0001D46FFF767FA8046B14694F85100012866
:101E000002D00220BDE8F88307B10EB90120F9E73E
:101E100000BF94F85000012801D10220F2E7012010
:101E200084F8500000BF032084F851000020606552
:101E30002763A686E686A063A087E08760642064A7
:101E4000A068B0F5004F0BD12068006820F040007A
:101E5000216808602068006840F4804021680860BC
:101E60002068006800F04000402805D02068006825
:101E700040F0400021680860E068B0F5006F37D19D
:101E8000606810B1B9F1010F09D1206B0088216899
:101E9000C860206B801C2063E08E401EE08623E03B
:101EA0002068806800F0020002280AD1206B0088B8
:101EB0002168C860206B801C2063E08E401EE08695
:101EC00012E0FFF7FFF9A0EB0800A84201D3681C5D
:101ED00000B94DB9012084F8510000BF002084F8FA
:101EE000500000BF03208DE7E08E0028D8D136E0F7
:101EF000606810B1B9F1010F09D1206B0078216839
:101F00000873206B401C2063E08E401EE08623E0B7
:101F10002068806800F0020002280AD1206B007857
:101F200021680873206B401C2063E08E401EE08611
:101F300012E0FFF7C7F9A0EB0800A84201D3681C24
:101F400000B94DB9012084F8510000BF002084F889
:101F5000500000BF032055E7E08E0028D8D142464C
:101F60002946204600F0A8FD08B120206065A06841
:101F700050B900BF002000902068C0680090206821
:101F80008068009000BF00BF012084F8510000BFAE
:101F9000002084F8500000BF606D08B1012031E7D7
:101FA00000202FE72DE9FE4F04460F4690461D46C0
:101FB0000C9E01200190FFF785F9814694F851B0FD
:101FC00060680290AA46BBF1010F0BD00298B0F5F1
:101FD000827F04D1A06810B9BBF1040F02D00220A7
:101FE000BDE8FE8F1FB1B8F1000F00D00DB9012080
:101FF000F6E700BF94F85000012801D10220EFE776
:10200000012084F8500000BF94F85100042802D049
:10201000052084F8510000206065C4F83880E58709
:10202000A5872763E586A58620646064206800682C
:1020300000F04000402805D02068006840F04000D3
:1020400021680860E068B0F5006F52D1606810B197
:10205000BAF1010F09D1206B00882168C860206B9C
:10206000801C2063E08E401EE0863BE02068806894
:1020700000F00200022810D1E08E70B10198012812
:102080000BD1206B00882168C860206B801C206306
:10209000E08E401EE086002001902068806800F0FD
:1020A000010068B1E08F58B12068C068A16B08805A
:1020B000A06B801CA063E08F401EE0870120019090
:1020C000FFF700F9A0EB0900B0420BD3701C48B138
:1020D000012084F8510000BF002084F8500000BFA8
:1020E00003207DE7E08E0028C0D1E08F0028BDD11D
:1020F00052E0606810B1BAF1010F09D1206B00788D
:1021000021680873206B401C2063E08E401EE0862F
:102110003CE02068806800F00200022810D1E08EC8
:1021200070B1019801280BD1206B007821680873E9
:10213000206B401C2063E08E401EE0860020019052
:102140002068806800F0010068B1E08F58B1206815
:10215000C068A16B0870A06B401CA063E08F401E9C
:10216000E08701200190FFF7ADF8A0EB0900B04235
:1021700001D3701C00B94EB9012084F8510000BF92
:10218000002084F8500000BF032029E7E08E0028DB
:10219000BFD1E08F0028BCD14A463146204600F02E
:1021A0008BFC40B12020606500BF002084F8500007
:1021B00000BF012014E7A06850B900BF00200090C4
:1021C0002068C068009020688068009000BF00BF51
:1021D000012084F8510000BF002084F8500000BFA7
:1021E000606D08B10120FBE60020F9E670B50446F9
:1021F0002546681EB0F1807F01D301200FE0681EE4
:102200004FF0E02148610F214FF0FF3001F090F8CE
:1022100000204FF0E021886107200861002070BD98
:102220007047000010B5044604492068884204D174
:1022300001220349034800F001FA10BD00380140B3
:1022400004000020BC0000202DE9F84F044620685F
:1022500005682068C668206847694FF00009CA46CB
:1022600005F00F09B9F1000F0AD105F0200038B1CF
:1022700006F0200020B1204600F035FDBDE8F88FC3
:10228000B9F1000F7BD007F0010018B906F4907087
:10229000002874D005F0010030B106F4807018B148
:1022A000606C40F00100606405F0040030B107F09C
:1022B000010018B1606C40F00200606405F002009B
:1022C00030B107F0010018B1606C40F004006064A8
:1022D00005F0080048B106F0200010B907F0010031
:1022E00018B1606C40F008006064606C002845D054
:1022F00005F0200028B106F0200010B1204600F0C3
:10230000F2FC20684069C0F3801A606C00F008009D
:1023100010B9BAF1000F2CD0204600F09EFC2068C6
:10232000406900F0400000B300BF00BF21681431D5
:1023300051E8001F21F040002168143141E80002FB
:10234000002AF3D100BFE06B50B17748E16B4863DE
:10235000E06BFEF7B5FD88B1E06B416B88470DE09F
:102360002046FFF75FFF09E009E02046FFF75AFF2C
:1023700004E02046FFF756FF002060647EE7206BF4
:10238000012877D105F01000002873D006F0100066
:102390000028FAD000BF002000902068006800905C
:1023A00020684068009000BF00BF2068406900F0CE
:1023B000400000285FD0E06B006840681FFA80F89A
:1023C000B8F1000F55D0A08D404552DDA4F82E8005
:1023D000E06B8069202843D000BF00BF21680C312A
:1023E00051E8001F21F4807021680C3141E800029F
:1023F000002AF3D100BF00BF00BF2168143151E8AB
:10240000001F21F001002168143141E80002002A78
:10241000F3D100BF00BF00BF2168143151E8001F95
:1024200021F040002168143141E80002002AF3D174
:1024300000BF202084F842000020206300BF00BFBE
:1024400021680C3151E8001F21F0100021680C3187
:1024500041E80002002AF3D100BFE06BFEF705FD62
:1024600002206063A08DE28D801A81B22046FFF7C2
:10247000D7FE03E742E0A08DE18D401A1FFA80F8F5
:10248000E08DD0B3B8F1000F37D000BF00BF216896
:102490000C3151E8001F21F4907021680C3141E8A3
:1024A0000002002AF3D100BF00BF00BF2168143131
:1024B00051E8001F21F001002168143141E80002B9
:1024C000002AF3D100BF202084F8420000202063BE
:1024D00000BF00BF21680C3151E8001F21F010003F
:1024E00021680C3141E80002002AF3D100BF02202C
:1024F000606341462046FFF793FEBFE605F080008B
:1025000030B106F0800018B1204600F009FDB5E6B4
:1025100005F0400030B106F0400018B1204600F050
:10252000D2FBABE600BFA9E6472C000810B5044675
:102530000CB9012010BDA06900B100E000BF94F803
:10254000410028B9002084F84000204600F02AF815
:10255000242084F841002068C06820F400502168DD
:10256000C860204600F03EFC2068006920F49040DE
:10257000216808612068406920F02A0021684861CC
:102580002068C06840F400502168C8600020606482
:10259000202084F8410084F842000020606300BFDE
:1025A000C8E7000010B586B00446002002900390F2
:1025B000049005901E492068884236D100BF1D480E
:1025C000806940F480401B4988610846806900F4B6
:1025D0008040019000BF00BF00BF0846806940F006
:1025E000040088610846806900F00400019000BF83
:1025F00000BF48150290022003900320059002A915
:102600000D48FEF7C9FC4FF4806002900020039053
:10261000049002A90848FEF7BFFC002205212520EE
:10262000FEF7D6FE2520FEF7C3FE06B010BD000063
:1026300000380140001002400008014070B5044617
:102640000D46164694F8420020280BD105B10EB96C
:10265000012070BD0020206332462946204600F04C
:102660003FFCF6E70220F4E770B504460D49206808
:10267000884216D10C480088401CC0F309050B485D
:102680000088854207D00A4800780A49064A12881D
:10269000885405480580012205490748FFF7CEFF09
:1026A00000BF70BD00380140000000200200002083
:1026B0000400002004010020BC0000202DE9F84F98
:1026C00004460E46174699464FF0000A94F841001A
:1026D000202850D106B117B90120BDE8F88F00209D
:1026E0006064212084F84100FEF7ECFD8246A78457
:1026F000E784A068B0F5805F04D1206910B9002597
:10270000B04602E035464FF000081EE05346002276
:1027100080212046CDF8009000F032FC20B120202E
:1027200084F841000320D8E745B9B8F80000C0F3A9
:1027300008002168486008F1020803E02878216851
:1027400048606D1CE08C401EE084E08C0028DDD1E8
:102750005346002240212046CDF8009000F010FCA6
:1027600020B1202084F841000320B6E7202084F81F
:1027700041000020B1E70220AFE7704700BFFEE74D
:102780002DE9F04105460E4600210F48FEF746F9B7
:102790003070002413E004EBC40005EB800704EB69
:1027A000C40105EB81002421FDF7D5FC07F11C03D2
:1027B0003A4600210448FEF745F9601CC4B230785F
:1027C000A042E8DCBDE8F0813C000020F0B587B015
:1027D00005460E46174600BF0D48FEF7FDF90028D6
:1027E000FAD0182101A8FDF7B6FC00200390049050
:1027F0000597019500906B46324601A90448FDF704
:10280000E3FF044614B103A000F07AFD07B0F0BD69
:102810003C0000204572726F723A204661696C6517
:102820006420746F20616464206D657373616765F3
:10283000206D65737361676520746F2043414E207E
:102840006D61696C626F780A0000000010B50020AD
:102850000449088004490880012204490448FFF71C
:10286000EDFE10BD0000002002000020040000204A
:10287000BC00002070B50246002016E00D4C2388F5
:102880000D4C24889C4200D111E00C4C0A4D2D883F
:10289000665D0446451CA8B21655074C2488641C86
:1028A000C4F30904044D2C8000BF8842E6DB00BF5E
:1028B00070BD000000000020020000200401002084
:1028C00010B50E480E4908602420486000210C48CD
:1028D0008160C1604FF480310161090141610021D3
:1028E00001760121417681760021C1760177417719
:1028F000FEF78DF908B1FDF764FF10BD00640040DC
:102900003C00002000B585B00020019002900390AB
:10291000049000BF1C48806940F010001A4988618B
:102920000846806900F01000009000BF00BF00BFA3
:102930000846806940F0200088610846806900F000
:102940002000009000BF00BF00BF0846806940F033
:10295000040088610846806900F00400009000BF10
:1029600000BF012217210948FEF7A6FC172001909D
:1029700001200290002003900220049001A9034846
:10298000FEF70AFB05B000BD001002400008014040
:1029900010B50E480E4908604FF48270486000215F
:1029A0000B488160C160016141614FF40071816138
:1029B0001021C16100210162416281620A21C1626C
:1029C000FFF7AEF808B1FDF7FCFE10BD0030014086
:1029D0006400002010B50B480B4908604FF41650F6
:1029E0004860002108488160C16001610C2141619B
:1029F00000218161C161FFF799FD08B1FDF7E1FE9A
:102A000010BD000000380140BC00002000BFFEE700
:102A100000BFFEE77047000008B508490968C9080B
:102A20004FF47A72B1FBF2F14143009100BF00BF55
:102A300000994A1E00920029F9D108BD1400002017
:102A4000F8B504460E4615466068B0F5827F0DD194
:102A5000A068B0F5004F03D0A068B0F5806F05D135
:102A60002068006820F04000216808606068B0F5C8
:102A7000827F11D1A068B0F5806F0DD1334600225E
:102A800001212046009500F039F898B1606D40F0C2
:102A9000200060650320F8BD3346002280212046D7
:102AA000009500F02BF828B1606D40F020006065C3
:102AB0000320F0E70020EEE7F8B504460E46154681
:102AC0003346012202212046009500F017F828B174
:102AD000606D40F0200060650320F8BD33460022A1
:102AE00080212046009500F009F828B1606D40F083
:102AF000200060650320F0E70020EEE72DE9F84FA5
:102B000004460D4690461E46DDF82890FEF7DAFB97
:102B1000A0EB0900371AFEF7D5FB82462C48006867
:102B2000C0F3CB307843009045E0701C002842D0C1
:102B3000FEF7C8FBA0EB0A00B84200D2A7BB206892
:102B4000406820F0E000216848606068B0F5827F4E
:102B50000DD1A068B0F5004F03D0A068B0F5806F2C
:102B600005D12068006820F0400021680860A06A54
:102B7000B0F5005F0DD100BF2068006820F4005060
:102B8000216808602068006840F4005021680860EF
:102B900000BF012084F8510000BF002084F85000DD
:102BA00000BF0320BDE8F88FFFE7009800B90027B9
:102BB0000098401E0090206880682840A84201D1FB
:102BC000012000E000204045AFD10020EAE70000EE
:102BD00014000020704710B5FEF77AFB10BD00B559
:102BE0008FB0282105A8FDF7B6FA14216846FDF735
:102BF000B2FA012005900004069000200790012001
:102C0000099002200C90C1030D914FF4E0110E9138
:102C100005A8FEF753FD08B1FDF7D3FD0F20009086
:102C200002200190002002904FF480600390002069
:102C3000049002216846FEF71DFC08B1FDF7C1FDB6
:102C40000FB000BD704770B505466C6A0020E08586
:102C5000E0842046FFF7E6FA70BD00BF00BF0268BF
:102C60000C3252E8002F22F4907102680C3242E8D4
:102C70000013002BF3D100BF00BF00BF0268143265
:102C800052E8002F22F001010268143242E80013DA
:102C9000002BF3D100BF016B01290ED100BF00BF93
:102CA00002680C3252E8002F22F0100102680C3248
:102CB00042E80013002BF3D100BF202180F842101E
:102CC00000210163704710B504462068C06820F0F9
:102CD00040002168C860202084F841002046FFF7AA
:102CE0004CFD002010BDF8B5044694F8420022289F
:102CF00075D1A068B0F5805F0CD1206950B900256E
:102D0000A66A20684068C0F308003080A06A801C72
:102D1000A06215E0A56A0026A068B0F5805F03D028
:102D2000A06828B9206918B920684068287004E0B4
:102D30002068406800F07F002870A06A401CA062F4
:102D4000E08D401E80B2E085002846D12068C06832
:102D500020F020002168C8602068C06820F48070DE
:102D60002168C8602068406920F00100216848613E
:102D7000202084F8420000206063206B012826D1C7
:102D80000020206300BF00BF21680C3151E8001F04
:102D900021F0100021680C3141E80002002AF3D133
:102DA00000BF2068006800F0100010280AD100BFA2
:102DB0000020009020680068009020684068009023
:102DC00000BF00BFA18D2046FFF72AFA02E020468F
:102DD000FFF74AFC0020F8BD01E00020FBE70220DD
:102DE000F9E7000070B504462168096921F44051F3
:102DF000E2681143226811612269A1681143626986
:102E000041EA02052168C96841F20C6291432943F5
:102E10002268D1602168496921F44071A269114397
:102E2000226851612D4A2168914202D1FEF7FEFBD2
:102E300001E0FEF7EBFB00EBC00101EB0011626863
:102E40009200B1FBF2F100EBC00202EB00126368EA
:102E50009B00B2FBF3F26423B2FBF3F202EBC2037A
:102E600003EB0212A1EB8201322202EB0111642278
:102E7000B1FBF2F101F0F00100EBC00202EB001235
:102E800063689B00B2FBF3F26423B2FBF3F201EB45
:102E9000021200EBC00101EB001163689B00B1FB63
:102EA000F3F100EBC00303EB00136668B600B3FB5D
:102EB000F6F36426B3FBF6F303EBC30606EB03134A
:102EC000A1EB8301322303EB01116423B1FBF3F186
:102ED00001F00F0111442268916070BD003801407B
:102EE00010B5034699629A85DA850020586422203D
:102EF00083F84200186928B11868C06840F48070EF
:102F00001C68E0601868406940F001001C6860615E
:102F10001868C06840F020001C68E060002010BD08
:102F2000014691F84100212828D18868B0F5805FDA
:102F30000BD1086948B90A6A1088C0F308000B6809
:102F40005860086A801C086205E00B6A581C086219
:102F500018780B685860C88C401E80B2C88458B975
:102F60000868C06820F080000B68D8600868C068F6
:102F700040F040000B68D860002070470220FCE75A
:102F80002DE9F84304460D4617469846089E31E061
:102F9000701C70B3FEF796F9A0EB0800B04200D8A1
:102FA00016B90320BDE8F8832068C06800F004006B
:102FB000F8B1802D1ED0402D1CD020680068C0F3D1
:102FC000C000B0B100BF00200090206800680090F1
:102FD00020684068009000BF00BF2046FFF73DFE1C
:102FE0000820606400BF002084F8400000BF01207A
:102FF000D8E7FFE7206800682840A84201D10120F7
:1030000000E00020B842C3D00020CBE710B5024852
:10301000FFF71AF910BD0000BC00002000BFFEE75A
:1030200070B50546B5F5801F01D3032070BD00F0D3
:1030300055F904460CB12046F8E700F0E5F82946BA
:10304000202000F0FBF8044600F0D4F80CB1204634
:10305000ECE74FF47A7000F015F9E7E70EB5AB2016
:10306000019000F0D1F8012101A800F0FBF818B19F
:1030700000F0C0F801200EBD0321684600F0CEF834
:1030800018B100F0B7F80120F5E700F0B3F802A896
:1030900000F088F808B10120EDE704490298884261
:1030A00001D00220E7E70020E5E700001440EF0030
:1030B0002DE9F04105460F461446B5F5801F00D2B4
:1030C00017B90320BDE8F0810CB90020FAE7B4F588
:1030D000807F08DCE8B22044B0F5807F03D828194F
:1030E000B0F5801F01D90320ECE700F0F7F80646A1
:1030F0000EB13046E6E700F087F82946022000F0DE
:103100009DF8064626B92146384600F0ABF806463B
:1031100000F070F80EB13046D4E70A2000F0B2F8A3
:10312000D0E72DE9F04704460D461646B4F5801F5A
:1031300004D2C4F58010B04200D315B90320BDE815
:10314000F0870EB90020FAE700F05EF82146032070
:1031500000F074F88046B8F1000F03D000F04AF890
:103160004046ECE7374617E0B7F5803F02D34FF60D
:10317000FF7000E0384681461FFA89F1284600F0CA
:103180004DF88046B8F1000F03D000F033F8404608
:10319000D5E74D44A7EB0907002FE5D100F02AF849
:1031A0000020CCE71CB504469F2001900020009031
:1031B0000CB903201CBD00F027F8012101A800F084
:1031C00051F820B90321684600F028F818B100F042
:1031D00011F80120EEE700F00DF89DF80000000462
:1031E0009DF8011040EA01209DF80210084320607C
:1031F0000020DFE710B5012210210248FEF75CF83D
:1032000010BD00000008014010B500221021024846
:10321000FEF752F810BD00000008014070B50446EA
:103220000D4664232A4621460348FEF71BFD08B1DC
:10323000012070BD0020FCE76400002038B5054681
:103240000C468DF80050200C8DF80100200A8DF8F6
:103250000200E0B28DF803000421684600F002F895
:1032600038BD000070B504460D4664232A46214649
:103270000348FEF7B8FD08B1012070BD0020FCE74F
:10328000640000207CB5044605200190FEF71AF882
:10329000054600BFFFF7B8FF012101A8FFF7E2FFD5
:1032A00018B1FFF7A7FF01207CBD01216846FFF799
:1032B000B5FF18B1FFF79EFF0120F5E7FFF79AFF72
:1032C0009DF8000000F0010008B90020ECE7FDF7D0
:1032D000F9FF401BA042DDD30420E5E708B5062036
:1032E0000090FFF791FF01216846FFF7BBFF18B17F
:1032F000FFF780FF012008BDFFF77CFF0020FAE701
:103300000FB4054B10B503A9044A029800F034F835
:1033100010BC5DF814FB0000D13700083800002015
:1033200002480068C0F30220704700000CED00E086
:1033300010B5002804DB0A07130E054A135406E0F3
:103340000A07140E034A00F00F031B1FD45410BDCC
:1033500000E400E018ED00E002E008C8121F08C118
:10336000002AFAD170477047002001E001C1121F06
:10337000002AFBD1704700002DE9FF4F8DB00F46AA
:103380000546002606E025280BD0DDE90F12904700
:103390006D1C761C28780028F5D111B03046BDE8A8
:1033A000F08F0024A246A1460122E94900E004432F
:1033B00015F8013F203B02FA03F00842F7D12878C4
:1033C0002A2810D06FF02F022878A0F130010929A7
:1033D00014D80AEB8A0102EB410144F0020400EB2D
:1033E000010A6D1CF0E701CF5FEA000A03D544F43F
:1033F0000054CAF1000A44F002046D1C28782E28FB
:1034000017D115F8010F44F004042A280ED06FF0EC
:103410002F022878A0F1300109290AD809EB890187
:1034200002EB410100EB01096D1CF2E757F8049B28
:103430006D1C28786C280FD006DC4C2817D0682823
:103440000DD06A2814D104E0742810D07A280FD146
:103450000DE044F400140AE044F4801401E044F464
:1034600040146978814202D104F580146D1C6D1CF2
:1034700028786E281ED00CDC632830D004DC0028AD
:103480008BD0582811D19FE0642867D069280CD1CF
:1034900064E073282DD004DC6F2872D0702804D12A
:1034A00094E075286ED078286DD0DDE90F12904732
:1034B000761C4BE1C4F30250022806D0032809D041
:1034C000042801CF09D0066040E101CFF117C0E91F
:1034D00000613BE101CF068038E1067036E117F864
:1034E000040B8DF8000000208DF80100EB46012050
:1034F00003E057F804BB4FF0FF3061074FF00001C5
:1035000002D40DE008F10101884649450FDA8045F3
:10351000F8DB1BF808100029F4D108E008F10101DC
:1035200088468142FADB1BF808100029F6D1DDE954
:103530000F23AAEB08008146214600F031F9304400
:1035400000EB080604E0DDE90F121BF8010B9047C1
:10355000B8F10108F7D221464846F2E00A21C4F347
:1035600002524FF0000B0891022A04D001CFC1177C
:10357000032A09D00AE0FF1D27F00707F7E8020138
:1035800008E02CE01EE01FE000B2C117042A01D1C0
:1035900040B2C117021E71F1000206DA0023D0EB1F
:1035A000030063EB01012D2202E0220504D52B224A
:1035B0008DF82420012203E0E20701D02022F7E762
:1035C000904653E00A210BE0102109E010214FF052
:1035D000000B44F004044FF00809089103E00821AF
:1035E0004FF0000B0891C4F30252022A04D001CF1D
:1035F0000021032A06D006E0FF1D27F00707F7E8A1
:10360000020103E080B2042A00D1C0B24FF00008EA
:1036100022072BD52A78702A07D0DDF820C08CF03D
:10362000100C5CEA0B0C05D00EE040228DF8242033
:10363000012208E050EA010306D030238DF824303F
:103640008DF8252002229046089B83F0080353EA58
:103650000B030BD150EA010201D1620706D53022DB
:103660008DF824204FF00108A9F101092A78582A81
:1036700004D038A20B9208AA0A920BE03AA2F9E70A
:103680005B46089AFCF78EFD0B9B9B5C0A9A521EC8
:103690000A92137050EA0102F2D10A98ADEB0000D1
:1036A00000F1200B600702D524F4803401E04FF0D4
:1036B0000109D94502DDA9EB0B0000E0002000EB79
:1036C0000B0141440890AAEB010AE00306D4DDE9AE
:1036D0000F232146504600F063F806444FF00009DE
:1036E00008E009A911F80900DDE90F12904709F176
:1036F0000109761CC145F4DBE0030CD5DDE90F239D
:103700002146504600F04CF8064404E0DDE90F1273
:1037100030209047761C0899481E08900029F5DC57
:1037200008E00A980A990078491C0A91DDE90F120D
:103730009047761CBBF10001ABF1010BF1DC214697
:103740005046DDE90F2300F019F806446D1C21E610
:103750000928010030313233343536373839616267
:10376000636465660000000030313233343536372B
:103770003839414243444546000000002DE9F041FC
:10378000044600251E461746880404D405E0394641
:103790002020B0476D1C641EF9D52846BDE8F08195
:1037A0002DE9F041044600251E469046C80301D588
:1037B000302700E02027880404D505E0414638463C
:1037C000B0476D1C641EF9D52846BDE8F0810000A5
:1037D00013B50C464FF0FF33012269460248FEF74D
:1037E0006DFF00981CBD0000BC00002000B58BB030
:1037F000282101A8FCF7AFFC0020069007900120CB
:10380000089020200190002002904FF6E070039075
:103810000020049005900120099001A90A48FDF7B5
:1038200078F8012006904FF4015001904FF6E070B7
:1038300003900620049001A90348FDF76AF80248A6
:10384000FDF7E4FA0BB000BD3C00002008B5FDF721
:103850004BFDFFF7C4F9FFF755F8FFF731F8FFF715
:10386000B9F8FFF795F8FCF7F1FC12A0FFF748FD57
:10387000002000906846FFF795FC05462A4611A0F7
:103880000099FFF73DFDFFF7E9FB18B916A0FFF718
:1038900037FD02E017A0FFF733FD002409E0FCF735
:1038A00041FF601CC4B2032C00DB00240A20FDF79A
:1038B0005FFBF4E743414E20737461727465640DDD
:1038C0000A000000573235513830204A45444543FC
:1038D0002049443A203078253036582028726574C3
:1038E0003D2564290D0A0000573235513830206FCC
:1038F0006B0D0A0057323551383020696E697420DB
:103900006661696C65642120636865636B20776913
:1039100072696E672F43530D0A00000070B592B0B4
:103920003C480088002806DD00F050FA18B900F085
:1039300077FA12B070BD002400251BE036480068FD
:10394000461B402E00D9402605F58050324602A97C
:10395000FFF7E7FB28B131A0FFF7D2FC00F060FAD7
:10396000E7E7002003E002A9095C0C44401CB042D8
:10397000F9D34035284800688542DFD32C480068D9
:10398000844208D02A48214602682AA0FFF7B8FCE2
:1039900000F046FACDE70020FFF742FB28B12EA049
:1039A000FFF7AEFC00F03CFAC3E700208DF8000002
:1039B0008DF8010010208DF8020000208DF8030022
:1039C00015480068000E8DF8040013480068000CCC
:1039D0008DF8050010480088000A8DF806000E4892
:1039E00000788DF80700082269460020FFF760FB89
:1039F00028B11FA0FFF784FC00F012FA99E70648EF
:103A000002680B48016820A0FFF77AFC00F008FA72
:103A100000BF8EE72C000020200000206572723A63
:103A20007732352072656164206261636B0D0A0034
:103A3000240000206572723A7665726966792066A4
:103A40006C6173683D2530386C582072783D2530A4
:103A5000386C580D0A0000006572723A77323520D2
:103A60006D6574612065726173650D0A0000000068
:103A70006572723A773235206D65746120777269AC
:103A800074650D0A00000000646F6E652073756D2B
:103A90003D2530386C582073697A653D256C750D6D
:103AA0000A00000070B5062230A13248FCF76BFB1B
:103AB00020B1304930A0FFF723FC70BD00242D4D0C
:103AC000AD1D287818B930A0FFF71AFCF5E706E01D
:103AD0002878303804EB840100EB41046D1C287811
:103AE000302802DB28783928F2DD287820B12149F6
:103AF00029A0FFF705FCE0E7B4F5FA7F02D3B4F59F
:103B0000004F04D9214628A0FFF7FAFBD5E721464C
:103B10002CA0FFF7F5FB4FF480560AE03046FFF784
:103B20007FFA20B131462FA0FFF7EAFBC5E706F583
:103B3000805604F58050B042F0D83148046000202F
:103B40003049086030490860304908804FF400600F
:103B50002F490860FDF7B6FB2E49086001202E4969
:103B600008702EA0FFF7CCFB00BFA6E7737461724C
:103B7000743A0000700500206572723A636D64202B
:103B80003C25733E0D0A00006572723A6C656E202A
:103B9000656D7074790D0A006572723A6C656E20FD
:103BA0003C25733E0D0A00006572723A6C656E200A
:103BB000256C75206F7574206F662072616E676565
:103BC0000D0A000073746F72652073697A653D2574
:103BD0006C752C2065726173696E672E2E2E0D0A2E
:103BE000000000006572723A7732352065726173A9
:103BF00065204030782530386C580D0A00000000F0
:103C00002000002024000020280000202C0000209C
:103C100030000020340000201C0000207265616428
:103C2000790D0A002DE9F04106460F46002429E0EF
:103C3000355D0A2D01D00D2D0ED11448007800B944
:103C40001EE000201249114A12788854FFF72AFF1B
:103C500000200E49087012E00C4800781F2808D296
:103C60000A4801780078401C084A107008484554FA
:103C700005E008A0FFF744FB00200449087000BFDE
:103C8000601C84B2BC42D3DBBDE8F0811D00002083
:103C9000700500206572723A636D6420746F6F2046
:103CA0006C6F6E670D0A00002DE9F041FDF70AFB0D
:103CB00038490968401A41F2883188420DD936489E
:103CC0000068364A128881183548026835A0FFF727
:103CD00017FB00F0A5F8BDE8F0812F4800682F49D8
:103CE000098844182E480068061B2C480088C0F537
:103CF000807087B2B74201D2384600E0B0B2804649
:103D00002F49264A128888184146FEF7B3FD05461A
:103D100005B9E0E7FDF7D6FA1E49086000200BE080
:103D20001E4909880144264A515C264A12681144FA
:103D3000244A1160411C88B2A842F1DB1748008870
:103D400028441649088008460088FF2805DD00F051
:103D50003DF810B900F064F8BDE70F4800680F495E
:103D6000098844181848006884420BD30C4821463F
:103D700002680FA0FFF7C4FA1348006800F500605E
:103D80001149086006480068844201D3FFF7C6FD68
:103D900000BFA0E734000020280000202C000020F5
:103DA000200000206572723A74696D656F75742029
:103DB0007265637620256C752F256C750D0A0000E1
:103DC00090050020240000203000002010B50D498F
:103DD000096801F580500C490A880C49FFF768F919
:103DE00020B10BA0FFF78CFA002010BD0548006839
:103DF00005490988084403490860002002490880F1
:103E00000120F2E7280000202C000020900500206F
:103E10006572723A7732352077726974650D0A00DF
:103E200000200449087004490870044908800449C6
:103E3000086070471C0000201D0000202C0000209E
:103E40002000002002030405060708090A0B0C0DD8
:103E50000E0F10100102000000000000000001021F
:103E60000304060708090000000001020304000023
:103E7000903E0008000000203C000000583300087D
:103E8000CC3E00083C000020540A000068330008C3
:103E90000000000000000000000000001000000012
:103EA0000100000000127A00000000000000000085
:103EB0000000000000000000000000000000000002
:0C3EC000000000000000000000000000F6
:04000005080000ED02
:00000001FF
