:020000040800F2
:10000000C0060020050100088B2E0008112A0008F8
:10001000892E0008AD0D000889330008000000009B
:10002000000000000000000000000000D92F0008C0
:10003000C90D0008000000008D2E0008DB2F00080D
:100040001F0100081F0100081F0100081F01000810
:100050001F0100081F0100081F0100081F01000800
:100060001F0100081F0100081F0100081F010008F0
:100070001F0100081F010008B10D0008BD0D000898
:100080001F0100081F0100081F0100081F010008D0
:100090001F0100081F0100081F0100081F010008C0
:1000A0001F0100081F0100081F0100081F010008B0
:1000B0001F0100081F010008413000081F0100084F
:1000C0001F0100081F0100081F0100081F01000890
:1000D0001F0100087D3300081F0100081F010008F0
:1000E0001F0100081F0100081F010008DFF810D0E1
:1000F00000F0BAFA00480047FD3E0008AFF3008068
:10010000C00600200648804706480047FEE7FEE795
:10011000FEE7FEE7FEE7FEE7FEE7FEE7FEE7FEE7B7
:100120003D300008ED000008202A04DB203A21FAC7
:1001300002F00021704721FA02F3D040C2F1200200
:100140009140084319467047D2B201E000F8012BF4
:10015000491EFBD270470022F6E710B513460A4647
:1001600004461946FFF7F0FF204610BD2DE9FE4F6B
:10017000804681EA0300C00F0C46009021F0004148
:1001800023F00045B8EB0200A94105D240462146C4
:1001900090461C460B46024623F00040104347D0D1
:1001A000270DC7F30A00C3F30A510290401A0190C9
:1001B00040286BDAC3F3130040F4801B009892468A
:1001C00020B10023D2EB030A63EB0B0B01985946D5
:1001D000C0F14002504600F0B0F906460D465046C8
:1001E0005946019A00F0B8F910EB0800614100246B
:1001F00087EA115284EAE7731A4340D0009A62B347
:10020000019A012A4FEA075215DC001B61EB02013B
:100210004FF0004202EA0752CDE90042001C41F5CE
:10022000801132462B4600F0B8F903B0BDE8F08FDC
:1002300040462146F9E7001B61EB0201001C41F535
:10024000801300185B412018A2F5001747EB03014B
:1002500040EAD570B6196D4111E06D084FEA3606D7
:1002600045EAC0754FEA0752001B61EB0201001C12
:1002700041F5801149084FEA3000001951413246DA
:100280002B4603B0BDE8F04F00F078B9009801228A
:1002900040000023D0EB020263EBE073009821469C
:1002A0004FEAE074B8EB000061EB0401E9E783F08A
:1002B00000435BE781F0004158E72DE9FE4F81EAFA
:1002C000030404F0004421F0004100944FF0000BBF
:1002D00023F0004350EA01045ED052EA03045BD0ED
:1002E000C3F30A54C1F30A552C44A4F2F334019425
:1002F000A0FB0254C1F3130141F48011C3F31303B3
:1003000043F4801301FB024400FB034E840A970A66
:1003100044EA815447EA8357A4FB076802958D0A93
:1003200005FB07854FEA932C04FB0C542705029D1F
:100330004FEA065847EA1637B5EB08056EEB070C8F
:10034000870E920E47EA811742EA8312A7FB020149
:10035000B6EB0B0164EB00042B0D43EA0C335E1883
:1003600044EB1C50DA465146E7FB0201C5F3130487
:100370004FEA0B3343EA14534FEA0432019C43EA39
:100380000603A4F10C040294009CCDE900B400F033
:1003900004F903B0BDE8F08F00200146F9E72DE92C
:1003A000F04D81EA030404F0004B21F000451446AF
:1003B0004FF0000A23F0004150EA050220D054EA31
:1003C00001021DD0C5F30A570246C5F31303C1F35A
:1003D0001300C1F30A5640F4801543F48013A7EBD1
:1003E0000608101BD64608F2FD3873EB050002D351
:1003F00008F1010801E092185B41B8F1000F03DA3F
:1004000000200146BDE8F08D00204FF48011064623
:1004100084460EE0171B73EB050705D3121B63EB35
:10042000050306434CEA010C49084FEA30009218D4
:100430005B4150EA0107EDD152EA030012D082EA93
:10044000040083EA0501084305D0101BAB4106D226
:100450000122002306E000224FF0004302E06FF08B
:10046000010253101AEB06004CEB085110EB0A0086
:1004700041EB0B01BDE8F04D00F080B830B5041E33
:1004800071F1000404DB4FF00044404264EB0101D1
:10049000141E73F1000405DB1C464FF0004352426A
:1004A00063EB0403994208BF904230BD30B50B4660
:1004B000014600202022012409E021FA02F59D4294
:1004C00005D303FA02F5491B04FA02F52844151E68
:1004D000A2F10102F1DC30BD2DE9F05F05460020FC
:1004E00092469B4688460646814640241BE02846A5
:1004F000414647462246FFF717FE53465A46C01A62
:10050000914110D311461846224600F016F82D1AD4
:1005100067EB01084F4622460120002100F00DF84C
:1005200017EB00094E41201EA4F10104DFDC484610
:1005300031462A464346BDE8F09F202A04DB203A94
:1005400000FA02F1002070479140C2F1200320FA26
:1005500003F3194390407047202A06DBCB17203A5B
:1005600041FA02F043EAE07306E041FA02F3D040B8
:10057000C2F12002914008431946704710B5141E7D
:1005800073F1000408DA401C41F1000192185B414C
:100590001A4301D120F0010010BD2DE9F04D924623
:1005A0009B4611B1B1FA81F202E0B0FA80F220323A
:1005B0009046FFF7C2FF04460F4640EA0A0041EAB0
:1005C0000B0153465A46084313D0114653EA010023
:1005D00019D0C8F140025046FFF7A6FD05460E4669
:1005E000504659464246FFF7A8FF084305D0012070
:1005F00004E020463946BDE8F08D0020054346EA78
:10060000E0762C4337430A986305E40AA0EB080020
:100610000022FD0A44EA47540A3002D50020014670
:10062000E9E7010510196941DDE90845001969414B
:10063000BDE8F04DA2E7C1F30A52C1F3130140F245
:10064000FF3341F480119A4202DA002001467047DC
:1006500040F233439A42A2F2334202DC5242FFF7A5
:1006600063BDFFF76ABF0000064C074D06E0E06877
:1006700040F0010394E8070098471034AC42F6D3E9
:10068000FFF738FDB03F0008D03F00080B4810B519
:10069000016841F0807101600948002141600168F2
:1006A00041F001010160012002F006FA012002F090
:1006B0005DFABDE8104000F04BB80000FCED00E032
:1006C000001000E02DE9F04115460E46B0F5005F40
:1006D00003D2C0F50051A94202DA0220BDE8F08140
:1006E00025B100F020F818B10120F7E70020F5E768
:1006F00002F015FAA12002F0E7F910B102F024FA95
:10070000F2E700246F1E09E0BC4201DA012000E09C
:10071000002002F09BF93055641CA4B2AC42F3D324
:1007200002F012FAE2E710B5044602F0F8F9A02050
:1007300002F0CAF940B9200A02F0C6F920B9E0B2C5
:1007400002F0C2F9002802D002F0FEF9012010BD2B
:1007500070B500244FF47A7502F0E1F9A02002F0A0
:10076000B3F940B102F0F0F902F054F9641CAC4264
:10077000F2D3012070BD02F0E7F9002070BD2DE931
:10078000F0410F460646B0F5005F03D2C6F50050B3
:10079000904202DA0220BDE8F081144626E006F01D
:1007A0001F00C0F12000844200D22046804630461F
:1007B000FFF7B9FFC0B9454609E017F8010B02F091
:1007C00083F910B102F0C0F90EE06D1EADB2002D3C
:1007D000F3D102F0B9F906EB080086B2A4EB0800E9
:1007E00084B2FFF7B5FF08B10120D4E7002CD6D1C1
:1007F0000020D0E738B513A002F090FE032269462E
:100800002020FFF75FFFBDF801009DF8023044BAD9
:100810009DF801209DF8001012A002F07FFEA4F5C3
:10082000B4406B3803D0022000F098F838BD9DF832
:100830000000012803D0022801D00328F3D10E497B
:10084000487038BD626F6F746C6F6164657220733D
:10085000746172740A636865636B20757064617497
:10086000650A000065653A25303258202530325837
:1008700020253032580A00002400002010B5094815
:1008800044681CB94078032809D0074C07A02146CA
:1008900002F044FE2046BDE8104003F0B5BA084C13
:1008A000F4E7000024000020008000086A756D70E5
:1008B000206170702030782530386C580A000000B4
:1008C0000040000810B5134C60782178884218D099
:1008D000207001280AD0022819D0032811D10EA0B7
:1008E00002F01CFEBDE81040FFF7C8BF0CA002F0EC
:1008F00015FE00F089F828B1022000F02FF8022040
:10090000607010BDBDE8104007A002F007BE0DA04A
:10091000E6E700002400002072657365740A000099
:100920007570646174650A00757064617465206631
:1009300061696C2C20666C6167206B6570740D0AB0
:10094000000000006E6F207570646174650A00001D
:1009500001490320487070472400002008B5032295
:100960008DF800005A208DF801006B208DF80200F0
:1009700069462020FFF703FF08BD00002DE9F04184
:1009800000F0C6FD054612A002F0C8FD134C144F3E
:1009900040F6B836207818B9202002F0EFF830B1D0
:1009A000002020700F49032048700FA00CE000F0D9
:1009B000AFFD401BB04202D33878C00703D00120FE
:1009C00000F0E8FBE6E70CA0BDE8F04102F0A6BDB0
:1009D00077616974206B65790D0A000020000020A2
:1009E00017000020240000206B65792D3E646566A9
:1009F00061756C740A0000006E6F206B6579202DA4
:100A00003E206170700D0A002DE9F0478EB008227B
:100A100005A9002002F0E2FC08B15AA021E0BDF8CF
:100A200014009DF8161040BA000440EA01279DF812
:100A300017009DF81A100743BDF8180040BA0004CB
:100A400040EA01259DF81B00394605432A4654A07B
:100A500002F064FDA5F5FA7047F60D61884203D3F4
:100A600058A002F05BFD81E0B7F5805F03D37819F1
:100A7000B0F5803F01D959A0F3E7082205A938460F
:100A800002F0ACFC08B15BA0EBE79DF81610BDF8D6
:100A900014009DF81A2061F31F409DF8171040EADA
:100AA0000161BDF8180062F31F409DF81B2040EA69
:100AB00002604FF40052B2EB114F01D055A0D0E7C5
:100AC00020F0010158480A185848B2F5804F02D268
:100AD000554C644207E0554A52420A44B2F5004F71
:100AE00006D204465248001BA84203D251A0B8E7E0
:100AF00057A01AE000F0FEFB26464FF000094FF029
:100B0000010A04EB050815E0CDF82090CDF83090EF
:100B1000CDE909A60CA908A8CDF82CA000F04CFB43
:100B200030B100F09DFB314651A002F0F7FC1DE012
:100B300006F58066B045E7D800F092FB03AB2A4685
:100B400021463846CDF80C9000F0BAF800280ED0B7
:100B50000021084602E0225C401C1144A842FAD35E
:100B6000039A914206D048A002F0D8FC00200EB0B3
:100B7000BDE8F0874B48214644604BA002F0CEFC14
:100B80000120F4E772656164206D65746120617015
:100B9000702061646472206572726F720D0A0000C9
:100BA0006D6574613A207732355F616464723D30FF
:100BB000782530386C582073697A653D256C750D41
:100BC0000A0000006170702073697A65206F757487
:100BD000206F662072616E67650D0A0077323520DE
:100BE00061646472206F7574206F662072616E6735
:100BF000650D0A007265616420617070207665631E
:100C0000746F72207461626C65206661696C0D0A94
:100C100000000000737461636B206164647220657E
:100C200072726F720D0A000000C0FFF700800008AA
:100C3000000001086170702073697A65203E20749D
:100C4000617267657420726567696F6E0D0A0000D6
:100C50007265736574206164647265737320657274
:100C6000726F722030782530386C580D0A00000001
:100C70006572617365206661696C2040307825304B
:100C8000386C580D0A000000766572696679207329
:100C9000756D2065727220256C752F256C750D0A97
:100CA0000000000024000020636F7079206F6B202B
:100CB0002D3E2030782530386C580D0A0000000099
:100CC0002DE9FF5F1F469046002600F013FB4FF40E
:100CD000807ADFF8A4B048E0A8EB06005446A042B2
:100CE00000D884B2009822463044234902F076FBB3
:100CF00020B100F0B5FA314620A02FE0002059467F
:100D000005E00B5C3A68401C1A4480B23A60A0428D
:100D1000F7D30198002500EB06090CE00BEB05006A
:100D2000002302884946012000F0A4FA90B9AD1CC6
:100D300009F10209ADB2681CA042EFD3A54213D25B
:100D40001BF80500002340F47F424946012000F0D3
:100D500091FA48B100F084FA49460EA002F0DEFB99
:100D6000002004B0BDE8F09F26444645B4D300F00F
:100D700077FA0120F5E70000C00100207732352026
:100D800072656164206661696C2040256C750D0A8E
:100D90000000000070726F6772616D206661696C9F
:100DA000204030782530386C580D0A00FEE70000EE
:100DB000014800F007B900005C010020014800F084
:100DC00001B9000018010020704772B6FEE700006C
:100DD00006490020C8610648016941F0040101612B
:100DE000016941F04001016170470000A00100204D
:100DF00000200240064A0021D16106490A6942F0FA
:100E000002020A614861086940F0400008617047C9
:100E1000A001002000200240044B0022DA61044AB5
:100E2000136943F00103136101807047A0010020A2
:100E30000020024014480022C168CB06134904D5A3
:100E4000CA6942F00202CA611022C3685B0705D575
:100E5000CB6943F00103CB6142F00402C369DB07B5
:100E600007D0CB6943F00403CB61C16921F00101D4
:100E7000C161A2F58071013901D0C2607047C169BA
:100E800021F00101C161704700200240A001002053
:100E900070B5054600F03CFB0646114C09E0681CA5
:100EA00007D025B100F034FB801BA84201D90320F4
:100EB00070BDE068C007F2D1E068800601D520204F
:100EC000E060E068C00605D4E069C00702D1E068D0
:100ED000400703D5FFF7AEFF012070BD002070BDB5
:100EE0000020024010B590F821100022022905D000
:100EF0000421816380F82020012010BD01680B6867
:100F000023F00E030B6001680B6823F001030B60F4
:100F100090F84030C46B012101FA03F3636080F85C
:100F2000211080F82020104610BD000010B590F868
:100F300021100024022903D00421816301243DE013
:100F400001680A6822F00E020A6001680A6822F04D
:100F500001020A601A4A0168914201D1012121E08F
:100F6000174A1432914201D110211BE0144A283251
:100F7000914201D1891515E0114A3C32914201D1CB
:100F800089140FE00E4A5032914202D14FF4803161
:100F900008E00B4A6432914202D14FF4801101E023
:100FA0004FF08071064A083A5160012180F8211003
:100FB000002180F82010416B01B18847204610BD08
:100FC000080002402DE9F05FC16B0C6801680B68F6
:100FD000D0F840C0042202FA0CF2494DDFF824A1F7
:100FE000494E4A4FDFF828B1DFF828E122422CD0E1
:100FF0005A072AD50A68920603D40A6822F0040226
:101000000A600168A94201D1042219E0514501D1C9
:10101000402215E0B14202D14FF4806210E0B942A3
:1010200002D14FF480420BE0594502D14FF48022A7
:1010300006E0714502D14FF4800201E04FF080627A
:101040002F4908394A60C16A3BE04FF0020808FAAC
:101050000CF818EA040F4FF000094FF0010235D0E8
:101060005FEA837832D50B689B0605D40B6823F0C2
:101070000A030B6080F821200168A94201D10222F5
:1010800019E0514501D1202215E0B14202D14FF4BF
:10109000007210E0B94202D14FF400520BE0594502
:1010A00002D14FF4003206E0714502D14FF4001234
:1010B00001E04FF00072124908394A6080F8209030
:1010C000816A00291AD0BDE8F05F0847082505FAB3
:1010D0000CF5254212D01B0710D50B6823F00E0328
:1010E0000B6090F84010C36B02FA01F15960826303
:1010F00080F8212080F82090016BE2E7BDE8F09FA6
:10110000080002401C00024030000240440002403F
:10111000580002406C00024030B528B308C813499B
:1011200014221944B1FBF2F18900C16310498163B3
:10113000022141771A6843F6F0718A43D0E900141E
:101140002143D0E902452C432143046921434469EA
:101150002143846921431143196000214163012225
:1011600042770177084630BD012030BDF8FFFDBF52
:1011700000000240064810B54FF0FF310161002227
:101180000261C160C26000F003FA002010BD0000DF
:101190000010024070B5044600F0BAF90546601C24
:1011A00002D004480078044400F0B2F9401BA04289
:1011B000FAD370BD040000202DE9F047054626480B
:1011C0000F460126017E01290FD0012181460176BB
:1011D0002868DFF888804CF25034022808D0A246F4
:1011E0002046FFF755FEA8B131E00220BDE8F087A8
:1011F0002046FFF74DFE08BB0120FFF7E9FD204622
:10120000FFF746FED8F81010064621F00401C8F892
:1012100010101CE04FF0FF303860AC6811E0204641
:10122000FFF7E8FD5046FFF733FED8F81010060030
:1012300021F00201C8F8101001D03C6007E004F56D
:101240008064D5E9020100EB8120A042E7D80021AB
:1012500089F818103046C9E7A0010020002002409C
:101260000348016941F080010161002070470000DE
:10127000002002402DE9F05F07461C488846002404
:10128000017E15461E46012909D0012181460176BD
:101290004CF2503A5046FFF7FBFD18B122E0022015
:1012A000BDE8F09F012F02D0022F00D00427D346C3
:1012B000DFF83CA0220128463146FEF735FF81B217
:1012C00008EB4400FFF7A8FD5846FFF7E1FDDAF808
:1012D000102022F00102CAF8102018B9641CE4B2F0
:1012E000BC42E7D3002289F81820D9E7A0010020EA
:1012F00000200240064900200A69120607D5054A67
:101300004A60054A4A600969090600D5012070470C
:101310000020024023016745AB89EFCD2DE9F84F4E
:10132000DFF8B8910024A9F1040B23460F2709F137
:10133000040AABF1040EC9E00125A5402A40AA42E7
:101340007DD1674ED1F804C0ACEB0608B44532D06D
:1013500014DCBCF1030F3AD009DCBCF1000F2AD039
:10136000BCF1010F1CD0BCF1020F31D11DE0BCF16A
:10137000110F17D0BCF1120F2AD119E0B8F5881F50
:1013800019D006DCB8F5803F15D0B8F5801F1FD105
:1013900011E0B8F5001F0ED0B8F5041F18D10AE00F
:1013A000CB6815E0CB681B1D12E0CB6808330FE05B
:1013B000CB680C330CE08B682BB1012B4FF008038A
:1013C00003D0456104E0042302E0056100E000234E
:1013D000FF2A01D8064601E000F104064FEA840521
:1013E00001D9A5F12005D6F8008007FA05FC28EA06
:1013F0000C0803FA05F548EA0508C6F800804D68B0
:10140000ED0062D5374DAE6946F00106AE61AD69BB
:1014100024F0030605F001050095334D06EB050C9D
:10142000DCF80850A607360F07FA06F825EA080583
:10143000DFF8B880404503D14FF0000817E044E0E2
:10144000DFF8AC80404502D14FF001080FE0DFF833
:10145000A480404502D14FF0020808E0DFF89880F0
:10146000404502D14FF0030801E04FF0040808FAAC
:1014700006F848EA0508CCF808804D68D9F80060FD
:10148000ED024D4601D5164300E096432E604D68AF
:10149000DAF80060AD02554601D5164300E09643E8
:1014A0002E604D68DBF80060AD035D4601D5164344
:1014B00000E096432E604D68DEF80060ED0375464F
:1014C00001D5164300E096432E60641C0D682A4641
:1014D000E5407FF431AFBDE8F88F0000080401401B
:1014E00000001110001002400000014000080140FF
:1014F000000C0140001001400014014080680840C9
:1015000000D0012070470AB1016170470904FBE770
:10151000014880687047000004000020024881688C
:10152000027811448160704704000020074810B51C
:10153000016841F010010160032000F077F80F20EE
:1015400000F006F800F026F8002010BD0020024050
:1015500070B50D4D04464FF47A712878B1FBF0F068
:101560000A490968B1FBF0F000F033FE48B9102CCD
:1015700007D200222146501E00F038F800206C608F
:1015800070BD012070BD000004000020100000208C
:10159000704700000C4808B5816941F00101816184
:1015A000816901F001010091C16941F08051C1617F
:1015B000C06900F0805000900448416821F0E0616B
:1015C00041F00071416008BD001002400000014080
:1015D000002809DB00F01F02012191404009800032
:1015E00000F1E020C0F8001170470000F0B40E4B8D
:1015F0001B680C46C3F30223C3F10705042D00D971
:101600000425191D072901D2002300E0DB1E012655
:1016100006FA05F1491E214099409E40761E16406B
:101620003143F0BC01F08ABF0CED00E0064900F048
:10163000070208684FF6FF03184040EA0220034AF9
:1016400010430860704700000CED00E00000FA0550
:101650002DE9F0470F46050061D0434E306800F099
:101660000700B84209D2306820F0070038433060E4
:10167000306800F00700B84251D128683B4C810720
:1016800012D5400703D5606840F4E06060602878B8
:10169000000703D5606840F4605060606068A96826
:1016A00020F0F000084360602878C00728D0686800
:1016B000012810D02168022810D0890700292EDACD
:1016C000616821F0030101436160FFF721FF80465B
:1016D00041F288390DE021688903EFE78901EDE7E0
:1016E000FFF716FFA0EB0801494502D90320BDE82A
:1016F000F0876068696800F00C00B0EB810FEFD1F3
:10170000306800F00700B8420BD9306820F00700BD
:1017100038433060306800F00700B84201D0012043
:10172000E5E72878400705D56068E96820F4E060BF
:10173000084360602878000706D56068296920F4AE
:10174000605040EAC100606000F0A6F86168084A95
:10175000C1F30311515CC84006490860064800689F
:10176000FFF7F6FE0020C2E7002002400010024012
:10177000963F000810000020080000202DE9F041ED
:10178000FFF7C6FE304C0546206840F0010020609F
:1017900005E000BFFFF7BCFE401B022843D82068CD
:1017A0008007F7D5206820F0F80040F08000206026
:1017B000FFF7AEFE00250646656041F2883704E07B
:1017C000FFF7A6FE801BB8422DD8606810F00C0F02
:1017D000F6D11F491D4808601E480068FFF7B8FE93
:1017E00010B10120BDE8F081FFF792FE06462068A7
:1017F00020F08070206004E0FFF78AFE801B022842
:1018000011D820688001F7D46560FFF781FE064695
:10181000206820F41020206007E000BFFFF778FE6A
:10182000801B642801D90320DCE720688003F5D4FD
:10183000206820F480202060606A40F08070606240
:10184000A5600020CEE700000010024000127A00E0
:10185000100000200800002004480549006849687D
:10186000044AC1F30221515CC840704710000020B7
:1018700000100240A63F0008044805490068496876
:10188000044AC1F3C221515CC840704710000020D7
:1018900000100240A63F00080E4A51680E4801F0B1
:1018A0000C03042B11D0082B0FD10C48C1F3834338
:1018B000C903C05C0AD55168084AC1F34041921E71
:1018C000515C054A5043B0FBF1F07047044948436E
:1018D000704700000010024000127A00863F0008A6
:1018E00000093D002DE9F84F040070D02078C04D6C
:1018F000C00749D06868C0F38100012807D0686834
:10190000C0F38100022809D16868C00306D52868A1
:10191000800339D560680028E7D035E06068B0F50D
:10192000803F0BD010B1B0F5A02F11D0286820F463
:1019300080302860286820F4802002E0286840F485
:1019400080302860606890B1FFF7E2FD06460AE04B
:10195000286840F480202860F0E700BFFFF7D8FD3A
:10196000801B642873D828688003F7D50CE0FFF744
:10197000CFFD064605E000BFFFF7CAFD801B6428C7
:10198000F0D828688003F7D420789A4E80074FF06B
:1019900001094FF0000839D5686810F00C0F07D026
:1019A0006868C0F38100022809D16868C00306D4C2
:1019B0002868800714D52069012808D110E0206923
:1019C000B0B1C6F80090FFF7A3FD074605E00AE1B5
:1019D000FFF79EFDC01B0228C4D828688007F7D5F2
:1019E0002868616920F0F80040EAC10028600DE035
:1019F000C6F80080FFF78CFD074604E0FFF788FD7E
:101A0000C01B022823D828688007F7D42078000755
:101A10002CD57948A169D9B1C0F80090FFF778FDBD
:101A2000074604E0FFF774FDC01B02280FD8686A60
:101A30008007F7D571484FF4FA510068B0FBF1F018
:101A4000009000BF0098411E0091FAD20EE080E0A5
:101A5000C0F80080FFF75CFD074604E0FFF758FD83
:101A6000C01B022875D8686A8007F7D42078400721
:101A700060D5E8690027C00008D4E86940F08050CC
:101A8000E861E869012700F0805000905C48016837
:101A9000C90513D40168834641F480710160FFF7E2
:101AA00037FD824606E000BFFFF732FDA0EB0A00DB
:101AB00064284ED8DBF80000C005F5D5E0680128A1
:101AC0000AD008B1052813D0286A20F00100286246
:101AD000286A20F0040002E0286A40F00100286231
:101AE000E06841F2883B98B1FFF712FD82460BE0B7
:101AF000286A40F004002862EEE700BFFFF708FD07
:101B0000A0EB0A0159455AD8286A8007F6D50CE09F
:101B1000FFF7FEFC824605E0FFF7FAFCA0EB0A01A6
:101B200059454CD8286A8007F6D41FB1E86920F0DF
:101B30008050E861E06988B36968C1F381010229D6
:101B400044D00228C6F8608004D0FFF7E1FC0446C8
:101B500038E034E0FFF7DCFC074604E0FFF7D8FC90
:101B6000C01B02282BD828688001F7D4206AB0F562
:101B7000803F05D16868A16820F4003008436860A0
:101B8000D4E908010843696821F4741108436860C6
:101B9000C6F86090FFF7BCFC044606E025E000BFF5
:101BA000FFF7B6FC001B022809D828688001F7D58A
:101BB0001BE000BFFFF7ACFC001B022802D903208A
:101BC000BDE8F88F28688001F4D40EE00128F7D032
:101BD0006868226A00F48031914204D1616A00F49D
:101BE0007010884201D00120EAE70020E8E70000F9
:101BF00000100240000042428004424210000020D7
:101C00000070004070B5040009D0606A002540B142
:101C100025616561A56294F8510040B10CE0012096
:101C200070BD6068B0F5827FF4D0E561F2E784F8BA
:101C30005050204600F040F8022084F851002068FF
:101C4000016821F040010160A088218900F48270C0
:101C500001F404410843A18901F400610843217C97
:101C600001F002010843217D01F001010843218BAD
:101C700001F400710843217F01F03801084394F812
:101C8000201001F080010843218D01F40051084328
:101C900021680860A069042101EA104021684860B9
:101CA0002068C16921F40061C1616565012084F883
:101CB0005100002070BD000030B585B000240094B4
:101CC00001940294039400681449884223D1144873
:101CD000816941F480518161816901F480510491ED
:101CE000816941F00401816180690E4D00F00400BA
:101CF0000490A020009002200190032003906946E8
:101D00002846FFF70BFB4020CDE900046946284632
:101D10000294FFF703FB05B030BD00000030014026
:101D200000100240000801402DE9F84F044690F8E9
:101D300051001D4616460F46012838D160684FF005
:101D40000408B0F5827F01D1A06830B3FFF7E0FB53
:101D50008246002F75D0002E73D094F850000128D1
:101D600025D04FF0010984F8509084F851804FF04D
:101D70000008C4F85480A763A687E687C4F83080BB
:101D8000A4F83480A4F83680C4F84080C4F84480B5
:101D9000A068B0F5004F0CD015E084F85180009396
:101DA00013460A46204600F01CF9BDE8F88F0220D1
:101DB000FBE72068016821F04001016020680168AC
:101DC00021F48041016020680168490603D401685C
:101DD00041F040010160E068C0B134E020688168F2
:101DE000C90709D0007BA16B0870A06B401CA063E1
:101DF000E08F401EE08709E0FFF78AFBA0EB0A00B6
:101E0000A84202D3681C01D032E085B3E08F0028DD
:101E1000E4D11BE020688168C90709D0C068A16BC4
:101E20000880A06B801CA063E08F401EE0870AE062
:101E3000FFF76EFBA0EB0A00A84203D3681C02D098
:101E400016E012E09DB1E08F0028E3D1524629460A
:101E5000204601F01CF808B12020606584F85190FC
:101E600084F85080606D00289FD001209DE7FFE737
:101E700084F8519084F85080032096E72DE9F84FBC
:101E8000984616468A460446FFF742FB814694F878
:101E9000510001281ED1BAF1000F73D0002E71D06D
:101EA00094F85000012815D0012784F850700320C1
:101EB00084F8510000256565C4F830A0A686E68642
:101EC000A563A587E58765642564A068B0F5004F24
:101ED00003D00CE00220BDE8F88F2068016821F0F3
:101EE000400101602068016841F480410160206880
:101EF0000168490603D4016841F040010160E068CF
:101F0000B0F5006F606803D048B3012E27D047E0DA
:101F100008B1012E1FD1206B21680088C86006E03F
:101F200020688168890709D5216B0988C160206B09
:101F3000801C2063E08E401EE0860CE0FFF7E8FA8C
:101F4000A0EB0901414503D3B8F1FF3F03D035E0D1
:101F5000B8F1000F32D0E08E0028E1D123E0206BF1
:101F600021680078087306E02068816889070AD52F
:101F7000216B09780173206B401C2063E08E401EAA
:101F8000E0860DE02BE0FFF7C3FAA0EB0901414525
:101F900003D3B8F1FF3F03D010E0B8F1000F0DD02C
:101FA000E08E0028E0D14A464146204600F09DFFE1
:101FB00008B120206065A06830B109E084F8517054
:101FC00084F85050032086E72068C168806800903C
:101FD00084F8517004F8505F60680028F3D0012045
:101FE00079E72DE9FF4F81B01D46934604464FF037
:101FF00001090E9EFFF78CFA074694F851006168BC
:10200000012806D0B1F5827F3CD1A168C9BB042864
:1020100038D10298002871D0BBF1000FFBD0002D01
:10202000F9D094F8500001282CD04FF0010A84F820
:1020300050A094F85100042802D0052084F85100E3
:102040004FF00008C4F85480C4F838B0E587A5877D
:1020500002992163E586A586C4F84080C4F84480CF
:1020600020680168490603D4016841F0400101601D
:10207000E068B0F5006F606808D0F0B3012D49D07A
:1020800081E0FFE7022005B0BDE8F08F08B1012D27
:1020900039D1206B21680088C860206B801C2063C8
:1020A000E08E401EE0862EE02068816889070FD50B
:1020B000E18E69B1B9F1010F0AD1216B0988C160C4
:1020C000206B801C2063E08E401EE0864FF00009EC
:1020D00020688168C9070CD0E18F51B1C068A16B3D
:1020E0000880A06B801CA063E08F401EE0874FF04B
:1020F0000109FFF70DFAC01B01E00BE067E0B042F9
:1021000001D3701C50D1E08E0028CDD1E08F002883
:10211000CAD13EE0206B216800780873206B401C18
:102120002063E08E401EE0862DE0206881688907EC
:102130000FD5E18E69B1B9F1010F0AD1216B097890
:102140000173206B401C2063E08E401EE0864FF040
:10215000000920688168C9070CD0E18F51B1C068BF
:10216000A16B0870A06B401CA063E08F401EE0874D
:102170004FF00109FFF7CCF9C01BB04202D3701C2D
:1021800001D011E086B1E08E0028CED1E08F00288A
:10219000CBD13A463146204600F0A7FE50B1202070
:1021A000606584F8508012E084F851A084F8508073
:1021B000032068E7A06818B92068C16880680090AB
:1021C00084F851A084F85080606D0028F1D001207F
:1021D00059E710B5401EB0F1807F01D3012010BD3A
:1021E0004FF0E02460610F21601701F0A7F9002093
:1021F000A06107202061002010BD704770470000DB
:1022000070B590F83C20012A26D0012480F83C408B
:10221000022280F83D2003685A689D6822F070060B
:102220000A6832435A600D4B02689A4208D0B2F1F4
:10223000804F05D00A4B9A4202D00A4B9A4204D1F1
:10224000496825F080031943916080F83D400021E2
:1022500080F83C10084670BD022070BD002C014083
:10226000000400400008004010B5040003D094F8BA
:102270003D0010B107E0012010BD002084F83C00B3
:10228000204600F01FF8022084F83D00211D206840
:1022900000F0DCFE012084F8460084F83E0084F85B
:1022A0003F0084F8400084F8410084F8420084F83C
:1022B000430084F8440084F8450084F83D00002081
:1022C00010BD000008B500680B49884212D10B48C8
:1022D000C16941F00401C161C069002200F004003D
:1022E000009003211E20FFF781F9BDE808401E2061
:1022F000FFF76EB908BD0000000800400010024062
:1023000090F83D10012901D001207047022180F88A
:102310003D100168CA6842F00102CA6000680B49BA
:10232000884208D0B0F1804F05D00949884202D0D8
:102330000849884204D1816801F00701062903D0C9
:10234000016841F00101016000207047002C01404C
:10235000000400400008004070B5044690F83C00BE
:102360000025012817D0012684F83C60022084F85B
:102370003D002068826822F0770222F47F4282606A
:102380000868502838D00DDC20284FD005DC90B3E9
:10239000102811D14AE0022070BD302846D04028D4
:1023A0000AD13BE060282FD070280DD0B0F5805FB7
:1023B00003D0B0F5005F12D0012584F83D60002005
:1023C00084F83C00284670BDCB68D1E90121206823
:1023D00000F078FE2068816841F0770109E0CB6861
:1023E000D1E90121206800F06DFE2068816841F488
:1023F00080418160E1E719E0CA684968206800F01F
:1024000073FE5021206806E0CA684968206800F021
:102410007CFE6021206800F05FFECEE7CA68496854
:10242000206800F061FE40212068F4E72268014640
:102430001046F0E770472DE9F04104460068C66891
:1024400005694FF00007A90713D5B10711D5F91E8B
:10245000016101202077206880698007204602D032
:10246000FFF7E8FF04E000F07EF8204600F07CF87B
:102470002777680716D5700714D521686FF0040018
:102480000861022020772068806910F4407F204690
:1024900002D0FFF7CFFF04E000F065F8204600F01F
:1024A00063F82777280715D5300713D521686FF013
:1024B00008000861042020772068C0698007204652
:1024C00002D0FFF7B7FF04E000F04DF8204600F01F
:1024D0004BF82777E80616D5F00614D521686FF07B
:1024E00010000861082020772068C06910F4407F40
:1024F000204602D0FFF79EFF04E000F034F82046AB
:1025000000F032F82777E80708D0F00706D02168F6
:102510006FF001000861204600F028F8280608D571
:10252000300606D521686FF0800008612046FFF76D
:1025300064FE680608D5700606D521686FF0400075
:102540000861204600F038F8A8060AD5B00608D57C
:1025500021686FF0200008612046BDE8F041FFF7D8
:102560004DBEBDE8F08170477047000010B50068AF
:102570000E49884218D100F031FB012000F0FEFA2C
:102580000B4C08B900202070202000F0F7FA20B989
:10259000402000F0F3FA002806D02078002803D16C
:1025A000044901202070087010BD000000080040A0
:1025B0000000002020000020704770477047000096
:1025C000F8B5016804460868CA684B6910F00F0F37
:1025D0004FF0000559D003F0010602F4907737431D
:1025E00065D0C10705D0D10503D5616C41F001016B
:1025F0006164410705D5D90703D0616C41F0020140
:102600006164810705D5D90703D0616C41F00401ED
:102610006164010707D502F02001314303D0616CEA
:1026200041F008016164616C00293AD0800604D54C
:10263000900602D5204600F0A9FD20684069616C33
:10264000C0F38010090700D460B3204600F077FD86
:1026500020684069400621D52068143050E8001FEA
:1026600021F0400140E80012002AF5D1E06BA8B14A
:102670006D494163E06BFEF759FC002811D0E06B17
:10268000416B01B0BDE8F040084783060FD59306C3
:102690000DD52046BDE8F84000F078BD2046FFF794
:1026A0008DFFF8BD2046FFF789FF6564F8BD266BF6
:1026B0002023012E7CD1C6067AD5D60678D50868A7
:1026C0004868009048694FF00206400640D5E16B2B
:1026D000086840680004000CE8D0A28D8242E5D969
:1026E000E085886920282DD020680C3050E8001F34
:1026F00021F4807140E80012002AF5D120681430DE
:1027000050E8001F21F0010140E80012002AF5D135
:102710002068143050E8001F21F0400140E800120A
:10272000002AF5D184F84230256320680C3050E847
:10273000001F21F0100140E80012002AF5D1E06BE3
:10274000FEF7D0FB6663A08DE18D401A81B22AE0CE
:10275000A08DE18D401A81B2E08D0028A6D000291D
:10276000A4D022680C3252E8000F20F4907042E8A6
:102770000007002FF5D12068143050E8002F22F018
:10278000010240E80027002FF5D184F8423025638C
:1027900020680C3050E8002F22F0100240E800239F
:1027A000002BF5D166632046FFF707FFF8BDFFE772
:1027B00005062BD5150629D594F841002128F5D119
:1027C000A068B0F5805F01D12069B0B1206A411CDA
:1027D0002162216800784860E08C401E0004000CF3
:1027E000E084E3D12068C16821F08001C1602068E5
:1027F000C16841F04001C160D8E7206A0088C0F399
:1028000008004860206A801C2062E5E74006CDD5BC
:102810005006CBD5CA68204622F04002CA6084F830
:10282000413000F0F4F8C1E72F31000870B5040022
:1028300004D094F84100002510B106E0012070BDDD
:1028400084F84050204600F023F8242084F841000A
:102850002068C16821F40051C160204600F0F8FCF6
:102860002068016921F4904101612068416921F0EB
:102870002A0141612068C16841F40051C16065646A
:10288000202084F8410084F842006563002070BD78
:10289000F0B585B000240646009401940294039498
:1028A00000682D49884254D12C48816941F4804107
:1028B0008161816901F480410491816941F00401E1
:1028C00081618069264D00F0040004904FF400708F
:1028D0000090022001900320039069462846FEF7ED
:1028E0001DFD2815CDE90004694628460294FEF72F
:1028F00015FD1D4D1B488027C5E90004C5E90247A9
:102900002C616C61AC612846EC61FEF705FC08B1F6
:10291000FEF75BFAF5636E62134D124844351438C6
:1029200001C5102091C5104845F8104944306C612C
:10293000AC61EC61FEF7F0FB08B1FEF746FAB56357
:102940000022022125206E62FEF750FE2520FEF7B0
:102950003FFE05B0F0BD000000380140001002400D
:1029600000080140580002401801002070472DE97E
:10297000F843044690F84100984616460D46202834
:1029800002D00220BDE8F88385B17EB100206064EA
:10299000212084F84100FEF7BBFDA6848146E68431
:1029A000A0682027B0F5805F02D003E00120E9E7AE
:1029B000206910B12E4600250EE000260CE0802193
:1029C000204600F0A1FCA8B9C6B116F8010B216899
:1029D0004860E08C401EE084E08C4B464FF00002E3
:1029E000CDF800800028EAD14FF04001204600F0E9
:1029F0008BFC40B184F841700320C3E735F8020B2B
:102A0000C0F30800E3E784F841700020BAE770479C
:102A1000FEE70000064A51680648074B0068B0FB15
:102A2000F3F000EB800053685B1A8342FBD37047DE
:102A3000001000E01000002040420F004FF4006141
:102A40000148FEF75BBD0000000C014070B5064672
:102A50000024012000F08AF80025002000F02CF866
:102A6000FFF7D8FF012000F027F8FFF7D3FF60063B
:102A7000040EFFF7E3FF08B144F001046D1CEDB252
:102A8000082DEAD3002000F017F896B15FF000009F
:102A900000F06CF8FFF7BEFF012000F00DF8FFF723
:102AA000B9FF002000F008F8012000F05FF8204690
:102AB00070BD0120ECE7000002464FF48061014840
:102AC000FEF721BD000C014070B505460024002032
:102AD000FFF7F2FFE80900F049F8FFF79BFF01203C
:102AE000FFF7EAFFFFF796FF6806641C050EE4B2E5
:102AF000082CECD30020FFF7DFFF012000F036F8B0
:102B0000FFF788FF0120FFF7D7FFFFF783FFFFF7ED
:102B100095FF04460020FFF7CFFF204670BD10B59B
:102B2000012000F023F80120FFF7C6FFFFF772FF36
:102B3000002000F01BF8FFF76DFF0020FFF7BCFF3F
:102B4000BDE81040FFF766BF10B5002000F00EF89A
:102B5000FFF760FF0120FFF7AFFFFFF75BFF0120EA
:102B600000F004F8BDE81040FFF754BF02464FF4F0
:102B700000610148FEF7C7BC000C0140054AD1784E
:102B8000014205D0012901D08143D1700120704755
:102B900000207047140000200D4810B5816986B0F0
:102BA00041F0080181618069002400F0080001946F
:102BB000CDE903404FF48050009001200290694617
:102BC0000448FEF7ABFB0448C47006B010BD00001B
:102BD00000100240000C0140140000202DE9F041DB
:102BE000FEF796FC04464FF480513348FEF786FC0E
:102BF00030B1002031490A78904203D14C6008E09E
:102C00000120F7E74B68E31A142B02D34A700870CF
:102C1000F4E7087802250423CA78012804D022F0BA
:102C20000102CA7038B10AE042F00102CA704A7863
:102C30002AB9CD7003E04A78012A00D1CB708E7892
:102C40000022052E36D2DFE806F0030717292B00F5
:102C500001280FD188700CE050B18868201AB0F5B7
:102C6000FA6F07D3C87840F02000C8708B7000E07E
:102C70008D708C60BDE8F081012808D08868201A2A
:102C8000C828F7D3C87840F00800C87012E0C878A8
:102C900040F01000C87003208870EBE750B1E9E7FE
:102CA00040B18868201A6428E4D3C87840F0400016
:102CB000C870DEE78A70DDE7000C014014000020D8
:102CC0000D4808B5416941F00101416140690022A8
:102CD00000F00100009002210E20FEF787FC0E207C
:102CE000FEF776FC002202210F20FEF77FFCBDE8F4
:102CF00008400F20FEF76CBC00100240F0B585B014
:102D0000002000900190029003902248816941F0D8
:102D100010018161816901F010010491816941F024
:102D200020018161816901F020010491816941F0F4
:102D300004018161816901F004010491816941F01C
:102D4000080181618069144E00F00800049001229E
:102D500010213046FEF7D7FB104F4FF4706500226C
:102D600029463846FEF7CFFB10200124CDE90004A8
:102D70000320CDE9024069463046FEF7CFFA112024
:102D80000095CDE90104694638460394FEF7C6FA7A
:102D900005B0F0BD0010024000080140000C0140E9
:102DA000104810B50E4901604FF482714160002156
:102DB0008160C1604FF400720161C0E90512102208
:102DC000C0E90721416281620A21C162FEF71AFF50
:102DD000002803D0BDE81040FDF7F7BF10BD00008C
:102DE000003001403000002010B586B000241748A4
:102DF000009401940294039404941349059401608F
:102E00004721C0E9011440F2E731C0E903148461AD
:102E1000FFF72AFA08B1FDF7D8FF4FF48050009071
:102E200069460A48FFF798FA08B1FDF7CEFF049407
:102E300004A906480594FFF7E3F9002801D0FDF73F
:102E4000C4FF06B010BD000000080040880000204C
:102E50000C4810B50A4901604FF416514160002139
:102E600081600C22C160C0E904128161C161FFF779
:102E7000DDFC002803D0BDE81040FDF7A6BF10BD63
:102E800000380140D0000020FEE7FEE77047F8B5AB
:102E9000044640684FF48273984217D1A0684FF4FB
:102EA0008065B0F5004F01D0A8420FD120680668B8
:102EB00026F0400606606068984207D1A068A842E4
:102EC00004D100920B460022012103E000920B4640
:102ED00000228021204600F023F8002804D0606DF5
:102EE00040F0200060650320F8BDF8B515460E4699
:102EF0000B46009204460122022100F011F840B96D
:102F00003346002280212046009500F009F8002871
:102F100004D0606D40F0200060650320F8BD000023
:102F20002DE9F8431E46914688460446089DFEF763
:102F3000EFFA401B351AFEF7EBFA07462548006802
:102F4000C0F3CB30684338E0701C37D0FEF7E0FAAE
:102F5000C01BA84203D215B1009860B32CE02068D2
:102F6000416821F0E00141606068B0F5827F0BD1DB
:102F7000A068B0F5004F02D0B0F5806F04D1206892
:102F8000016821F040010160A06AB0F5005F09D13D
:102F90002068016821F4005101602068016841F453
:102FA00000510160012084F85100002084F8500095
:102FB0000320BDE8F8830025401E0090206881684A
:102FC00038EA010004D000214945BDD10020F0E7D6
:102FD0000121F9E7100000207047FEF79FBA30B5D5
:102FE0008FB028216846FDF7B6F814210AA8FDF72E
:102FF000B2F801210804CDE9001000240294022552
:103000000491CDE907504FF4E01009906846FEF7AF
:1030100069FC08B172B6FEE70F20CDE90A054FF44E
:103020008060CDE90C4002210AA80E94FEF710FB47
:10303000002801D072B6FEE70FB030BD7047000027
:103040000148FFF7F8B9000088000020F0B50268D9
:10305000194B1A4C1A4D4FF08047984205D0B84290
:1030600003D0A04201D0A84203D122F070064A68E2
:103070003243984205D0B84203D0A04201D0A842C2
:1030800003D122F44074CA6822434C6922F08002C2
:10309000224302608A68C2620A688262984201D151
:1030A00009690163012141610169C90703D001690F
:1030B00021F001010161F0BD002C0140000400403D
:1030C0000008004010B5846842EA032224F47F44DB
:1030D0000A432243826010BD826822F070020A43D4
:1030E00042F007018160704710B5036A046A24F05A
:1030F00001040462846924F0F00444EA021423F019
:103100000A020A438461026210BD10B5036A046AB0
:1031100024F010040462846923F0A00324F47044B2
:1031200044EA023243EA01118261016210BD10B526
:10313000406A0021C185C184FFF740FA10BD0168D3
:103140000C3151E8002F22F4907241E80023002B4B
:10315000F5D10168143151E8002F22F0010241E855
:103160000023002BF5D1016B012909D101680C3135
:1031700051E8002F22F0100241E80023002BF5D186
:10318000202180F8421000210163704708B590F8B3
:103190004210222901D0022008BD82684FF48053DA
:1031A0009A4201D1016921B1816A9A421BD04AB188
:1031B0000AE00268816A5268C2F308020A80816AE2
:1031C000891C08E0026972B10268526802F07F024D
:1031D0000A70816A491C8162C18D491E0904090C6B
:1031E000C18503D01BE002685268F1E70168CA6834
:1031F00022F02002CA600168CA6822F48072CA60A4
:1032000001684A6922F001024A61202180F84210D7
:1032100000214163026B012A03D0FFF7A7FB0020C6
:1032200008BD016301680C3151E8002F22F0100243
:1032300041E80023002BF5D101680A68D20602D5C7
:103240000A6849680091818DFFF7B7F9E7E7000048
:1032500070B5044600680169E26821F440511143E9
:1032600001612169A0680843616908432168CA684F
:1032700041F20C639A430243CA6020684169A26923
:1032800021F44071114341611E492068884202D1F6
:10329000FEF7F2FA01E0FEF7DFFA00EBC00101EB06
:1032A0000012606864218000B2FBF0F3B3FBF1F31D
:1032B0006FF018067343B2FBF0F5B2FBF0F605EBC6
:1032C0008305322303EB0515B5FBF1F5B6FBF1F6EB
:1032D00005F0F00505EB0615B2FBF0F6B2FBF0F0D9
:1032E000B0FBF1F06FF01802504306EB800003EBE7
:1032F0000010B0FBF1F0216800F00F002844886056
:1033000070BD0000003801402DE9F843984617468B
:103310000D460446089E24E0701C22D0FEF7F8F803
:10332000A0EB0800B0421AD8CEB12068C1684907A6
:1033300017D5802D15D0402D13D00168C94309073A
:103340000FD401680025406800902046FFF7F7FE83
:103350000820606484F840500120BDE8F883032011
:10336000FBE72068006835EA000004D00020B8427E
:10337000D2D00020F1E70120F9E700000148FFF773
:103380001FB90000D0000020FEE700000EB5AB2002
:103390008DF8040000F08EF8012101A800F0B0F8CB
:1033A00018B100BF00F07EF80BE0032102A800F086
:1033B00089F80028F6D100F075F8684600F046F864
:1033C00008B101200EBD04490098884201D00220B6
:1033D0000EBD00200EBD00001740EF002DE9F047A4
:1033E00014460D460646B0F5000F12D2C6F5000091
:1033F000A0420ED36DB174B100F05CF831460320E9
:1034000000F06EF8060008D000F04CF83046BDE839
:10341000F0870320FBE70020F9E74FF480384FF6F0
:10342000FF79444501D34E4600E02646B1B2284616
:1034300000F048F8070003D000F034F83846E6E71B
:103440003544A41BEDD100F02DF8E4E71CB50400D1
:103450004FF09F008DF804004FF00000009007D05F
:1034600000F028F8012101A800F04AF838B901E07D
:1034700003201CBD0321684600F024F818B100F0B9
:1034800011F801201CBD00F00DF89DF800009DF81A
:103490000110000440EA01209DF80210084320605A
:1034A00000201CBD012210210148FEF72CB80000AD
:1034B00000080140002210210148FEF724B8000056
:1034C000000801400A4610B5014664230348FEF790
:1034D0002BFC002800D0012010BD0000300000208F
:1034E00008B58DF80000080C8DF80100080A8DF869
:1034F00002008DF803100421684600F001F808BDB1
:103500000A4610B5014664230348FEF7B7FC0028BD
:1035100000D0012010BD0000300000200FB4054B8A
:1035200010B503A9044A029800F0EAF810BC5DF84F
:1035300014FB0000E53E00082C0000200907090EDE
:10354000002804DB00F1E02080F80014704700F050
:103550000F0000F1E02080F8141D704702E008C859
:10356000121F08C1002AFAD170477047002001E0FD
:1035700001C1121F002AFBD1704700002DE9FF5F37
:1035800082B00021DDE90430020DDDF840B00343D4
:1035900018D044F61050A2F2FF324243151411988D
:1035A00001281FD0A5EB0B00401C5FEA000A4FF07A
:1035B00000064E4FDFF83891B046504615D5CAF197
:1035C000000413E0119801244AA3012801D16FEAF5
:1035D0000B010298119AC0E90031C0E9024206B01D
:1035E000BDE8F09FCBF10000DFE704460021404A30
:1035F000491842EB0450CDE9001012E0E00707D073
:1036000032463B4640464946FCF757FE80468946CF
:1036100032463B4610461946FCF74FFE06460F461B
:103620006410002CEAD1DDE90401DDE90023BAF1E0
:10363000000F06DAFCF741FE42464B46FCF73DFE22
:1036400005E0FCF7ACFE42464B46FCF7A8FE0446FC
:103650000E460022284BFCF711FF03D84FF0FF3035
:10366000014607E00022254B20463146FCF77EFD4F
:10367000FCF7E1FF102409E0002C0ADB0A220023FA
:10368000FCF72AFF039B30321A55641E50EA0102F0
:10369000F2D1641C039AC4F111031444119A012A53
:1036A00003D0012208430DD10AE0084304D00020D2
:1036B0004FF0110B119072E7A3EB0B056D1E0DE09F
:1036C0005B4504DD4FF0000205F1010504E003DA7B
:1036D0004FF00002A5F10105002AECD002981199E3
:1036E000C0E90231C0E9004579E70000000014405C
:1036F0000000F03F300000000000F0430000E03F19
:103700002DE9FF4F95B09A46884606460025EEE122
:10371000252877D100242746F94A0121039400E0A7
:10372000044316F8013F203B01FA03F01042F7D1A1
:1037300030782A2811D06FF02F033078A0F13002B2
:10374000092A16D8039A44F0020402EB820203EB22
:1037500042021044761C0390EFE758F8042B0392C2
:10376000002A03DA504244F40054039044F0020467
:10377000761C30782E2816D116F8010F44F0040478
:103780002A280DD06FF02F023078A0F13003092BDA
:1037900009D807EB870302EB4303C718761CF3E74E
:1037A00058F8047B761C30786C280FD006DC4C2847
:1037B00017D068280DD06A2814D104E0742810D0DE
:1037C0007A280FD10DE044F400140AE044F4801488
:1037D00001E044F440147278824202D104F580146E
:1037E000761C761C307866280BD013DC582877D0EE
:1037F00009DC002875D04528F6D04628F4D04728A3
:103800001AD193E118E0632835D0642879D065286F
:1038100012D18BE1702873D008DC6728F1D06928B9
:103820006FD06E280DD06F2806D1ACE073282CD055
:10383000752874D0782853D05246179990476D1C3C
:1038400054E1C4F30250022809D003280DD0D8F85F
:10385000001004280DD00D6008F1040846E1D8F8E6
:103860000010EA17C1E90052F6E7D8F800100D8001
:10387000F2E70D70F0E718F8041B8DF80010002037
:103880008DF80100EB46012003E058F804BB4FF02F
:10389000FF3061074FF0000102D40DE009F1010192
:1038A0008946B9420FDA8145F8DB1BF80910002977
:1038B000F4D108E009F1010189468142FADB1BF8E5
:1038C00009100029F6D103985346A0EB09072146B9
:1038D0003846179A00F080FA284400EB090507E003
:1038E00044E008E10DE01BF8010B524617999047A0
:1038F000B9F10109F7D2534621463846179AF2E04A
:1039000039E00A21C4F302524FF0000B0091022A61
:1039100006D058F8040BC117032A09D00AE023E0A7
:1039200008F1070020F00702F2E80201904605E0E6
:1039300000B2C117042A01D140B2C117002906DA2A
:103940000A460021404261EB02012D2202E02205DD
:1039500004D52B228DF80420012203E0E20701D0D8
:103960002022F7E7914657E00A2100E010214FF0AE
:10397000000B00910BE010214FF0000B44F0040409
:103980000827009103E008204FF0000B0090C4F3DB
:103990000252022A05D058F8040B0021032A08D04D
:1039A00008E008F1070020F00702F2E80201904663
:1039B00003E080B2042A00D1C0B24FF00009220710
:1039C0002AD53278702A07D0DDF800C08CF0100CB0
:1039D0005CEA0B0C05D00EE040228DF80420012299
:1039E00008E050EA010306D030238DF804308DF84A
:1039F000052002229146009B83F0080353EA0B0343
:103A00000AD150EA010201D1620705D530228DF8B2
:103A100004204FF001097F1E3278582A04D039A2C1
:103A20000C920CAA02920BE03BA2F9E75B46009ACB
:103A3000FCF752FD0C9B9B5C029A521E0292137083
:103A400050EA0102F2D1029804A9081A00F1200BF1
:103A5000600702D524F4803400E001275F4502DDD1
:103A6000A7EB0B0000E0002000EB0B010090039897
:103A70004944401A0390E00306D453462146179A5E
:103A8000039800F0A9F90544002706E001A8524672
:103A9000C05D179990476D1C7F1C4F45F6DBE00316
:103AA0000CD553462146179A039800F095F9054422
:103AB00004E030205246179990476D1C0099481E2B
:103AC00000900029F5DC08E002980299524600783F
:103AD000491C0291179990476D1CBBF10001ABF195
:103AE000010BF1DC5BE100F065F90544761C3078F0
:103AF00000287FF40DAE19B02846BDE8F08F000015
:103B000009280100303132333435363738396162B3
:103B10006364656600000000303132333435363777
:103B2000383941424344454600000000600700D454
:103B3000062708F1070020F00700F0E8022380467E
:103B400003F0004C5FEA0C0001D097A009E02005CB
:103B500001D596A005E0E00701D095A001E0AFF205
:103B60004C001390307823F0004365280CD006DC1D
:103B7000452809D046281DD047287FD13BE066283C
:103B800018D067287AD136E00021112F01DB1120EF
:103B900000E0781CCDE9000104A90CA8FFF7EEFCB9
:103BA000DDE90D010C9A4FF0000B07F101091092AD
:103BB00000914EE04FF000400097CDE9011004A9BC
:103BC0000CA8FFF7DBFCDDE90D020C9B0F994FF011
:103BD000000B91461093009211B9791C00EB01097A
:103BE000B7EB090003D4C0F1FF3B07F10109A9EBD2
:103BF0000700019042E0012F00DA01270021112F78
:103C000001DD112000E03846CDE9000104A90CA82F
:103C1000FFF7B4FCDDE90D010C9A00914FF0000BA9
:103C2000B946109221070FD4009A4A4503DA91460B
:103C300001E0A9F10109B9F1010F05DD109AA9F11F
:103C40000101515C3029F4D0B84202DA10F1040FBE
:103C500003DA0121CDE9011010E0002803DC8344E0
:103C6000A9EB000102E0411C494500DD8946A0EBBB
:103C70000B00401C01904FF000400290200705D43B
:103C80000198484502DB4FF0FF30019000208DF88D
:103C90004B0002980DF14B07B0F1004F25D00220E8
:103CA0000C902B200D90029800280CDA40420290D4
:103CB0002D200D9007E00A210298FCF7F7FB303128
:103CC000029007F8011D0C99481E0C900029F2DCA7
:103CD00002980028EFD1791E0D980870307800F016
:103CE000200040F0450007F8020D11A8C01BC01DC0
:103CF00002901398007800B1012000EB09010198AF
:103D000001EBE071029801440398401A401E0390B1
:103D1000E00306D453462146179A039800F05CF856
:103D200005441398007818B15246179990476D1CB6
:103D3000E00323D553462146179A039800F04CF828
:103D400005441BE0BBF1000F07DB0098584504DD7C
:103D50001098179910F80B0001E01799302052467F
:103D6000904701980BF1010B401E05F101050190F0
:103D700004D12E205246179990476D1CB9F10001CD
:103D8000A9F10109DEDC05E017F8010B524617998D
:103D900090476D1C0299481E02900029F4DC53469E
:103DA0002146179A03989EE62D0000002B00000084
:103DB000200000002DE9F041044600251E4617466C
:103DC000880404D405E039462020B0476D1C641EE9
:103DD000F9D52846BDE8F0812DE9F04104460025DB
:103DE0001E469046C80301D5302700E020278804EE
:103DF00004D505E041463846B0476D1C641EF9D530
:103E00002846BDE8F081000070B5066804464568A4
:103E10004FF40050B0EB164F01D01BA011E0204929
:103E2000204A25F001008C4201D1114604E01E49D0
:103E3000944201D01DA004E0A04201D3884204D3E3
:103E400021A0FFF76BFB012070BD72B6FDF796FC59
:103E50000020421E810001F1E021C1F88021C1F85B
:103E60008022401C0828F5D34FF0E0210020086193
:103E700088614861FDF77EF986F308881848046078
:103E8000A847002070BD0000537461636B20706F01
:103E9000696E746572206572726F720D0A0000009F
:103EA00000400008008000080000010841707020F8
:103EB00062617365206164647265737320657272F8
:103EC0006F720D0A00000000526573657420616412
:103ED0006472657373206572726F720D0A00000060
:103EE00008ED00E013B54FF6FF7301226946024862
:103EF000FEF73DFD00981CBDD0000020FDF716FB2D
:103F0000FFF76DF8FEF7FAFEFEF7DAFEFEF76CFF3C
:103F1000FEF79EFFFEF744FF0EA0FFF7FFFAFEF745
:103F20003BFE1148FEF7ECF9FCF7B0FBFFF72EFA69
:103F300010B10EA0FFF7F2FAFCF75CFCFCF71EFDD7
:103F40000F4C0025207810B12570FCF701FDFCF71F
:103F5000B9FCF7E70D0A3D3D3D20626F6F74203DCF
:103F60003D3D0D0A0000000088000020773235201A
:103F7000696E6974206572726F720D0A000000002C
:103F800020000020010202030405060708090A0BAD
:103F90000C0D0E0F101000000000000000000102C8
:103FA00003040607080900000000010203040000E2
:103FB000D03F000800000020300000005C35000801
:103FC0000040000830000020900600006C3500081A
:103FD00000000000010000001000000000000000D0
:103FE00000127A0000000000000000000000000045
:103FF00000000000FF0200000000000000000000C0
:04000005080000ED02
:00000001FF
