:020000040800F2
:10400000180E0020054100087F6600088F63000835
:104010007D660008314A0008C96B000800000000F6
:10402000000000000000000000000000836600089F
:10403000774A0008000000008166000885660008D5
:104040001F4100081F4100081F4100081F410008D0
:104050001F4100081F4100081F4100081F410008C0
:104060001F4100081F4100081F4100081F410008B0
:104070001F4100081F410008354A0008414A000856
:104080001F4100081F4100081F4100081F41000890
:104090001F4100081F4100081F4100081F41000880
:1040A0001F4100081F4100081F4100081F41000870
:1040B0001F4100081F410008E96600081F41000871
:1040C0001F4100081F4100081F4100081F41000850
:1040D0001F410008BD6B00081F4100081F41000878
:1040E0001F4100081F4100081F410008DFF810D0E1
:1040F00000F0DAFA004800471D770008AFF30080AF
:10410000180E00200648804706480047FEE7FEE7F5
:10411000FEE7FEE7FEE7FEE7FEE7FEE7FEE7FEE777
:10412000E7660008ED400008202A04DB203A21FA67
:1041300002F00021704721FA02F3D040C2F12002C0
:10414000914008431946704740EA01039B0703D09A
:1041500009E008C9121F08C0042AFAD203E011F8C6
:10416000013B00F8013B521EF9D27047D2B201E088
:1041700000F8012B491EFBD270470022F6E710B56C
:1041800013460A4604461946FFF7F0FF204610BDC5
:1041900030B504460020034600E05B1C934203D286
:1041A000E05CCD5C401BF8D030BD2DE9FE4F804671
:1041B00081EA0300C00F0C46009021F0004123F07B
:1041C0000045B8EB0200A94105D240462146904681
:1041D0001C460B46024623F00040104347D0270DF3
:1041E000C7F30A00C3F30A510290401A0190402815
:1041F0006BDAC3F3130040F4801B0098924620B1A1
:104200000023D2EB030A63EB0B0B01985946C0F174
:104210004002504600F0B1F906460D465046594658
:10422000019A00F0B9F910EB08006141002487EA17
:10423000115284EAE7731A4340D0009A62B3019A9C
:10424000012A4FEA075215DC001B61EB02014FF017
:10425000004202EA0752CDE90042001C41F58011FC
:1042600032462B4600F0B9F903B0BDE8F08F404666
:104270002146F9E7001B61EB0201001C41F58013A8
:1042800000185B412018A2F5001747EB030140EA34
:10429000D570B6196D4111E06D084FEA360645EA52
:1042A000C0754FEA0752001B61EB0201001C41F58B
:1042B000801149084FEA30000019514132462B461F
:1042C00003B0BDE8F04F00F079B90098012240003A
:1042D0000023D0EB020263EBE073009821464FEA23
:1042E000E074B8EB000061EB0401E9E783F0004300
:1042F0005BE781F0004158E72DE9FE4F81EA0304B6
:1043000004F0004421F0004100944FF0000B23F032
:10431000004350EA01045ED052EA03045BD0C3F3C9
:104320000A54C1F30A552C44A4F2F3340194A0FBBF
:104330000254C1F3130141F48011C3F3130343F496
:10434000801301FB024400FB034E840A970A44EAEF
:10435000815447EA8357A4FB076802958D0A05FB41
:1043600007854FEA932C04FB0C542705029D4FEA66
:10437000065847EA1637B5EB08056EEB070C870EB3
:10438000920E47EA811742EA8312A7FB0201B6EBBD
:104390000B0164EB00042B0D43EA0C335E1844EB75
:1043A0001C50DA465146E7FB0201C5F313044FEAFD
:1043B0000B3343EA14534FEA0432019C43EA0603E9
:1043C000A4F10C040294009CCDE900B400F005F9BE
:1043D00003B0BDE8F08F00200146F9E72DE9F04D6C
:1043E00081EA030404F0004B21F0004514464FF02D
:1043F000000A23F0004150EA050220D054EA0102ED
:104400001DD0C5F30A570246C5F31303C1F31300C9
:10441000C1F30A5640F4801543F48013A7EB060855
:10442000101BD64608F2FD3873EB050002D308F1E5
:10443000010801E092185B41B8F1000F03DA002097
:104440000146BDE8F08D00204FF4801106468446F9
:104450000EE0171B73EB050705D3121B63EB050377
:1044600006434CEA010C49084FEA300092185B41C0
:1044700050EA0107EDD152EA030012D082EA0400AB
:1044800083EA0501084305D0101BAB4106D2012287
:10449000002306E000224FF0004302E06FF001022B
:1044A00053101AEB06004CEB085110EB0A0041EBDD
:1044B0000B01BDE8F04D00F081B8000030B5041EDE
:1044C00071F1000404DB4FF00044404264EB010151
:1044D000141E73F1000405DB1C464FF000435242EA
:1044E00063EB0403994208BF904230BD30B50B46E0
:1044F000014600202022012409E021FA02F59D4214
:1045000005D303FA02F5491B04FA02F52844151EE7
:10451000A2F10102F1DC30BD2DE9F05F054600207B
:1045200092469B4688460646814640241BE0284624
:10453000414647462246FFF7F7FD53465A46C01A02
:10454000914110D311461846224600F016F82D1A54
:1045500067EB01084F4622460120002100F00DF8CC
:1045600017EB00094E41201EA4F10104DFDC484690
:1045700031462A464346BDE8F09F202A04DB203A14
:1045800000FA02F1002070479140C2F1200320FAA6
:1045900003F3194390407047202A06DBCB17203ADB
:1045A00041FA02F043EAE07306E041FA02F3D04038
:1045B000C2F12002914008431946704710B5141EFD
:1045C00073F1000408DA401C41F1000192185B41CC
:1045D0001A4301D120F0010010BD2DE9F04D9246A3
:1045E0009B4611B1B1FA81F202E0B0FA80F22032BA
:1045F0009046FFF7C2FF04460F4640EA0A0041EA30
:104600000B0153465A46084313D0114653EA0100A2
:1046100019D0C8F140025046FFF786FD05460E4608
:10462000504659464246FFF7A8FF084305D00120EF
:1046300004E020463946BDE8F08D0020054346EAF7
:10464000E0762C4337430A986305E40AA0EB0800A0
:104650000022FD0A44EA47540A3002D500200146F0
:10466000E9E7010510196941DDE9084500196941CB
:10467000BDE8F04DA2E7C1F30A52C1F3130140F2C5
:10468000FF3341F480119A4202DA0020014670475C
:1046900040F233439A42A2F2334202DC5242FFF725
:1046A00043BDFFF76ABF0000064C074D06E0E06817
:1046B00040F0010394E8070098471034AC42F6D369
:1046C000FFF718FD407800086078000870B51848BA
:1046D000D0E90121914201D016A00CE000210B4647
:1046E000194C02E01D5D5B1C29449342FAD3C26859
:1046F000914203D015A002F069FA11E020686168C8
:104700004FF40052B2EB104F01D015A006E00E4856
:1047100040420844B0F5004F04D315A002F056FA09
:10472000002070BD16A002F051FA012070BD0000FB
:10473000400000206C656E2065727220256C752F1C
:10474000256C750D0A0000000080000873756D204F
:1047500065727220256C752F256C750D0A0000009E
:10476000737461636B20707472206572720D0A003D
:10477000726573657420707472206572720D0A0020
:10478000636865636B206F6B0D0A0000074810B506
:104790000021017041608160C160016104A002F0EC
:1047A00015FABDE8104007A002F010BA4000002042
:1047B0004170705F726573657420696E69740D0A6B
:1047C00000000000696E7075742027737461727444
:1047D0003A6C656E2720746F20626567696E0D0AFA
:1047E000000000002DE9FC41624C634E0027207858
:1047F00040B1012858D002287ED0032833D102F0DE
:104800000DFFB3E002F0DCFE00282CD002F0DEFE4B
:10481000054602F0D1FE01462A465748FFF794FCB0
:1048200002F0C4FE0097ADF8047001AB6A46294659
:10483000514802F0B1FFC0B10098C4E90107E76038
:1048400000F0EAFC206102F05BFE012020704BA02A
:10485000009902F0BBF9BDF80400A84203D2291A5E
:104860004CA002F0B3F9BDE8FC8100F0D5FC616911
:10487000401AB0F57A7FF6D300F0CEFC606129468D
:104880004DA002F0A3F90024002D09D9315D4EA0FE
:1048900002F09CF9641CA4B2AC4201D2102CF5D3F6
:1048A0004BA002F093F9DEE702F08AFE00284AD01E
:1048B00002F08CFE054602F07FFE01462A462E4895
:1048C000FFF742FC02F072FE0097ADF8047006227A
:1048D00040A12948FFF75CFCB0B901AB6A46294604
:1048E000254802F059FF78B13CA0009902F06EF91A
:1048F0000098C4E9010700E02FE0E76000F08CFCBD
:10490000206102F0FDFDAEE729461B4802F002FEE1
:10491000A0682844A0600020E16803E0325C401CED
:10492000114480B2A842F9D3E16000F075FC206127
:10493000D4E90101814296D32DA002F047F902F09B
:10494000BBFD02200DE000F067FC2169401A4EF625
:104950006021884287D92BA006E0FFF7B7FE10B18F
:10496000032020707FE72BA002F030F9BDE8FC4166
:10497000FFF70CBF400000200B0800207374617229
:104980007420726563762C206C656E3D256C750D08
:104990000A0000007761726E3A2069676E6F726577
:1049A00020257520747261696C696E672062797464
:1049B00065730D0A00000000636D6420657272204B
:1049C0006C656E3D25753A00202530325800000098
:1049D0000D0A000073746172743A0000726573749A
:1049E0006172742C206C656E3D256C750D0A00009B
:1049F0007265637620646F6E65206C656E3D256C14
:104A0000750D0A00726563762074696D656F757443
:104A10000D0A0000636865636B206661696C2C2079
:104A20006261636B20746F20696E69740D0A000007
:104A3000FEE70000014800F01BB9000088010020DB
:104A4000014800F015B900004401002030B590F88D
:104A500040500124AC40C56B6C60046863604368DF
:104A6000102B036803D099600068C26030BD9A6063
:104A70000068C16030BD704772B6FEE7064900208D
:104A8000C8610648016941F004010161016941F012
:104A90004001016170470000D00100200020024069
:104AA000064A0021D16106490A6942F002020A6100
:104AB0004861086940F0400008617047D00100205B
:104AC00000200240044B0022DA61044A136943F0DB
:104AD0000103136101807047D001002000200240D3
:104AE00014480022C168CB06134904D5CA6942F0B4
:104AF0000202CA611022C3685B0705D5CB6943F087
:104B00000103CB6142F00402C369DB0707D0CB6924
:104B100043F00403CB61C16921F00101C161A2F539
:104B20008071013901D0C2607047C16921F0010173
:104B3000C161704700200240D001002070B50546D9
:104B400000F06AFB0646114C09E0681C07D025B14D
:104B500000F062FB801BA84201D9032070BDE06811
:104B6000C007F2D1E068800601D52020E060E0684F
:104B7000C00605D4E069C00702D1E068400703D54C
:104B8000FFF7AEFF012070BD002070BD0020024085
:104B900010B590F821100022022905D0042181636C
:104BA00080F82020012010BD01680B6823F00E035F
:104BB0000B6001680B6823F001030B6090F8403034
:104BC000C46B012101FA03F3636080F8211080F8BF
:104BD0002020104610BD000010B590F821100024D0
:104BE000022903D00421816301243DE001680A68A1
:104BF00022F00E020A6001680A6822F001020A60CF
:104C00001A4A0168914201D1012121E0174A143268
:104C1000914201D110211BE0144A2832914201D166
:104C2000891515E0114A3C32914201D189140FE0F7
:104C30000E4A5032914202D14FF4803108E00B4AC3
:104C40006432914202D14FF4801101E04FF0807143
:104C5000064A083A5160012180F82110002180F8AD
:104C60002010416B01B18847204610BD080002406A
:104C70002DE9F05FC16B0C6801680B68D0F840C08B
:104C8000042202FA0CF2494DDFF824A1494E4A4FA2
:104C9000DFF828B1DFF828E122422CD05A072AD5C4
:104CA0000A68920603D40A6822F004020A600168C6
:104CB000A94201D1042219E0514501D1402215E059
:104CC000B14202D14FF4806210E0B94202D14FF4F8
:104CD00080420BE0594502D14FF4802206E0714535
:104CE00002D14FF4800201E04FF080622F49083971
:104CF0004A60C16A3BE04FF0020808FA0CF818EA73
:104D0000040F4FF000094FF0010235D05FEA8378BD
:104D100032D50B689B0605D40B6823F00A030B60A1
:104D200080F821200168A94201D1022219E05145F1
:104D300001D1202215E0B14202D14FF4007210E0FF
:104D4000B94202D14FF400520BE0594502D14FF461
:104D5000003206E0714502D14FF4001201E04FF03D
:104D60000072124908394A6080F82090816A00294F
:104D70001AD0BDE8F05F0847082505FA0CF5254272
:104D800012D01B0710D50B6823F00E030B6090F8B0
:104D90004010C36B02FA01F15960826380F8212050
:104DA00080F82090016BE2E7BDE8F09F0800024028
:104DB0001C00024030000240440002405800024003
:104DC0006C00024030B528B308C8134914221944B6
:104DD000B1FBF2F18900C16310498163022141777F
:104DE0001A6843F6F0718A43D0E900142143D0E9F0
:104DF00002452C43214304692143446921438469CA
:104E00002143114319600021416301224277017758
:104E1000084630BD012030BDF8FFFDBF0000024054
:104E200070B5044690F82000002501280CD0012020
:104E300084F8200094F821600020012E06D084F828
:104E400020000225284670BD022070BD022684F88D
:104E50002160A0632068066826F0010606602046EF
:104E6000FFF7F4FDE06A00282068016802D041F0F5
:104E70000E0106E021F0040101602068016841F0A4
:104E80000A0101602068016841F001010160D9E771
:104E9000064810B54FF0FF31016100220261C16088
:104EA000C26000F0F9F9002010BD000000100240BF
:104EB0002DE9F047054626480F460126017E0129C7
:104EC0000FD00121814601762868DFF888804CF2F6
:104ED0005034022808D0A2462046FFF72FFEA8B182
:104EE00031E00220BDE8F0872046FFF727FE08BB2F
:104EF0000120FFF7C3FD2046FFF720FED8F8101071
:104F0000064621F00401C8F810101CE04FF0FF30F5
:104F10003860AC6811E02046FFF7C2FD5046FFF74D
:104F20000DFED8F81010060021F00201C8F810108C
:104F300001D03C6007E004F58064D5E9020100EB94
:104F40008120A042E7D8002189F818103046C9E72F
:104F5000D0010020002002400348016941F0800197
:104F60000161002070470000002002402DE9F05F41
:104F700007461C4888460024017E15461E46012926
:104F800009D00121814601764CF2503A5046FFF794
:104F9000D5FD18B122E00220BDE8F09F012F02D01C
:104FA000022F00D00427D346DFF83CA02201284678
:104FB0003146FFF7B9F881B208EB4400FFF782FDF4
:104FC0005846FFF7BBFDDAF8102022F00102CAF8BC
:104FD000102018B9641CE4B2BC42E7D3002289F85F
:104FE0001820D9E7D0010020002002400649002007
:104FF0000A69120607D5054A4A60054A4A600969E6
:10500000090600D5012070470020024023016745B2
:10501000AB89EFCD2DE9F84FDFF8B8910024A9F165
:10502000040B23460F2709F1040AABF1040EC9E073
:105030000125A5402A40AA427DD1674ED1F804C07F
:10504000ACEB0608B44532D014DCBCF1030F3AD007
:1050500009DCBCF1000F2AD0BCF1010F1CD0BCF15F
:10506000020F31D11DE0BCF1110F17D0BCF1120FAE
:105070002AD119E0B8F5881F19D006DCB8F5803FB1
:1050800015D0B8F5801F1FD111E0B8F5001F0ED064
:10509000B8F5041F18D10AE0CB6815E0CB681B1DDA
:1050A00012E0CB6808330FE0CB680C330CE08B6860
:1050B0002BB1012B4FF0080303D0456104E004231A
:1050C00002E0056100E00023FF2A01D8064601E066
:1050D00000F104064FEA840501D9A5F12005D6F8B0
:1050E000008007FA05FC28EA0C0803FA05F548EAEF
:1050F0000508C6F800804D68ED0062D5374DAE69F1
:1051000046F00106AE61AD6924F0030605F0010525
:105110000095334D06EB050CDCF80850A607360F5A
:1051200007FA06F825EA0805DFF8B880404503D1FC
:105130004FF0000817E044E0DFF8AC80404502D1B2
:105140004FF001080FE0DFF8A480404502D14FF096
:10515000020808E0DFF89880404502D14FF00308CC
:1051600001E04FF0040808FA06F848EA0508CCF810
:1051700008804D68D9F80060ED024D4601D5164310
:1051800000E096432E604D68DAF80060AD025546A7
:1051900001D5164300E096432E604D68DBF80060B1
:1051A000AD035D4601D5164300E096432E604D6881
:1051B000DEF80060ED03754601D5164300E0964326
:1051C0002E60641C0D682A46E5407FF431AFBDE8CF
:1051D000F88F000008040140000011100010024088
:1051E0000000014000080140000C01400010014097
:1051F000001401408068084000D001207047C26858
:1052000021EA02030A4043EA0241016170470AB100
:10521000016170470904FBE701488068704700009E
:1052200004000020024881680278114481607047C0
:1052300004000020074810B5016841F0100101602A
:10524000032000F077F80F2000F006F800F026F8B1
:10525000002010BD0020024070B50D4D04464FF4F3
:105260007A712878B1FBF0F00A490968B1FBF0F0D7
:1052700000F0DEFB48B9102C07D200222146501E58
:1052800000F038F800206C6070BD012070BD000097
:105290000400002010000020704700000C4808B5F2
:1052A000816941F001018161816901F00101009191
:1052B000C16941F08051C161C06900F08050009027
:1052C0000448416821F0E06141F00071416008BD8F
:1052D0000010024000000140002809DB00F01F021E
:1052E000012191404009800000F1E020C0F8001148
:1052F00070470000F0B40E4B1B680C46C3F302234A
:10530000C3F10705042D00D90425191D072901D271
:10531000002300E0DB1E012606FA05F1491E2140AC
:1053200099409E40761E16403143F0BC01F05EBCB1
:105330000CED00E0064900F0070208684FF6FF0395
:10534000184040EA0220034A1043086070470000FA
:105350000CED00E00000FA052DE9F0470F460500CE
:1053600061D0434E306800F00700B84209D230687F
:1053700020F0070038433060306800F00700B84282
:1053800051D128683B4C810712D5400703D560688E
:1053900040F4E06060602878000703D5606840F45E
:1053A000605060606068A96820F0F00008436060A9
:1053B0002878C00728D06868012810D02168022802
:1053C00010D0890700292EDA616821F0030101431A
:1053D0006160FFF721FF804641F288390DE02168C6
:1053E0008903EFE78901EDE7FFF716FFA0EB08015E
:1053F000494502D90320BDE8F0876068696800F07C
:105400000C00B0EB810FEFD1306800F00700B8421C
:105410000BD9306820F0070038433060306800F066
:105420000700B84201D00120E5E72878400705D5FC
:105430006068E96820F4E06008436060287800074D
:1054400006D56068296920F4605040EAC1006060B8
:1054500000F0A6F86168084AC1F30311515CC84026
:105460000649086006480068FFF7F6FE0020C2E71C
:1054700000200240001002402678000810000020A2
:10548000080000202DE9F041FFF7C6FE304C05462C
:10549000206840F00100206005E000BFFFF7BCFE7F
:1054A000401B022843D820688007F7D5206820F0E9
:1054B000F80040F080002060FFF7AEFE00250646B1
:1054C000656041F2883704E0FFF7A6FE801BB84212
:1054D0002DD8606810F00C0FF6D11F491D480860E8
:1054E0001E480068FFF7B8FE10B10120BDE8F0814A
:1054F000FFF792FE0646206820F08070206004E0EE
:10550000FFF78AFE801B022811D820688001F7D49B
:105510006560FFF781FE0646206820F410202060B9
:1055200007E000BFFFF778FE801B642801D9032045
:10553000DCE720688003F5D4206820F48020206018
:10554000606A40F080706062A5600020CEE70000D5
:105550000010024000127A00100000200800002015
:105560000448054900684968044AC1F30221515CB6
:10557000C840704710000020001002403678000834
:105580000448054900684968044AC1F3C221515CD6
:10559000C840704710000020001002403678000814
:1055A0000E4A51680E4801F00C03042B11D0082B51
:1055B0000FD10C48C1F38343C903C05C0AD55168BD
:1055C000084AC1F34041921E515C054A5043B0FB6A
:1055D000F1F0704704494843704700000010024052
:1055E00000127A001678000800093D002DE9F84FF6
:1055F000040070D02078C04DC00749D06868C0F35F
:105600008100012807D06868C0F38100022809D111
:105610006868C00306D52868800339D5606800280B
:10562000E7D035E06068B0F5803F0BD010B1B0F541
:10563000A02F11D0286820F480302860286820F43A
:10564000802002E0286840F480302860606890B1D3
:10565000FFF7E2FD06460AE0286840F48020286053
:10566000F0E700BFFFF7D8FD801B642873D82868D7
:105670008003F7D50CE0FFF7CFFD064605E000BF3D
:10568000FFF7CAFD801B6428F0D828688003F7D490
:1056900020789A4E80074FF001094FF0000839D565
:1056A000686810F00C0F07D06868C0F3810002280A
:1056B00009D16868C00306D42868800714D520691A
:1056C000012808D110E02069B0B1C6F80090FFF7BA
:1056D000A3FD074605E00AE1FFF79EFDC01B022877
:1056E000C4D828688007F7D52868616920F0F800D9
:1056F00040EAC10028600DE0C6F80080FFF78CFD8D
:10570000074604E0FFF788FDC01B022823D828685D
:105710008007F7D4207800072CD57948A169D9B142
:10572000C0F80090FFF778FD074604E0FFF774FD2E
:10573000C01B02280FD8686A8007F7D571484FF45C
:10574000FA510068B0FBF1F0009000BF0098411ED4
:105750000091FAD20EE080E0C0F80080FFF75CFD17
:10576000074604E0FFF758FDC01B022875D8686A99
:105770008007F7D42078400760D5E8690027C0008B
:1057800008D4E86940F08050E861E869012700F03A
:10579000805000905C480168C90513D401688346B5
:1057A00041F480710160FFF737FD824606E000BFDB
:1057B000FFF732FDA0EB0A0064284ED8DBF80000AA
:1057C000C005F5D5E06801280AD008B1052813D036
:1057D000286A20F001002862286A20F0040002E014
:1057E000286A40F001002862E06841F2883B98B1E5
:1057F000FFF712FD82460BE0286A40F004002862A1
:10580000EEE700BFFFF708FDA0EB0A0159455AD8A3
:10581000286A8007F6D50CE0FFF7FEFC824605E01B
:10582000FFF7FAFCA0EB0A0159454CD8286A80071B
:10583000F6D41FB1E86920F08050E861E06988B3D0
:105840006968C1F38101022944D00228C6F860804A
:1058500004D0FFF7E1FC044638E034E0FFF7DCFC5D
:10586000074604E0FFF7D8FCC01B02282BD82868A5
:105870008001F7D4206AB0F5803F05D16868A1683F
:1058800020F4003008436860D4E9080108436968DF
:1058900021F4741108436860C6F86090FFF7BCFCFF
:1058A000044606E025E000BFFFF7B6FC001B022817
:1058B00009D828688001F7D51BE000BFFFF7ACFCD2
:1058C000001B022802D90320BDE8F88F2868800158
:1058D000F4D40EE00128F7D06868226A00F4803121
:1058E000914204D1616A00F47010884201D0012015
:1058F000EAE70020E8E70000001002400000424212
:1059000080044242100000200070004070B5040086
:1059100009D0606A002540B125616561A56294F8EF
:10592000510040B10CE0012070BD6068B0F5827F8D
:10593000F4D0E561F2E784F85050204600F040F8DA
:10594000022084F851002068016821F040010160C4
:10595000A088218900F4827001F404410843A189E0
:1059600001F400610843217C01F002010843217D1C
:1059700001F001010843218B01F400710843217FEC
:1059800001F03801084394F8201001F08001084329
:10599000218D01F40051084321680860A0690421A9
:1059A00001EA1040216848602068C16921F4006163
:1059B000C1616565012084F85100002070BD0000C0
:1059C00030B585B0002400940194029403940068DB
:1059D0001449884223D11448816941F4805181617E
:1059E000816901F480510491816941F00401816170
:1059F00080690E4D00F004000490A0200090022069
:105A000001900320039069462846FFF703FB4020DE
:105A1000CDE90004694628460294FFF7FBFA05B079
:105A200030BD00000030014000100240000801407D
:105A300010B5401EB0F1807F01D3012010BD4FF0A2
:105A4000E02460610F21601701F0D0F80020A06110
:105A500007202061002010BD7047704770B590F896
:105A60003C20012A26D0012480F83C40022280F804
:105A70003D2003685A689D6822F070060A68324328
:105A80005A600D4B02689A4208D0B2F1804F05D09F
:105A90000A4B9A4202D00A4B9A4204D1496825F037
:105AA00080031943916080F83D40002180F83C104C
:105AB000084670BD022070BD002C0140000400406B
:105AC0000008004010B5040003D094F83D0010B168
:105AD00007E0012010BD002084F83C00204600F0C3
:105AE0001FF8022084F83D00211D206800F002FE0E
:105AF000012084F8460084F83E0084F83F0084F8D2
:105B0000400084F8410084F8420084F8430084F89F
:105B1000440084F8450084F83D00002010BD0000DA
:105B200008B500680B49884212D10B48C16941F0A1
:105B30000401C161C069002200F00400009003214B
:105B40001E20FFF7D7FBBDE808401E20FFF7C4BBAF
:105B500008BD0000000800400010024090F83D1011
:105B6000012901D001207047022180F83D10016811
:105B7000CA6842F00102CA6000680B49884208D036
:105B8000B0F1804F05D00949884202D008498842C7
:105B900004D1816801F00701062903D0016841F0B2
:105BA0000101016000207047002C0140000400400A
:105BB0000008004070B5044690F83C00002501281C
:105BC00017D0012684F83C60022084F83D0020684C
:105BD000826822F0770222F47F42826008685028AF
:105BE00038D00DDC20284FD005DC90B3102811D11F
:105BF0004AE0022070BD302846D040280AD13BE060
:105C000060282FD070280DD0B0F5805F03D0B0F59C
:105C1000005F12D0012584F83D60002084F83C002C
:105C2000284670BDCB68D1E90121206800F09EFDB7
:105C30002068816841F0770109E0CB68D1E9012152
:105C4000206800F093FD2068816841F48041816004
:105C5000E1E719E0CA684968206800F099FD502121
:105C6000206806E0CA684968206800F0A2FD60214B
:105C7000206800F085FDCEE7CA684968206800F01A
:105C800087FD40212068F4E7226801461046F0E7CE
:105C900070472DE9F04104460068C66805694FF079
:105CA0000007A90713D5B10711D5F91E016101201D
:105CB0002077206880698007204602D0FFF7E8FF40
:105CC00004E000F07EF8204600F07CF827776807B3
:105CD00016D5700714D521686FF004000861022002
:105CE00020772068806910F4407F204602D0FFF7BB
:105CF000CFFF04E000F065F8204600F063F8277756
:105D0000280715D5300713D521686FF00800086102
:105D1000042020772068C0698007204602D0FFF762
:105D2000B7FF04E000F04DF8204600F04BF827776D
:105D3000E80616D5F00614D521686FF0100008614A
:105D4000082020772068C06910F4407F204602D0E8
:105D5000FFF79EFF04E000F034F8204600F032F830
:105D60002777E80708D0F00706D021686FF0010018
:105D70000861204600F028F8280608D5300606D528
:105D800021686FF0800008612046FFF765FE680615
:105D900008D5700606D521686FF0400008612046DE
:105DA00000F038F8A8060AD5B00608D521686FF0CB
:105DB000200008612046BDE8F041FFF74EBEBDE877
:105DC000F08170477047000010B500680E498842A6
:105DD00018D100F0EBFA012000F0DAFA0B4C08B908
:105DE00000202070202000F0D3FA20B9402000F0DD
:105DF000CFFA002806D02078002803D104490120DA
:105E00002070087010BD0000000800400000002055
:105E100020000020704738B5044690F84200202842
:105E200001D0022038BD51B14AB1012020630020C9
:105E30006063204600F040FE216B012901D0012063
:105E400038BD21680A684968009121680C3151E821
:105E5000002F42F0100241E80023002BF5D138BD9D
:105E6000F8B51D4B02689A4234D1406B012831D0FD
:105E70001A4C267820780D4680F0010020701848D2
:105E800000680168406800902078164F00EBC00160
:105E900001EB4020C11940F209221148FFF7BBFF76
:105EA000E5802089284420816089401C6081A5818B
:105EB000B5F5807F02D0E08900B9E58106EBC60028
:105EC00000EB4620C1192A460748FEF73DF9A58098
:105ED00001206070F8BD000000380140240000205F
:105EE000FC000020F00100200206002000680F499D
:105EF00082B0884218D10E49088A401C08820D4899
:105F00000068026842680092026840680090087861
:105F100040F2092200EBC00101EB4020064902B02B
:105F200001440448FFF777BF02B0704700380140D2
:105F300024000020FC000020F0010020F8B50168DA
:105F400004460868CA684B6910F00F0F4FF000054F
:105F500059D003F0010602F49077374365D0C107AA
:105F600005D0D10503D5616C41F0010161644107A1
:105F700005D5D90703D0616C41F002016164810746
:105F800005D5D90703D0616C41F0040161640107B4
:105F900007D502F02001314303D0616C41F00801C4
:105FA0006164616C00293AD0800604D5900602D560
:105FB000204600F0C4FC20684069616CC0F380108A
:105FC000090700D460B3204600F084FC20684069D3
:105FD000400621D52068143050E8001F21F0400110
:105FE00040E80012002AF5D1E06BA8B16D49416389
:105FF000E06BFEF7F1FD002811D0E06B416B01B0C2
:10600000BDE8F040084783060FD593060DD520461E
:10601000BDE8F84000F093BC2046FFF767FFF8BDED
:106020002046FFF763FF6564F8BD266B2023012E31
:106030007CD1C6067AD5D60678D50868486800901F
:1060400048694FF00206400640D5E16B0868406899
:106050000004000CE8D0A28D8242E5D9E085886971
:1060600020282DD020680C3050E8001F21F48071CA
:1060700040E80012002AF5D12068143050E8001FD3
:1060800021F0010140E80012002AF5D12068143007
:1060900050E8001F21F0400140E80012002AF5D12D
:1060A00084F84230256320680C3050E8001F21F04E
:1060B000100140E80012002AF5D1E06BFEF768FD00
:1060C0006663A08DE18D401A81B22AE0A08DE18D3A
:1060D000401A81B2E08D0028A6D00029A4D0226801
:1060E0000C3252E8000F20F4907042E80007002FB5
:1060F000F5D12068143050E8002F22F0010240E86A
:106100000027002FF5D184F84230256320680C3039
:1061100050E8002F22F0100240E80023002BF5D1B8
:1061200066632046FFF79CFEF8BDFFE705062BD50A
:10613000150629D594F841002128F5D1A068B0F5BD
:10614000805F01D12069B0B1206A411C21622168C1
:1061500000784860E08C401E0004000CE084E3D12D
:106160002068C16821F08001C1602068C16841F0E9
:106170004001C160D8E7206A0088C0F30800486089
:10618000206A801C2062E5E74006CDD55006CBD5BD
:10619000CA68204622F04002CA6084F8413000F00C
:1061A000F5F8C1E7D767000870B5040004D094F88B
:1061B0004100002510B106E0012070BD84F8405078
:1061C000204600F023F8242084F841002068C168AC
:1061D00021F40051C160204600F012FC20680169E2
:1061E00021F4904101612068416921F02A01416157
:1061F0002068C16841F40051C1606564202084F8C2
:10620000410084F842006563002070BDF0B585B0A0
:1062100000240646009401940294039400682D49DA
:10622000884254D12C48816941F48041816181695F
:1062300001F480410491816941F004018161806928
:10624000264D00F0040004904FF4007000900220EE
:1062500001900320039069462846FEF7DBFE2815CF
:10626000CDE90004694628460294FEF7D3FE1D4D91
:106270001B488027C5E90004C5E902472C616C6111
:10628000AC612846EC61FEF79DFD08B1FEF7F4FB1A
:10629000F5636E62134D12484435143801C5102061
:1062A00091C5104845F8104944306C61AC61EC610F
:1062B000FEF788FD08B1FEF7DFFBB563002202217F
:1062C00025206E62FFF716F82520FFF705F805B0C8
:1062D000F0BD0000003801400010024000080140FD
:1062E0005800024044010020704770472DE9F843F0
:1062F000044690F84100984616460D46202802D0E4
:106300000220BDE8F88385B17EB1002060642120C1
:1063100084F84100FEF780FFA6848146E684A068E9
:106320002027B0F5805F02D003E00120E9E7206973
:1063300010B12E4600250EE000260CE080212046FC
:1063400000F002FCA8B9C6B116F8010B216848603C
:10635000E08C401EE084E08C4B464FF00002CDF80C
:1063600000800028EAD14FF04001204600F0ECFB0D
:1063700040B184F841700320C3E735F8020BC0F345
:106380000800E3E784F841700020BAE77047FEE7B1
:10639000054AD178014205D0012901D08143D1704D
:1063A0000120704700207047140000202DE9F041C3
:1063B000FEF732FF04464FF480513348FEF71AFFD0
:1063C00030B1002031490A78904203D14C6008E096
:1063D0000120F7E74B68E31A142B02D34A700870C8
:1063E000F4E7087802250423CA78012804D022F0B3
:1063F0000102CA7038B10AE042F00102CA704A785C
:106400002AB9CD7003E04A78012A00D1CB708E788A
:106410000022052E36D2DFE806F0030717292B00ED
:1064200001280FD188700CE050B18868201AB0F5AF
:10643000FA6F07D3C87840F02000C8708B7000E076
:106440008D708C60BDE8F081012808D08868201A22
:10645000C828F7D3C87840F00800C87012E0C878A0
:1064600040F01000C87003208870EBE750B1E9E7F6
:1064700040B18868201A6428E4D3C87840F040000E
:10648000C870DEE78A70DDE7000C014014000020D0
:106490000D4808B5416941F00101416140690022A0
:1064A00000F00100009002210E20FEF723FF0E20D5
:1064B000FEF712FF002202210F20FEF71BFFBDE8AE
:1064C00008400F20FEF708BF001002402DE9F04100
:1064D00086B000252C4800950195029503958169A9
:1064E00041F010018161816901F01001049181691D
:1064F00041F020018161816901F0200104918169ED
:1065000041F004018161816901F004010491816914
:1065100041F00801816180691C4F00F0080004907F
:10652000002204213846FEF772FE0122102138466F
:10653000FEF76DFEDFF858804FF47066002231469A
:106540004046FEF764FE042001248DE8310002205D
:10655000039069463846FEF75DFD1020CDE9000442
:106560000320CDE9024069463846FEF753FD11206D
:106570000096CDE90104694640460394FEF74AFDC2
:1065800006B0BDE8F08100000010024000080140A4
:10659000000C0140104810B50E4901604FF48271A3
:1065A000416000218160C1604FF400720161C0E967
:1065B00005121022C0E90721416281620A21C162ED
:1065C000FFF7A4F9002803D0BDE81040FEF754BA45
:1065D00010BD0000003001405C00002010B586B006
:1065E00000241748009401940294039404941349DE
:1065F000059401604721C0E9011440F2E731C0E988
:1066000003148461FFF75EFA08B1FEF735FA4FF420
:106610008050009069460A48FFF7CCFA08B1FEF7AF
:106620002BFA049404A906480594FFF717FA0028EA
:1066300001D0FEF721FA06B010BD000000080040AE
:10664000B40000200C4810B50A4901604FF41651FF
:106650004160002181600C22C160C0E904128161A7
:10666000C161FFF7A1FD002803D0BDE81040FEF78F
:1066700003BA10BD00380140FC000020FEE7FEE731
:1066800070477047FEF7CEBD30B58FB02821684601
:10669000FDF773FD14210AA8FDF76FFD0121080421
:1066A000CDE900100024029402250491CDE90750A1
:1066B0004FF4E01009906846FEF798FF08B172B6F3
:1066C000FEE70F20CDE90A054FF48060CDE90C40CC
:1066D00002210AA80E94FEF73FFE002801D072B6F0
:1066E000FEE70FB030BD70470148FFF7D2BA000097
:1066F000B4000020F0B50268194B1A4C1A4D4FF047
:106700008047984205D0B84203D0A04201D0A842A9
:1067100003D122F070064A683243984205D0B8424D
:1067200003D0A04201D0A84203D122F44074CA6829
:1067300022434C6922F08002224302608A68C262CE
:106740000A688262984201D10969016301214161AD
:106750000169C90703D0016921F001010161F0BDA0
:10676000002C0140000400400008004010B584687F
:1067700042EA032224F47F440A432243826010BD8C
:10678000826822F070020A4342F00701816070477C
:1067900010B5036A046A24F001040462846924F0D9
:1067A000F00444EA021423F00A020A4384610262FC
:1067B00010BD10B5036A046A24F0100404628469F1
:1067C00023F0A00324F4704444EA023243EA0111A6
:1067D0008261016210BD10B5406A0021C185C1848B
:1067E000FFF784FB10BD70B5446A2068406994F8D7
:1067F0004110C0F3C0100025212904D118B1E5844F
:10680000204600F08EF82068406994F84210C0F3EA
:106810008010222904D118B1E585204600F05AF8ED
:10682000606C40F0100060642046FFF75FFB70BDB5
:1068300010B50146406A096809684FF000028906F0
:106840002ED4C28501680C3151E8003F23F48073D7
:1068500041E80034002CF5D10168143151E8003FC3
:1068600023F0010341E80034002CF5D10168143114
:1068700051E8003F23F0400341E80034002CF5D1FB
:10688000202180F84210016B012909D101680C31E7
:1068900051E8003F23F0100341E80034002CF5D10B
:1068A0004263016B012902D0FFF71EFD10BD818DEF
:1068B000FFF7D6FA10BD10B5406A01214163016BA4
:1068C000012902D0FFF711FD10BD818D4908FFF7A6
:1068D000C7FA10BD01680C3151E8002F22F4907204
:1068E00041E80023002BF5D10168143151E8002F55
:1068F00022F0010241E80023002BF5D1016B0129B0
:1069000009D101680C3151E8002F22F0100241E852
:106910000023002BF5D1202180F8421000210163D3
:10692000704701680C3151E8002F22F0C00241E8A5
:106930000023002BF5D1202180F84110704708B5C5
:1069400090F84210222901D0022008BD82684FF43D
:1069500080539A4201D1016921B1816A9A421BD0C8
:106960004AB10AE00268816A5268C2F308020A80EA
:10697000816A891C08E0026972B10268526802F0FB
:106980007F020A70816A491C8162C18D491E090417
:10699000090CC18503D01BE002685268F1E7016869
:1069A000CA6822F02002CA600168CA6822F48072B4
:1069B000CA6001684A6922F001024A61202180F818
:1069C000421000214163026B012A03D0FFF78CFCC7
:1069D000002008BD016301680C3151E8002F22F04E
:1069E000100241E80023002BF5D101680A68D206A5
:1069F00002D50A6849680091818DFFF731FAE7E70F
:106A000070B5044600680169E26821F44051114301
:106A100001612169A0680843616908432168CA6867
:106A200041F20C639A430243CA6020684169A2693B
:106A300021F44071114341611E492068884202D10E
:106A4000FEF79EFD01E0FEF78BFD00EBC00101EBC0
:106A50000012606864218000B2FBF0F3B3FBF1F335
:106A60006FF018067343B2FBF0F5B2FBF0F605EBDE
:106A70008305322303EB0515B5FBF1F5B6FBF1F603
:106A800005F0F00505EB0615B2FBF0F6B2FBF0F0F1
:106A9000B0FBF1F06FF01802504306EB800003EBFF
:106AA0000010B0FBF1F0216800F00F00284488606E
:106AB00070BD00000038014038B58162044682850F
:106AC000002013466064222284F84220E56B1B4AB2
:106AD000AA62E56B1A4AEA62E56B1A4A2A63E26B1C
:106AE00050630A462168E06B091DFEF799F920689A
:106AF000016840680090206948B120680C3050E877
:106B0000001F41F4807140E80012002AF5D120688E
:106B1000143050E8001F41F0010140E80012002A43
:106B2000F5D12068143050E8001F41F0400140E8E2
:106B30000012002AF5D1002038BD0000316800089D
:106B4000B7680008E76700082DE9F843984617463C
:106B50000D460446089E24E0701C22D0FEF75CFB24
:106B6000A0EB0800B0421AD8CEB12068C16849072E
:106B700017D5802D15D0402D13D00168C9430907C2
:106B80000FD401680025406800902046FFF7A2FE60
:106B90000820606484F840500120BDE8F883032099
:106BA000FBE72068006835EA000004D00020B84206
:106BB000D2D00020F1E70120F9E700000148FFF7FB
:106BC000BDB90000FC000020FEE700000FB4054B3B
:106BD00010B503A9044A029800F0EAF810BC5DF869
:106BE00014FB000005770008580000200907090E73
:106BF000002804DB00F1E02080F80014704700F06A
:106C00000F0000F1E02080F8141D704702E008C872
:106C1000121F08C1002AFAD170477047002001E016
:106C200001C1121F002AFBD1704700002DE9FF5F50
:106C300082B00021DDE90430020DDDF840B00343ED
:106C400018D044F61050A2F2FF32424315141198A6
:106C500001281FD0A5EB0B00401C5FEA000A4FF093
:106C600000064E4FDFF83891B046504615D5CAF1B0
:106C7000000413E0119801244AA3012801D16FEA0E
:106C80000B010298119AC0E90031C0E9024206B036
:106C9000BDE8F09FCBF10000DFE704460021404A49
:106CA000491842EB0450CDE9001012E0E00707D08C
:106CB00032463B4640464946FDF71EFB8046894624
:106CC00032463B4610461946FDF716FB06460F4670
:106CD0006410002CEAD1DDE90401DDE90023BAF1FA
:106CE000000F06DAFDF708FB42464B46FDF704FBB2
:106CF00005E0FDF773FB42464B46FDF76FFB04468C
:106D00000E460022284BFDF7D9FB03D84FF0FF3089
:106D1000014607E00022254B20463146FDF745FAA3
:106D2000FDF7A9FC102409E0002C0ADB0A2200234D
:106D3000FDF7F2FB039B30321A55641E50EA010244
:106D4000F2D1641C039AC4F111031444119A012A6C
:106D500003D0012208430DD10AE0084304D00020EB
:106D60004FF0110B119072E7A3EB0B056D1E0DE0B8
:106D70005B4504DD4FF0000205F1010504E003DA94
:106D80004FF00002A5F10105002AECD002981199FC
:106D9000C0E90231C0E9004579E700000000144075
:106DA0000000F03F300000000000F0430000E03F32
:106DB0002DE9FF4F95B09A46884606460025EEE13C
:106DC000252877D100242746F94A0121039400E0C1
:106DD000044316F8013F203B01FA03F01042F7D1BB
:106DE00030782A2811D06FF02F033078A0F13002CC
:106DF000092A16D8039A44F0020402EB820203EB3C
:106E000042021044761C0390EFE758F8042B0392DB
:106E1000002A03DA504244F40054039044F0020480
:106E2000761C30782E2816D116F8010F44F0040491
:106E30002A280DD06FF02F023078A0F13003092BF3
:106E400009D807EB870302EB4303C718761CF3E767
:106E500058F8047B761C30786C280FD006DC4C2860
:106E600017D068280DD06A2814D104E0742810D0F7
:106E70007A280FD10DE044F400140AE044F48014A1
:106E800001E044F440147278824202D104F5801487
:106E9000761C761C307866280BD013DC582877D007
:106EA00009DC002875D04528F6D04628F4D04728BC
:106EB0001AD193E118E0632835D0642879D0652889
:106EC00012D18BE1702873D008DC6728F1D06928D3
:106ED0006FD06E280DD06F2806D1ACE073282CD06F
:106EE000752874D0782853D05246179990476D1C56
:106EF00054E1C4F30250022809D003280DD0D8F879
:106F0000001004280DD00D6008F1040846E1D8F8FF
:106F10000010EA17C1E90052F6E7D8F800100D801A
:106F2000F2E70D70F0E718F8041B8DF80010002050
:106F30008DF80100EB46012003E058F804BB4FF048
:106F4000FF3061074FF0000102D40DE009F10101AB
:106F50008946B9420FDA8145F8DB1BF80910002990
:106F6000F4D108E009F1010189468142FADB1BF8FE
:106F700009100029F6D103985346A0EB09072146D2
:106F80003846179A00F080FA284400EB090507E01C
:106F900044E008E10DE01BF8010B524617999047B9
:106FA000B9F10109F7D2534621463846179AF2E063
:106FB00039E00A21C4F302524FF0000B0091022A7B
:106FC00006D058F8040BC117032A09D00AE023E0C1
:106FD00008F1070020F00702F2E80201904605E000
:106FE00000B2C117042A01D140B2C117002906DA44
:106FF0000A460021404261EB02012D2202E02205F7
:1070000004D52B228DF80420012203E0E20701D0F1
:107010002022F7E7914657E00A2100E010214FF0C7
:10702000000B00910BE010214FF0000B44F0040422
:107030000827009103E008204FF0000B0090C4F3F4
:107040000252022A05D058F8040B0021032A08D066
:1070500008E008F1070020F00702F2E8020190467C
:1070600003E080B2042A00D1C0B24FF00009220729
:107070002AD53278702A07D0DDF800C08CF0100CC9
:107080005CEA0B0C05D00EE040228DF804200122B2
:1070900008E050EA010306D030238DF804308DF863
:1070A000052002229146009B83F0080353EA0B035C
:1070B0000AD150EA010201D1620705D530228DF8CC
:1070C00004204FF001097F1E3278582A04D039A2DB
:1070D0000C920CAA02920BE03BA2F9E75B46009AE5
:1070E000FDF71AFA0C9B9B5C029A521E02921370D7
:1070F00050EA0102F2D1029804A9081A00F1200B0B
:10710000600702D524F4803400E001275F4502DDEA
:10711000A7EB0B0000E0002000EB0B0100900398B0
:107120004944401A0390E00306D453462146179A77
:10713000039800F0A9F90544002706E001A852468B
:10714000C05D179990476D1C7F1C4F45F6DBE0032F
:107150000CD553462146179A039800F095F905443B
:1071600004E030205246179990476D1C0099481E44
:1071700000900029F5DC08E0029802995246007858
:10718000491C0291179990476D1CBBF10001ABF1AE
:10719000010BF1DC5BE100F065F90544761C307809
:1071A00000287FF40DAE19B02846BDE8F08F00002E
:1071B00009280100303132333435363738396162CD
:1071C0006364656600000000303132333435363791
:1071D000383941424344454600000000600700D46E
:1071E000062708F1070020F00700F0E80223804698
:1071F00003F0004C5FEA0C0001D097A009E02005E5
:1072000001D596A005E0E00701D095A001E0AFF21E
:107210004C001390307823F0004365280CD006DC36
:10722000452809D046281DD047287FD13BE0662855
:1072300018D067287AD136E00021112F01DB112008
:1072400000E0781CCDE9000104A90CA8FFF7EEFCD2
:10725000DDE90D010C9A4FF0000B07F101091092C6
:1072600000914EE04FF000400097CDE9011004A9D5
:107270000CA8FFF7DBFCDDE90D020C9B0F994FF02A
:10728000000B91461093009211B9791C00EB010993
:10729000B7EB090003D4C0F1FF3B07F10109A9EBEB
:1072A0000700019042E0012F00DA01270021112F91
:1072B00001DD112000E03846CDE9000104A90CA849
:1072C000FFF7B4FCDDE90D010C9A00914FF0000BC3
:1072D000B946109221070FD4009A4A4503DA914625
:1072E00001E0A9F10109B9F1010F05DD109AA9F139
:1072F0000101515C3029F4D0B84202DA10F1040FD8
:1073000003DA0121CDE9011010E0002803DC8344F9
:10731000A9EB000102E0411C494500DD8946A0EBD4
:107320000B00401C01904FF000400290200705D454
:107330000198484502DB4FF0FF30019000208DF8A6
:107340004B0002980DF14B07B0F1004F25D0022001
:107350000C902B200D90029800280CDA40420290ED
:107360002D200D9007E00A210298FDF7BFF830317B
:10737000029007F8011D0C99481E0C900029F2DCC0
:1073800002980028EFD1791E0D980870307800F02F
:10739000200040F0450007F8020D11A8C01BC01DD9
:1073A00002901398007800B1012000EB09010198C8
:1073B00001EBE071029801440398401A401E0390CB
:1073C000E00306D453462146179A039800F05CF870
:1073D00005441398007818B15246179990476D1CD0
:1073E000E00323D553462146179A039800F04CF842
:1073F00005441BE0BBF1000F07DB0098584504DD96
:107400001098179910F80B0001E017993020524698
:10741000904701980BF1010B401E05F10105019009
:1074200004D12E205246179990476D1CB9F10001E6
:10743000A9F10109DEDC05E017F8010B52461799A6
:1074400090476D1C0299481E02900029F4DC5346B7
:107450002146179A03989EE62D0000002B0000009D
:10746000200000002DE9F041044600251E46174685
:10747000880404D405E039462020B0476D1C641E02
:10748000F9D52846BDE8F0812DE9F04104460025F4
:107490001E469046C80301D5302700E02027880407
:1074A00004D505E041463846B0476D1C641EF9D549
:1074B0002846BDE8F081000070B50F4CE078002848
:1074C00019D0FDF793FD0D4960694518284600F075
:1074D000F3F8A078002640F47F4233462946012085
:1074E000FDF744FD6069801C6061A670E670BDE830
:1074F0007040FDF731BD70BD240000200080000801
:10750000034800214A1EC0E905128170C17070470E
:10751000240000202DE9F05F0C468246FDF766FD51
:107520002048214A00274169C5788E1890F802B09A
:10753000281980B220F00109B846C10708D0401EC2
:1075400080B205B130B1411B1AF801704FF001084B
:10755000002417E05F46F9E7304600F0ADF805B1CA
:10756000F4B1611B1AF80100621B02EB0A0100234F
:10757000497840EA012231460120FDF7F7FCA41CBE
:10758000A4B2B61C4C45E7D3064807498770494268
:1075900080F8038031444161BDE8F05FFDF7DCBC59
:1075A0005846E1E72400002000800008014900203F
:1075B00048707047240000200048704702060020F1
:1075C000014840787047000024000020014880886E
:1075D00070470000240000200D4808B50068002115
:1075E000026842680092026840680A4B0090197075
:1075F000FFF786FF1878BDE8084000EBC00101EBFB
:107600004020054940F2092201440148FEF703BC2D
:10761000FC00002024000020F001002070B51A4E6C
:10762000356874684FF40050B0EB154F01D017A0C7
:1076300006E0154840422044B0F5004F04D318A09E
:10764000BDE87040FFF7C2BA72B6FDF71BFF00201D
:10765000421E810001F1E021C1F88021C1F88022A1
:10766000401C0828F5D34FF0E02100200861886114
:107670004861FDF70DFC85F308880E480660A446B6
:10768000BDE870406047000000800008E6A088E97F
:10769000A1B6E59CB0E59D80E99499E8AFAF0A00FA
:1076A000E9878DE7BDAEE59CB0E59D80E99499E85A
:1076B000AFAF0A0008ED00E030B5114D840AA40216
:1076C000A86985B0844218D0204604F5806111E095
:1076D0000278FF2A0DD000200190029004900090C3
:1076E0000120CDE90104039004A96846FDF7E0FB01
:1076F00002E0401C8842EBD3AC6105B030BD000015
:107700002400002013B54FF6FF730122694602489A
:10771000FEF7ECFD00981CBDFC00002062B6FDF7F2
:1077200089FDFEF7B1FFFEF7D1FEFEF7B1FEFEF7D1
:1077300055FFFEF787FFFEF72DFF10A0FFF746FA73
:107740001348FEF70BFAFFF747FFFDF71FF8FDF7A9
:1077500063FD104D04464FF4FA6600BFFDF742F892
:10776000FDF75AFD001BB042F8D3FDF755FD044666
:1077700004212846FDF743FDF0E700000D0A3D3DDA
:107780003D20626F6F74203D3D3D0D0A00000000FA
:10779000B4000020000801402DE9F0411F4690464A
:1077A0000D460646002407E03019062217A1FCF713
:1077B000EFFC20B1641CA4B2A01DA842F4D9A41D02
:1077C000AC4220D80021A0B26FF02F034FF4404C00
:1077D00009E000BF01EB810103EB41011144614568
:1077E00011D8401C80B2A84204D2325C302A01D3A6
:1077F000392AEFD9A04206D029B1C8F80010388044
:107800000120BDE8F0810020FBE700007374617285
:10781000743A0000010202030405060708090A0B76
:107820000C0D0E0F101000000000000000000102FF
:107830000304060708090000000001020304000019
:1078400060780008000000205C0000000C6C00085C
:10785000BC7800085C000020BC0D00001C6C000817
:107860000000000001000000100000000000000007
:1078700000127A000000000000000000000000007C
:1078800000000000000000000000000000000000F8
:10789000000000000000000000000000FFFFFFFFEC
:1078A00000000000000000000000000000000000D8
:0C78B000000000000000000000000000CC
:04000005080040EDC2
:00000001FF
